{
  "address": "0x06d100657c8B572366309e3E26C54b139B48Ca1c",
  "abi": [
    {
      "inputs": [],
      "stateMutability": "nonpayable",
      "type": "constructor"
    },
    {
      "inputs": [
        {
          "internalType": "uint256",
          "name": "loanId",
          "type": "uint256"
        },
        {
          "internalType": "uint256",
          "name": "approvalBlock",
          "type": "uint256"
        },
        {
          "internalType": "uint256",
          "name": "expiryBlock",
          "type": "uint256"
        }
      ],
      "name": "ApprovedLoanExpired",
      "type": "error"
    },
    {
      "inputs": [
        {
          "internalType": "uint256",
          "name": "loanId",
          "type": "uint256"
        },
        {
          "internalType": "uint256",
          "name": "currentBlock",
          "type": "uint256"
        },
        {
          "internalType": "uint256",
          "name": "expiryBlock",
          "type": "uint256"
        }
      ],
      "name": "ApprovedLoanNotExpired",
      "type": "error"
    },
    {
      "inputs": [
        {
          "internalType": "address",
          "name": "borrower",
          "type": "address"
        }
      ],
      "name": "BorrowerHasOpenLoan",
      "type": "error"
    },
    {
      "inputs": [],
      "name": "CannotGuaranteeSelf",
      "type": "error"
    },
    {
      "inputs": [
        {
          "internalType": "address",
          "name": "user",
          "type": "address"
        },
        {
          "internalType": "uint256",
          "name": "cooldownEndBlock",
          "type": "uint256"
        }
      ],
      "name": "CooldownNotExpired",
      "type": "error"
    },
    {
      "inputs": [],
      "name": "EnforcedPause",
      "type": "error"
    },
    {
      "inputs": [
        {
          "internalType": "address",
          "name": "user",
          "type": "address"
        }
      ],
      "name": "ExceedsMaxPendingLoans",
      "type": "error"
    },
    {
      "inputs": [],
      "name": "ExpectedPause",
      "type": "error"
    },
    {
      "inputs": [
        {
          "internalType": "address",
          "name": "guarantor",
          "type": "address"
        },
        {
          "internalType": "address",
          "name": "borrower",
          "type": "address"
        }
      ],
      "name": "GuaranteeAlreadyExists",
      "type": "error"
    },
    {
      "inputs": [
        {
          "internalType": "address",
          "name": "guarantor",
          "type": "address"
        },
        {
          "internalType": "address",
          "name": "borrower",
          "type": "address"
        }
      ],
      "name": "GuaranteeNotFound",
      "type": "error"
    },
    {
      "inputs": [
        {
          "internalType": "address",
          "name": "user",
          "type": "address"
        }
      ],
      "name": "HasActiveLoan",
      "type": "error"
    },
    {
      "inputs": [
        {
          "internalType": "address",
          "name": "user",
          "type": "address"
        }
      ],
      "name": "HasUnpaidDebt",
      "type": "error"
    },
    {
      "inputs": [
        {
          "internalType": "uint256",
          "name": "required",
          "type": "uint256"
        },
        {
          "internalType": "uint256",
          "name": "actual",
          "type": "uint256"
        }
      ],
      "name": "InsufficientAllowance",
      "type": "error"
    },
    {
      "inputs": [
        {
          "internalType": "uint256",
          "name": "requested",
          "type": "uint256"
        },
        {
          "internalType": "uint256",
          "name": "available",
          "type": "uint256"
        }
      ],
      "name": "InsufficientLiquidity",
      "type": "error"
    },
    {
      "inputs": [
        {
          "internalType": "address",
          "name": "addr",
          "type": "address"
        }
      ],
      "name": "InvalidAddress",
      "type": "error"
    },
    {
      "inputs": [
        {
          "internalType": "uint256",
          "name": "amount",
          "type": "uint256"
        },
        {
          "internalType": "uint256",
          "name": "min",
          "type": "uint256"
        },
        {
          "internalType": "uint256",
          "name": "max",
          "type": "uint256"
        }
      ],
      "name": "InvalidAmount",
      "type": "error"
    },
    {
      "inputs": [
        {
          "internalType": "uint256",
          "name": "blockTime",
          "type": "uint256"
        }
      ],
      "name": "InvalidBlockTime",
      "type": "error"
    },
    {
      "inputs": [
        {
          "internalType": "address",
          "name": "token",
          "type": "address"
        }
      ],
      "name": "InvalidDefaultToken",
      "type": "error"
    },
    {
      "inputs": [
        {
          "internalType": "uint256",
          "name": "duration",
          "type": "uint256"
        },
        {
          "internalType": "uint256",
          "name": "min",
          "type": "uint256"
        },
        {
          "internalType": "uint256",
          "name": "max",
          "type": "uint256"
        }
      ],
      "name": "InvalidDuration",
      "type": "error"
    },
    {
      "inputs": [],
      "name": "InvalidInitialization",
      "type": "error"
    },
    {
      "inputs": [
        {
          "internalType": "uint8",
          "name": "current",
          "type": "uint8"
        },
        {
          "internalType": "uint8",
          "name": "required",
          "type": "uint8"
        }
      ],
      "name": "InvalidLoanStatus",
      "type": "error"
    },
    {
      "inputs": [
        {
          "internalType": "address",
          "name": "owner",
          "type": "address"
        }
      ],
      "name": "InvalidOwner",
      "type": "error"
    },
    {
      "inputs": [
        {
          "internalType": "address",
          "name": "token",
          "type": "address"
        }
      ],
      "name": "InvalidPool",
      "type": "error"
    },
    {
      "inputs": [
        {
          "internalType": "uint256",
          "name": "minAmount",
          "type": "uint256"
        },
        {
          "internalType": "uint256",
          "name": "maxAmount",
          "type": "uint256"
        }
      ],
      "name": "InvalidPoolLoanLimits",
      "type": "error"
    },
    {
      "inputs": [
        {
          "internalType": "uint16",
          "name": "reputation",
          "type": "uint16"
        },
        {
          "internalType": "uint16",
          "name": "min",
          "type": "uint16"
        }
      ],
      "name": "InvalidReputation",
      "type": "error"
    },
    {
      "inputs": [
        {
          "internalType": "uint256",
          "name": "loanId",
          "type": "uint256"
        },
        {
          "internalType": "uint8",
          "name": "status",
          "type": "uint8"
        }
      ],
      "name": "LoanAlreadyInStatus",
      "type": "error"
    },
    {
      "inputs": [
        {
          "internalType": "uint256",
          "name": "loanId",
          "type": "uint256"
        }
      ],
      "name": "LoanNotFound",
      "type": "error"
    },
    {
      "inputs": [
        {
          "internalType": "address",
          "name": "caller",
          "type": "address"
        },
        {
          "internalType": "address",
          "name": "borrower",
          "type": "address"
        }
      ],
      "name": "NotAGuarantor",
      "type": "error"
    },
    {
      "inputs": [
        {
          "internalType": "address",
          "name": "caller",
          "type": "address"
        },
        {
          "internalType": "address",
          "name": "borrower",
          "type": "address"
        }
      ],
      "name": "NotBorrower",
      "type": "error"
    },
    {
      "inputs": [
        {
          "internalType": "uint256",
          "name": "requested",
          "type": "uint256"
        },
        {
          "internalType": "uint256",
          "name": "available",
          "type": "uint256"
        }
      ],
      "name": "NotEnoughCash",
      "type": "error"
    },
    {
      "inputs": [],
      "name": "NotInitializing",
      "type": "error"
    },
    {
      "inputs": [
        {
          "internalType": "address",
          "name": "owner",
          "type": "address"
        }
      ],
      "name": "OwnableInvalidOwner",
      "type": "error"
    },
    {
      "inputs": [
        {
          "internalType": "address",
          "name": "account",
          "type": "address"
        }
      ],
      "name": "OwnableUnauthorizedAccount",
      "type": "error"
    },
    {
      "inputs": [],
      "name": "ReentrancyGuardReentrantCall",
      "type": "error"
    },
    {
      "inputs": [
        {
          "internalType": "address",
          "name": "token",
          "type": "address"
        }
      ],
      "name": "SafeERC20FailedOperation",
      "type": "error"
    },
    {
      "inputs": [
        {
          "internalType": "address",
          "name": "token",
          "type": "address"
        }
      ],
      "name": "UnsupportedTokenTransfer",
      "type": "error"
    },
    {
      "anonymous": false,
      "inputs": [
        {
          "indexed": true,
          "internalType": "address",
          "name": "sender",
          "type": "address"
        },
        {
          "indexed": false,
          "internalType": "uint256",
          "name": "amount",
          "type": "uint256"
        },
        {
          "indexed": false,
          "internalType": "uint256",
          "name": "blockNumber",
          "type": "uint256"
        }
      ],
      "name": "ETHReceived",
      "type": "event"
    },
    {
      "anonymous": false,
      "inputs": [
        {
          "indexed": true,
          "internalType": "address",
          "name": "oldExtension",
          "type": "address"
        },
        {
          "indexed": true,
          "internalType": "address",
          "name": "newExtension",
          "type": "address"
        },
        {
          "indexed": false,
          "internalType": "uint256",
          "name": "blockNumber",
          "type": "uint256"
        }
      ],
      "name": "ExtensionUpdated",
      "type": "event"
    },
    {
      "anonymous": false,
      "inputs": [
        {
          "indexed": true,
          "internalType": "address",
          "name": "guarantor",
          "type": "address"
        },
        {
          "indexed": true,
          "internalType": "address",
          "name": "borrower",
          "type": "address"
        },
        {
          "indexed": false,
          "internalType": "uint256",
          "name": "blockNumber",
          "type": "uint256"
        }
      ],
      "name": "GuaranteeRegistered",
      "type": "event"
    },
    {
      "anonymous": false,
      "inputs": [
        {
          "indexed": true,
          "internalType": "address",
          "name": "guarantor",
          "type": "address"
        },
        {
          "indexed": true,
          "internalType": "address",
          "name": "borrower",
          "type": "address"
        },
        {
          "indexed": false,
          "internalType": "uint256",
          "name": "blockNumber",
          "type": "uint256"
        }
      ],
      "name": "GuaranteeRemoved",
      "type": "event"
    },
    {
      "anonymous": false,
      "inputs": [
        {
          "indexed": true,
          "internalType": "uint256",
          "name": "loanId",
          "type": "uint256"
        },
        {
          "indexed": true,
          "internalType": "address",
          "name": "guarantor",
          "type": "address"
        },
        {
          "indexed": true,
          "internalType": "address",
          "name": "borrower",
          "type": "address"
        },
        {
          "indexed": false,
          "internalType": "uint256",
          "name": "amountPaid",
          "type": "uint256"
        },
        {
          "indexed": false,
          "internalType": "uint256",
          "name": "blockNumber",
          "type": "uint256"
        }
      ],
      "name": "GuarantorPaidOnBehalf",
      "type": "event"
    },
    {
      "anonymous": false,
      "inputs": [
        {
          "indexed": false,
          "internalType": "uint64",
          "name": "version",
          "type": "uint64"
        }
      ],
      "name": "Initialized",
      "type": "event"
    },
    {
      "anonymous": false,
      "inputs": [
        {
          "indexed": true,
          "internalType": "address",
          "name": "lender",
          "type": "address"
        },
        {
          "indexed": true,
          "internalType": "address",
          "name": "token",
          "type": "address"
        },
        {
          "indexed": false,
          "internalType": "uint256",
          "name": "amount",
          "type": "uint256"
        },
        {
          "indexed": false,
          "internalType": "uint256",
          "name": "blockNumber",
          "type": "uint256"
        }
      ],
      "name": "LiquidityDeposited",
      "type": "event"
    },
    {
      "anonymous": false,
      "inputs": [
        {
          "indexed": true,
          "internalType": "address",
          "name": "lender",
          "type": "address"
        },
        {
          "indexed": true,
          "internalType": "address",
          "name": "token",
          "type": "address"
        },
        {
          "indexed": false,
          "internalType": "uint256",
          "name": "principalAmount",
          "type": "uint256"
        },
        {
          "indexed": false,
          "internalType": "uint256",
          "name": "interestAmount",
          "type": "uint256"
        },
        {
          "indexed": false,
          "internalType": "uint256",
          "name": "totalAmount",
          "type": "uint256"
        },
        {
          "indexed": false,
          "internalType": "uint256",
          "name": "blockNumber",
          "type": "uint256"
        }
      ],
      "name": "LiquidityWithdrawn",
      "type": "event"
    },
    {
      "anonymous": false,
      "inputs": [
        {
          "indexed": true,
          "internalType": "uint256",
          "name": "loanId",
          "type": "uint256"
        },
        {
          "indexed": true,
          "internalType": "address",
          "name": "borrower",
          "type": "address"
        },
        {
          "indexed": false,
          "internalType": "address",
          "name": "token",
          "type": "address"
        },
        {
          "indexed": false,
          "internalType": "uint256",
          "name": "principal",
          "type": "uint256"
        },
        {
          "indexed": false,
          "internalType": "uint256",
          "name": "initialOwed",
          "type": "uint256"
        },
        {
          "indexed": false,
          "internalType": "uint256",
          "name": "startBlock",
          "type": "uint256"
        }
      ],
      "name": "LoanBorrowed",
      "type": "event"
    },
    {
      "anonymous": false,
      "inputs": [
        {
          "indexed": true,
          "internalType": "uint256",
          "name": "loanId",
          "type": "uint256"
        },
        {
          "indexed": true,
          "internalType": "address",
          "name": "borrower",
          "type": "address"
        },
        {
          "indexed": false,
          "internalType": "uint256",
          "name": "deadlineBlock",
          "type": "uint256"
        },
        {
          "indexed": false,
          "internalType": "uint256",
          "name": "blockNumber",
          "type": "uint256"
        }
      ],
      "name": "LoanMovedToUnpaidDebt",
      "type": "event"
    },
    {
      "anonymous": false,
      "inputs": [
        {
          "indexed": true,
          "internalType": "uint256",
          "name": "loanId",
          "type": "uint256"
        },
        {
          "indexed": true,
          "internalType": "address",
          "name": "payer",
          "type": "address"
        },
        {
          "indexed": false,
          "internalType": "address",
          "name": "token",
          "type": "address"
        },
        {
          "indexed": false,
          "internalType": "uint256",
          "name": "repaymentAmount",
          "type": "uint256"
        },
        {
          "indexed": false,
          "internalType": "uint256",
          "name": "remainingBalance",
          "type": "uint256"
        },
        {
          "indexed": false,
          "internalType": "uint256",
          "name": "blockNumber",
          "type": "uint256"
        }
      ],
      "name": "LoanRepaid",
      "type": "event"
    },
    {
      "anonymous": false,
      "inputs": [
        {
          "indexed": true,
          "internalType": "uint256",
          "name": "loanId",
          "type": "uint256"
        },
        {
          "indexed": true,
          "internalType": "address",
          "name": "borrower",
          "type": "address"
        },
        {
          "indexed": false,
          "internalType": "uint256",
          "name": "rejectionBlock",
          "type": "uint256"
        }
      ],
      "name": "LoanRequestRejected",
      "type": "event"
    },
    {
      "anonymous": false,
      "inputs": [
        {
          "indexed": true,
          "internalType": "uint256",
          "name": "loanId",
          "type": "uint256"
        },
        {
          "indexed": true,
          "internalType": "address",
          "name": "borrower",
          "type": "address"
        },
        {
          "indexed": false,
          "internalType": "uint16",
          "name": "walletReputation",
          "type": "uint16"
        },
        {
          "indexed": false,
          "internalType": "uint256",
          "name": "loanAmount",
          "type": "uint256"
        },
        {
          "indexed": false,
          "internalType": "uint256",
          "name": "loanDurationBlocks",
          "type": "uint256"
        },
        {
          "indexed": false,
          "internalType": "uint256",
          "name": "blockNumber",
          "type": "uint256"
        }
      ],
      "name": "LoanRequestSubmitted",
      "type": "event"
    },
    {
      "anonymous": false,
      "inputs": [
        {
          "indexed": true,
          "internalType": "address",
          "name": "previousOwner",
          "type": "address"
        },
        {
          "indexed": true,
          "internalType": "address",
          "name": "newOwner",
          "type": "address"
        }
      ],
      "name": "OwnershipTransferred",
      "type": "event"
    },
    {
      "anonymous": false,
      "inputs": [
        {
          "indexed": false,
          "internalType": "address",
          "name": "account",
          "type": "address"
        }
      ],
      "name": "Paused",
      "type": "event"
    },
    {
      "anonymous": false,
      "inputs": [
        {
          "indexed": false,
          "internalType": "address",
          "name": "account",
          "type": "address"
        }
      ],
      "name": "Unpaused",
      "type": "event"
    },
    {
      "stateMutability": "payable",
      "type": "fallback"
    },
    {
      "inputs": [],
      "name": "MAX_BLOCKS_FOR_INTEREST",
      "outputs": [
        {
          "internalType": "uint256",
          "name": "",
          "type": "uint256"
        }
      ],
      "stateMutability": "view",
      "type": "function"
    },
    {
      "inputs": [],
      "name": "MAX_BORROWER_RATE",
      "outputs": [
        {
          "internalType": "uint256",
          "name": "",
          "type": "uint256"
        }
      ],
      "stateMutability": "view",
      "type": "function"
    },
    {
      "inputs": [],
      "name": "MAX_PENDING_LOANS_PER_USER",
      "outputs": [
        {
          "internalType": "uint256",
          "name": "",
          "type": "uint256"
        }
      ],
      "stateMutability": "view",
      "type": "function"
    },
    {
      "inputs": [],
      "name": "MIN_BORROWER_RATE",
      "outputs": [
        {
          "internalType": "uint256",
          "name": "",
          "type": "uint256"
        }
      ],
      "stateMutability": "view",
      "type": "function"
    },
    {
      "inputs": [
        {
          "internalType": "address",
          "name": "",
          "type": "address"
        }
      ],
      "name": "activeLenderCount",
      "outputs": [
        {
          "internalType": "uint256",
          "name": "",
          "type": "uint256"
        }
      ],
      "stateMutability": "view",
      "type": "function"
    },
    {
      "inputs": [
        {
          "internalType": "address",
          "name": "",
          "type": "address"
        }
      ],
      "name": "activeLoansPerPool",
      "outputs": [
        {
          "internalType": "uint256",
          "name": "",
          "type": "uint256"
        }
      ],
      "stateMutability": "view",
      "type": "function"
    },
    {
      "inputs": [],
      "name": "approvedLoanExpiryBlocks",
      "outputs": [
        {
          "internalType": "uint256",
          "name": "",
          "type": "uint256"
        }
      ],
      "stateMutability": "view",
      "type": "function"
    },
    {
      "inputs": [],
      "name": "blockTimeSeconds",
      "outputs": [
        {
          "internalType": "uint256",
          "name": "",
          "type": "uint256"
        }
      ],
      "stateMutability": "view",
      "type": "function"
    },
    {
      "inputs": [
        {
          "internalType": "uint256",
          "name": "loanId",
          "type": "uint256"
        },
        {
          "internalType": "uint256",
          "name": "tokenAmount",
          "type": "uint256"
        }
      ],
      "name": "borrow",
      "outputs": [],
      "stateMutability": "nonpayable",
      "type": "function"
    },
    {
      "inputs": [],
      "name": "cooldownBlocks",
      "outputs": [
        {
          "internalType": "uint256",
          "name": "",
          "type": "uint256"
        }
      ],
      "stateMutability": "view",
      "type": "function"
    },
    {
      "inputs": [],
      "name": "defaultToken",
      "outputs": [
        {
          "internalType": "address",
          "name": "",
          "type": "address"
        }
      ],
      "stateMutability": "view",
      "type": "function"
    },
    {
      "inputs": [
        {
          "internalType": "address",
          "name": "token",
          "type": "address"
        },
        {
          "internalType": "uint256",
          "name": "amount",
          "type": "uint256"
        }
      ],
      "name": "depositLiquidity",
      "outputs": [],
      "stateMutability": "nonpayable",
      "type": "function"
    },
    {
      "inputs": [
        {
          "internalType": "uint256",
          "name": "loanId",
          "type": "uint256"
        }
      ],
      "name": "expireApprovedLoan",
      "outputs": [],
      "stateMutability": "nonpayable",
      "type": "function"
    },
    {
      "inputs": [],
      "name": "extensionDelegate",
      "outputs": [
        {
          "internalType": "address",
          "name": "",
          "type": "address"
        }
      ],
      "stateMutability": "view",
      "type": "function"
    },
    {
      "inputs": [
        {
          "internalType": "uint256",
          "name": "loanId",
          "type": "uint256"
        }
      ],
      "name": "getApprovedLoanAmount",
      "outputs": [
        {
          "internalType": "uint256",
          "name": "approvedAmount",
          "type": "uint256"
        }
      ],
      "stateMutability": "view",
      "type": "function"
    },
    {
      "inputs": [
        {
          "internalType": "address",
          "name": "lender",
          "type": "address"
        },
        {
          "internalType": "address",
          "name": "token",
          "type": "address"
        }
      ],
      "name": "getLenderPosition",
      "outputs": [
        {
          "internalType": "uint256",
          "name": "depositedAmount",
          "type": "uint256"
        },
        {
          "internalType": "uint256",
          "name": "accruedInterest",
          "type": "uint256"
        },
        {
          "internalType": "uint256",
          "name": "totalWithdrawable",
          "type": "uint256"
        }
      ],
      "stateMutability": "view",
      "type": "function"
    },
    {
      "inputs": [
        {
          "internalType": "address",
          "name": "",
          "type": "address"
        },
        {
          "internalType": "address",
          "name": "",
          "type": "address"
        }
      ],
      "name": "guaranteeBonds",
      "outputs": [
        {
          "internalType": "address",
          "name": "guarantor",
          "type": "address"
        },
        {
          "internalType": "address",
          "name": "borrower",
          "type": "address"
        },
        {
          "internalType": "bool",
          "name": "active",
          "type": "bool"
        }
      ],
      "stateMutability": "view",
      "type": "function"
    },
    {
      "inputs": [
        {
          "internalType": "address",
          "name": "user",
          "type": "address"
        }
      ],
      "name": "hasUnpaidDebt",
      "outputs": [
        {
          "internalType": "bool",
          "name": "",
          "type": "bool"
        }
      ],
      "stateMutability": "view",
      "type": "function"
    },
    {
      "inputs": [
        {
          "internalType": "address",
          "name": "_defaultToken",
          "type": "address"
        },
        {
          "internalType": "uint256",
          "name": "blockTimeSecondsValue",
          "type": "uint256"
        },
        {
          "internalType": "address",
          "name": "initialOwner",
          "type": "address"
        },
        {
          "internalType": "uint256",
          "name": "_defaultMinLoanAmount",
          "type": "uint256"
        },
        {
          "internalType": "uint256",
          "name": "_defaultMaxLoanAmount",
          "type": "uint256"
        },
        {
          "internalType": "address",
          "name": "_extensionDelegate",
          "type": "address"
        }
      ],
      "name": "initialize",
      "outputs": [],
      "stateMutability": "nonpayable",
      "type": "function"
    },
    {
      "inputs": [
        {
          "internalType": "address",
          "name": "",
          "type": "address"
        }
      ],
      "name": "lastRequestBlock",
      "outputs": [
        {
          "internalType": "uint256",
          "name": "",
          "type": "uint256"
        }
      ],
      "stateMutability": "view",
      "type": "function"
    },
    {
      "inputs": [
        {
          "internalType": "address",
          "name": "",
          "type": "address"
        },
        {
          "internalType": "address",
          "name": "",
          "type": "address"
        }
      ],
      "name": "lenderAccruedInterest",
      "outputs": [
        {
          "internalType": "uint256",
          "name": "",
          "type": "uint256"
        }
      ],
      "stateMutability": "view",
      "type": "function"
    },
    {
      "inputs": [
        {
          "internalType": "address",
          "name": "",
          "type": "address"
        },
        {
          "internalType": "address",
          "name": "",
          "type": "address"
        }
      ],
      "name": "lenderPositions",
      "outputs": [
        {
          "internalType": "address",
          "name": "lender",
          "type": "address"
        },
        {
          "internalType": "address",
          "name": "token",
          "type": "address"
        },
        {
          "internalType": "uint256",
          "name": "depositedAmount",
          "type": "uint256"
        },
        {
          "internalType": "uint256",
          "name": "depositBlock",
          "type": "uint256"
        },
        {
          "internalType": "uint256",
          "name": "lastWithdrawBlock",
          "type": "uint256"
        }
      ],
      "stateMutability": "view",
      "type": "function"
    },
    {
      "inputs": [
        {
          "internalType": "address",
          "name": "",
          "type": "address"
        },
        {
          "internalType": "address",
          "name": "",
          "type": "address"
        }
      ],
      "name": "lenderSupplyIndex",
      "outputs": [
        {
          "internalType": "uint256",
          "name": "",
          "type": "uint256"
        }
      ],
      "stateMutability": "view",
      "type": "function"
    },
    {
      "inputs": [],
      "name": "loanCounter",
      "outputs": [
        {
          "internalType": "uint256",
          "name": "",
          "type": "uint256"
        }
      ],
      "stateMutability": "view",
      "type": "function"
    },
    {
      "inputs": [
        {
          "internalType": "uint256",
          "name": "",
          "type": "uint256"
        }
      ],
      "name": "loanInitialPrincipal",
      "outputs": [
        {
          "internalType": "uint256",
          "name": "",
          "type": "uint256"
        }
      ],
      "stateMutability": "view",
      "type": "function"
    },
    {
      "inputs": [
        {
          "internalType": "uint256",
          "name": "",
          "type": "uint256"
        }
      ],
      "name": "loans",
      "outputs": [
        {
          "internalType": "uint256",
          "name": "loanId",
          "type": "uint256"
        },
        {
          "internalType": "address",
          "name": "borrower",
          "type": "address"
        },
        {
          "internalType": "enum IUnlloo.LoanStatus",
          "name": "status",
          "type": "uint8"
        },
        {
          "internalType": "uint16",
          "name": "walletReputation",
          "type": "uint16"
        },
        {
          "internalType": "uint256",
          "name": "loanAmount",
          "type": "uint256"
        },
        {
          "internalType": "uint256",
          "name": "loanDurationBlocks",
          "type": "uint256"
        },
        {
          "internalType": "uint256",
          "name": "chainId",
          "type": "uint256"
        },
        {
          "internalType": "uint256",
          "name": "requestBlock",
          "type": "uint256"
        },
        {
          "internalType": "uint256",
          "name": "approvalBlock",
          "type": "uint256"
        },
        {
          "internalType": "address",
          "name": "token",
          "type": "address"
        },
        {
          "internalType": "uint256",
          "name": "principal",
          "type": "uint256"
        },
        {
          "internalType": "uint256",
          "name": "amountRepaid",
          "type": "uint256"
        },
        {
          "internalType": "uint256",
          "name": "startBlock",
          "type": "uint256"
        },
        {
          "internalType": "uint256",
          "name": "deadlineBlock",
          "type": "uint256"
        },
        {
          "internalType": "uint256",
          "name": "protocolFee",
          "type": "uint256"
        },
        {
          "internalType": "uint256",
          "name": "interestAccrued",
          "type": "uint256"
        },
        {
          "internalType": "uint256",
          "name": "borrowRateBps",
          "type": "uint256"
        },
        {
          "internalType": "uint256",
          "name": "lastAccrualBlock",
          "type": "uint256"
        }
      ],
      "stateMutability": "view",
      "type": "function"
    },
    {
      "inputs": [
        {
          "internalType": "uint256",
          "name": "loanId",
          "type": "uint256"
        }
      ],
      "name": "markLoanOverdue",
      "outputs": [],
      "stateMutability": "nonpayable",
      "type": "function"
    },
    {
      "inputs": [
        {
          "internalType": "address",
          "name": "",
          "type": "address"
        }
      ],
      "name": "maxLoanAmountPerPool",
      "outputs": [
        {
          "internalType": "uint256",
          "name": "",
          "type": "uint256"
        }
      ],
      "stateMutability": "view",
      "type": "function"
    },
    {
      "inputs": [],
      "name": "maxLoanDurationBlocks",
      "outputs": [
        {
          "internalType": "uint256",
          "name": "",
          "type": "uint256"
        }
      ],
      "stateMutability": "view",
      "type": "function"
    },
    {
      "inputs": [
        {
          "internalType": "address",
          "name": "",
          "type": "address"
        }
      ],
      "name": "minLoanAmountPerPool",
      "outputs": [
        {
          "internalType": "uint256",
          "name": "",
          "type": "uint256"
        }
      ],
      "stateMutability": "view",
      "type": "function"
    },
    {
      "inputs": [],
      "name": "minLoanDurationBlocks",
      "outputs": [
        {
          "internalType": "uint256",
          "name": "",
          "type": "uint256"
        }
      ],
      "stateMutability": "view",
      "type": "function"
    },
    {
      "inputs": [],
      "name": "minReputation",
      "outputs": [
        {
          "internalType": "uint16",
          "name": "",
          "type": "uint16"
        }
      ],
      "stateMutability": "view",
      "type": "function"
    },
    {
      "inputs": [
        {
          "internalType": "address",
          "name": "",
          "type": "address"
        }
      ],
      "name": "openRequestCount",
      "outputs": [
        {
          "internalType": "uint256",
          "name": "",
          "type": "uint256"
        }
      ],
      "stateMutability": "view",
      "type": "function"
    },
    {
      "inputs": [],
      "name": "owner",
      "outputs": [
        {
          "internalType": "address",
          "name": "",
          "type": "address"
        }
      ],
      "stateMutability": "view",
      "type": "function"
    },
    {
      "inputs": [],
      "name": "paused",
      "outputs": [
        {
          "internalType": "bool",
          "name": "",
          "type": "bool"
        }
      ],
      "stateMutability": "view",
      "type": "function"
    },
    {
      "inputs": [
        {
          "internalType": "uint256",
          "name": "loanId",
          "type": "uint256"
        },
        {
          "internalType": "uint256",
          "name": "amount",
          "type": "uint256"
        }
      ],
      "name": "payOnBehalf",
      "outputs": [],
      "stateMutability": "nonpayable",
      "type": "function"
    },
    {
      "inputs": [
        {
          "internalType": "address",
          "name": "",
          "type": "address"
        }
      ],
      "name": "poolSupplyIndex",
      "outputs": [
        {
          "internalType": "uint256",
          "name": "",
          "type": "uint256"
        }
      ],
      "stateMutability": "view",
      "type": "function"
    },
    {
      "inputs": [
        {
          "internalType": "address",
          "name": "",
          "type": "address"
        }
      ],
      "name": "poolUndistributedInterest",
      "outputs": [
        {
          "internalType": "uint256",
          "name": "",
          "type": "uint256"
        }
      ],
      "stateMutability": "view",
      "type": "function"
    },
    {
      "inputs": [
        {
          "internalType": "address",
          "name": "",
          "type": "address"
        }
      ],
      "name": "pools",
      "outputs": [
        {
          "internalType": "address",
          "name": "token",
          "type": "address"
        },
        {
          "internalType": "uint256",
          "name": "totalLiquidity",
          "type": "uint256"
        },
        {
          "internalType": "uint256",
          "name": "borrowedAmount",
          "type": "uint256"
        }
      ],
      "stateMutability": "view",
      "type": "function"
    },
    {
      "inputs": [
        {
          "internalType": "address",
          "name": "",
          "type": "address"
        }
      ],
      "name": "protocolFees",
      "outputs": [
        {
          "internalType": "uint256",
          "name": "",
          "type": "uint256"
        }
      ],
      "stateMutability": "view",
      "type": "function"
    },
    {
      "inputs": [
        {
          "internalType": "address",
          "name": "borrower",
          "type": "address"
        }
      ],
      "name": "registerGuarantee",
      "outputs": [],
      "stateMutability": "nonpayable",
      "type": "function"
    },
    {
      "inputs": [
        {
          "internalType": "address",
          "name": "borrower",
          "type": "address"
        }
      ],
      "name": "removeGuarantee",
      "outputs": [],
      "stateMutability": "nonpayable",
      "type": "function"
    },
    {
      "inputs": [],
      "name": "renounceOwnership",
      "outputs": [],
      "stateMutability": "nonpayable",
      "type": "function"
    },
    {
      "inputs": [
        {
          "internalType": "uint256",
          "name": "loanId",
          "type": "uint256"
        },
        {
          "internalType": "uint256",
          "name": "amount",
          "type": "uint256"
        }
      ],
      "name": "repay",
      "outputs": [],
      "stateMutability": "nonpayable",
      "type": "function"
    },
    {
      "inputs": [
        {
          "internalType": "address",
          "name": "newExtension",
          "type": "address"
        }
      ],
      "name": "setExtension",
      "outputs": [],
      "stateMutability": "nonpayable",
      "type": "function"
    },
    {
      "inputs": [
        {
          "internalType": "uint16",
          "name": "walletReputation",
          "type": "uint16"
        },
        {
          "internalType": "address",
          "name": "token",
          "type": "address"
        },
        {
          "internalType": "uint256",
          "name": "loanAmount",
          "type": "uint256"
        },
        {
          "internalType": "uint256",
          "name": "loanDurationBlocks",
          "type": "uint256"
        }
      ],
      "name": "submitLoanRequest",
      "outputs": [
        {
          "internalType": "uint256",
          "name": "loanId",
          "type": "uint256"
        }
      ],
      "stateMutability": "nonpayable",
      "type": "function"
    },
    {
      "inputs": [
        {
          "internalType": "address",
          "name": "newOwner",
          "type": "address"
        }
      ],
      "name": "transferOwnership",
      "outputs": [],
      "stateMutability": "nonpayable",
      "type": "function"
    },
    {
      "inputs": [
        {
          "internalType": "address",
          "name": "",
          "type": "address"
        }
      ],
      "name": "unpaidDebtLoanCount",
      "outputs": [
        {
          "internalType": "uint256",
          "name": "",
          "type": "uint256"
        }
      ],
      "stateMutability": "view",
      "type": "function"
    },
    {
      "inputs": [
        {
          "internalType": "address",
          "name": "",
          "type": "address"
        }
      ],
      "name": "unpaidDebtLoansPerPool",
      "outputs": [
        {
          "internalType": "uint256",
          "name": "",
          "type": "uint256"
        }
      ],
      "stateMutability": "view",
      "type": "function"
    },
    {
      "inputs": [
        {
          "internalType": "address",
          "name": "token",
          "type": "address"
        },
        {
          "internalType": "uint256",
          "name": "amount",
          "type": "uint256"
        }
      ],
      "name": "withdrawLiquidity",
      "outputs": [],
      "stateMutability": "nonpayable",
      "type": "function"
    },
    {
      "stateMutability": "payable",
      "type": "receive"
    }
  ],
  "transactionHash": "0xbf5206df84f7e794c380c59a3e0068939fe284a3928b220ed58607fedf0a9dc2",
  "args": [],
  "numDeployments": 1,
  "solcInputHash": "c96a9109365e0e3bbebcdb835e487a40",
  "bytecode": "0x60808060405234620000bd577ff0c57e16840df040f15088dc2f81fe391c3923bec73e23a9662efc9c229c6a009081549060ff8260401c16620000ae57506001600160401b036002600160401b03198282160162000068575b6040516149da9081620000c38239f35b6001600160401b031990911681179091556040519081527fc7f505b2f371ae2175ee4913f4499e1f2633a7b5936321eed1cdaeb6115181d290602090a138808062000058565b63f92ee8a960e01b8152600490fd5b600080fdfe60a06040526004361015610107575b361561005e576050546001600160a01b03168015610045576000808092368280378136915af43d82803e15610041573d90f35b3d90fd5b604051634726455360e11b815260006004820152602490fd5b6100666133ca565b600060028154146100f5576002815534156100cc57808060019252603a60205260408120610095348254612efb565b90556040513481524360208201527f7dd768b8b37911c0bb413d9cf56fcb57b286f5def4c57d475c8abdd6737b7e1e60403392a255005b6040516346f4384b60e01b81526004810191909152600160248201526000196044820152606490fd5b604051633ee5aeb560e01b8152600490fd5b60003560e01c806306d47de914612a5857806309d35c5b14612a3a5780630baa9ed614612a1c5780630ecbcdab146124ca578063117b0cca146124ac5780631325a18a14612472578063145824e3146124385780632711ce62146123fe5780632f28d7e0146123c457806334d9289e146123a657806339b41b4a1461217457806344ff241d1461214b57806349a3078014611f0c5780635646cc2514611e9d5780635c975abb14611e6d57806361d663f3146118d95780636ba9b9c014611888578063712a735014611779578063715018a61461172157806373b96f30146116f557806374c13fda146116cc578063773f323d146116925780637e6363f714611641578063871b6236146112045780638a51b1ee146111de5780638da5cb5b146111a85780638ff32b501461118a5780639262198e1461115d578063941ba2ec14610f0a57806397ea003014610eed5780639df997e314610eb3578063a4063dbc14610e5f578063aa67609514610b4c578063ab622d9a14610ac1578063bee7dd0b14610a81578063cddbb14014610a47578063d5a2a1f5146108d7578063d616907a146108b9578063d6e5d35d1461083a578063d75b6a7d1461081e578063d79e8fd2146107ff578063d8aed145146105db578063dcf844a7146105a1578063e1ec3c681461044f578063e65149dd14610415578063eba10229146103f8578063ece583dd146103be578063ef7f0ab61461039c578063f2fde38b146103715763fe35b4340361000e573461036c57602036600319011261036c576001600160a01b03610353612e63565b16600052603d6020526020604060002054604051908152f35b600080fd5b3461036c57602036600319011261036c5761039a61038d612e63565b610395614381565b613368565b005b3461036c57600036600319011261036c57602061ffff603e5416604051908152f35b3461036c57602036600319011261036c576001600160a01b036103df612e63565b16600052603b6020526020604060002054604051908152f35b3461036c57600036600319011261036c5760206040516113888152f35b3461036c57602036600319011261036c576001600160a01b03610436612e63565b16600052604a6020526020604060002054604051908152f35b3461036c57602036600319011261036c576004356000526033602052604060002080549080600181015460028201546003830154600484015460058501546006860154600160a01b6001900360078801541690600888015492600989015494600a8a015496600b8b015498600c8c01549a600d8d01549c600e01549d600f01549e60405160805260805152600160a01b600190038116608051602001528060a01c60ff166006111561058b578060ff61ffff9260a01c166040608051015260a81c166060608051015260808051015260a0608051015260c0608051015260e06080510152610100608051015261012060805101526101406080510152610160608051015261018060805101526101a060805101526101c060805101526101e0608051015261020060805101526102206080510152610240608051f35b634e487b7160e01b600052602160045260246000fd5b3461036c57602036600319011261036c576001600160a01b036105c2612e63565b16600052603a6020526020604060002054604051908152f35b3461036c576105e936612e8f565b906002600054146100f55760026000908155818152603360205260409020600101546001600160a01b0392908316156107e65781600052603360205260406000209260ff600185015460a01c16916006831015928361058b576002811415806107d7575b6107b557811561078d5760078601938385541680158015610775575b61075d5750600a87015415610738575050906106f76106bd7f14db53dfb67c9464ac206eeb3210b3bcaf99ca59ae28e6c3b1c7596b6505fe6d94936106ad87613b10565b6106b78888613ba7565b87613c00565b906106d28386889b959b5416309033906139a3565b80610728575b50600982016106e8898254612efb565b905580610718575b5085613d7c565b9154169061070e6040519283923397439285612fc1565b0390a36001600055005b6107229082613d1d565b876106f0565b6107329083613c79565b886106d8565b61058b576040516304b23fc560e11b81529081906107599060048301612fad565b0390fd5b60249060405190630f4c971b60e21b82526004820152fd5b50806000526037602052846040600020541615610669565b6040516346f4384b60e01b815260048101839052600160248201526000196044820152606490fd5b8361058b576040516304b23fc560e11b81529081906107599060048301612fad565b5060009350600381141561064d565b604051634035962f60e11b815260048101839052602490fd5b3461036c57600036600319011261036c5760206040516302625a008152f35b3461036c57600036600319011261036c57602060405160018152f35b3461036c57604036600319011261036c5760a0610855612e63565b61085d612e79565b600180841b03809216600052603860205281604060002091166000526020526040600020818154169160018201541690600281015460046003830154920154926040519485526020850152604084015260608301526080820152f35b3461036c57600036600319011261036c576020604154604051908152f35b3461036c5760208060031936011261036c576108f1612e63565b906108fa6133ca565b6001600160a01b03821690338214610a35578115610a1c578160005260558152604060002033600052815260406000209260018401805460ff8160a01c16610a005785546001600160a01b031916339081179096556001600160a81b0319168417600160a01b17905560008481526051808452604080832054605286528184208785528652818420559582528352939093209192909161099a9190613345565b816000526053815260406000205460548252604060002033600052825260406000205581600052605381526109d3336040600020613345565b7f974c9dbb0f548c136611cd68d83cbff8b14e5bf33aaf3cdb6256893fb0c2adb1604051914383523392a3005b604051634e88b0c360e01b815280610759853360048401612f93565b604051634726455360e11b815260048101839052602490fd5b60405163c15fbc0d60e01b8152600490fd5b3461036c57602036600319011261036c576001600160a01b03610a68612e63565b16600052604d6020526020604060002054604051908152f35b3461036c57604036600319011261036c57610abd610aae610aa0612e63565b610aa8612e79565b906131c0565b60409391935193849384612ea5565b0390f35b3461036c57602036600319011261036c57610ada612e63565b610ae2614381565b6001600160a01b03818116918215908115610b42575b50610a1c57605080546001600160a01b0319811684179091556040514381529116907f34e83f675edad11276417130c6ce2cff018d965172ca9650368997de3e30962590602090a3005b90503b1583610af8565b3461036c5760208060031936011261036c57600435610b69614381565b60008181526033835260409020600101546001600160a01b03908116156107e6578160005260338352604060002090600182019182549060ff8260a01c16600681101561058b5760018103610e3b575060060154604354610bc991612efb565b80431115610e1c575060ff60a01b1916600160a21b17825560016000908152603585526040808220603687529120815493918415610e035785600052818752604060002054858110801590610de9575b610dd05760001995808701908111610d1f57808203610d85575b505080548015610d6f57850190610c5e610c4d8383612ff1565b8154906000199060031b1b19169055565b55846000528552600060408120556004600052603585526040600020603686526040600020908560005281875260406000205486825482109182610d54575b5050610d3557610cad868261301f565b5490848201918211610d1f57856000528652604060002055818154166000526048855260406000209283549081610cfe575b50506000805160206149058339815191529250541692604051438152a3005b8101908111610d1f5760008051602061490583398151915293558580610cdf565b634e487b7160e01b600052601160045260246000fd5b604051633392670960e11b815260048082018890526024820152604490fd5b610d6091925083612ff1565b90549060031b1c148689610c9d565b634e487b7160e01b600052603160045260246000fd5b610d8f9083612ff1565b90549060031b1c610dbd81610da48486612ff1565b90919082549060031b91821b91600019901b1916179055565b6000528288526040600020558780610c33565b604051634035962f60e11b815260048101889052602490fd5b5086610df58284612ff1565b90549060031b1c1415610c19565b604051634035962f60e11b815260048101879052602490fd5b604051635eeafa7560e01b815290819061075990438860048501612ea5565b6040516304b23fc560e11b815260ff91909116600482015260016024820152604490fd5b3461036c57602036600319011261036c5760606001600160a01b0380610e83612e63565b16600052603760205260406000209081541690600260018201549101549060405192835260208301526040820152f35b3461036c57602036600319011261036c576001600160a01b03610ed4612e63565b1660005260496020526020604060002054604051908152f35b3461036c57600036600319011261036c5760206040516103848152f35b3461036c5760208060031936011261036c57610f24612e63565b6001600160a01b03808216600081815260558552604080822033835286529020600101549093929060a01c60ff161561113f575082600052604682526040600020546111265782600052604782526040600020546111265733600052605182526040600020906052835260406000208460005283526040600020549180549060001993848301928311610d1f578383610fc69483036110e5575b50505061457c565b336000526052835260406000208460005283526000604081205560538352604060002090605484526040600020336000528452604060002054908254938401938411610d1f578361101f9483036110865750505061457c565b816000526054815260406000203360005281526000604081205581600052605581526040600020336000528152600060016040822082815501557f7d4b551b194be2e932d762365a46f2e3a8152501cd85dc553140b9ed313565ce604051914383523392a3005b6110909084612ff1565b90549060031b1c166110c4816110a68486612ff1565b90919060018060a01b038084549260031b9316831b921b1916179055565b85600052605485526040600020906000528452604060002055848080610fbe565b6110ef9084612ff1565b90549060031b1c16611105816110a68486612ff1565b33600052605287526040600020906000528652604060002055868381610fbe565b60405163551b191160e01b815260048101849052602490fd5b604051630e8a799560e21b8152908190610759903360048401612f93565b3461036c57602036600319011261036c57602061118061117b612e63565b6143ba565b6040519015158152f35b3461036c57600036600319011261036c576020604354604051908152f35b3461036c57600036600319011261036c576000805160206148c5833981519152546040516001600160a01b039091168152602090f35b3461036c57602036600319011261036c5760206111fc600435613044565b604051908152f35b3461036c5760c036600319011261036c5761121d612e63565b602490604435908235906001600160a01b039081841680850361036c576084359360a435848116916064359183810361036c576000805160206149858339815191529788549660ff8860401c16159660018060401b0389169889158061163a575b6001809b149081611630575b159081611627575b50611615576001600160401b031981168a178c55886115fa575b5080156115e357508816998a156115cb578315928380156115bf575b6115a7578515801561159f575b6115825782861015611582578615908115611578575b5061156057611304906112fc614725565b610395614725565b61130c614725565b611314614725565b61131c614725565b8660005560018060a01b0319938a856044541617604455836040556040519863313ce56760e01b8a52898c81600460209d8e935afa60009181611527575b5061137757604051630f4c971b60e21b8152600481018e90528e90fd5b918d9594939160ff8e94166006811090811561151c575b506115045760028c604051926113a384612f3a565b86845281840190600082526037604086019360008552896000525260406000209451168b855416178455518d84015551910155603c8b52604060002055603d8a5260406000205560498952670de0b6b3a764000060406000205560046040519161140c83612f55565b6104b083528a808401611f40815260408501906102588252604f6060870193610fa0855260808801956109c4875260005252604060002095518655518c8601555160028501555160038401555191015560c861ffff19603e541617603e556114ef578062015180049182156114d957508160415580624f1a000460425562278d0004604355603f5560505416176050556114a257005b825460ff60401b19169092556040519182527fc7f505b2f371ae2175ee4913f4499e1f2633a7b5936321eed1cdaeb6115181d291a1005b90604051906307366d8d60e11b82526004820152fd5b50634e487b7160e01b60009081526012600452fd5b604051630f4c971b60e21b8152600481018590528790fd5b60129150118e61138e565b9091508b81813d8311611559575b61153f8183612f70565b8101031261036c575160ff8116810361036c57908f61135a565b503d611535565b604051634726455360e11b8152600481018790528c90fd5b90503b158d6112eb565b604486848f60405192630c20bbfb60e01b84526004840152820152fd5b5082156112d5565b6040516307366d8d60e11b8152600481018690528d90fd5b506201518085116112c8565b6040516349cc54b160e01b8152600060048201528c90fd5b8c906040519063b20f76e360e01b82526004820152fd5b6001600160481b0319166001600160401b01178b558d6112ac565b60405163f92ee8a960e01b8152600490fd5b9050158f611292565b303b15915061128a565b508861127e565b3461036c57604036600319011261036c5761165a612e63565b611662612e79565b9060018060a01b03809116600052604c602052604060002091166000526020526020604060002054604051908152f35b3461036c57602036600319011261036c576001600160a01b036116b3612e63565b1660005260476020526020604060002054604051908152f35b3461036c57600036600319011261036c576044546040516001600160a01b039091168152602090f35b3461036c57602036600319011261036c5760043560005260456020526020604060002054604051908152f35b3461036c57600036600319011261036c5761173a614381565b6000805160206148c583398151915280546001600160a01b031981169091556000906001600160a01b03166000805160206149458339815191528280a3005b3461036c57602036600319011261036c576004356000818152603360205260409020600101546001600160a01b03161561187057806000526033602052604060002060ff600182015460a01c16600681101561058b576002810361184757600a8201549081158015611864575b6118475750600b8201549081156118315750905b81431061180a5761039a92614083565b60405163206f4e1160e21b8152436004820152602481018390526000196044820152606490fd5b6118419150600383015490612efb565b906117fa565b6040516304b23fc560e11b81529081906107599060048301612fad565b506003830154156117e6565b60249060405190634035962f60e11b82526004820152fd5b3461036c57604036600319011261036c576118a1612e63565b6118a9612e79565b9060018060a01b03809116600052604b602052604060002091166000526020526020604060002054604051908152f35b3461036c57608036600319011261036c5761ffff600435818116810361036c57611901612e79565b9061190a6133ca565b82603e541680848316108015611e60575b611e4057506001600160a01b038216158015611e1e575b611dfd5760018060a01b038216600052603c602052604060002054603d6020526040600020549080158015611df5575b611dd85780604435108015611dcd575b611dae57505060415480606435108015611da1575b611d7e5750611995336143ba565b611d665733600052604860205260016040600020541015611d4e57336000526046602052604060002054611d375733600052603960205260406000205480611d05575b50603254916000198314610d1f5760018301603255604051906119fa82612f08565b600184018252336020830152600060408301528483166060830152604435608083015260643560a08301524660c08301524360e0830152600061010083015260018060a01b031661012082015260006101408201526000610160820152600061018082015260006101a082015260006101c082015260006101e0820152600061020082015260006102208201526001830160005260336020526040600020908051825560018060a01b03602082015116600183015491604081015192600684101561058b57600f936102209361ffff60a81b606085015160a81b169260018060b81b031916179060ff60a01b9060a01b16171760018501556080810151600285015560a0810151600385015560c0810151600485015560e0810151600585015561010081015160068501556007840160018060a01b036101208301511660018060a01b031982541617905561014081015160088501556101608101516009850155610180810151600a8501556101a0810151600b8501556101c0810151600c8501556101e0810151600d850155610200810151600e8501550151910155336000526034602052611bb160018301604060002061301f565b6001820160009081527f4cb2b152c1b54ce671907a93c300fd5aa72383a9d4ec19a81e3333632ae92e0060208190526040909120547f842397100357c7bc9e13c9e286c8970fd4253dcc8e63c78c74e0f9bb8b96fef4805490919081109081611ce8575b50611cc657611c27600185018261301f565b54600019810191908211610d1f5760018401600052602052604060002055336000526048602052604060002092835460018101809111610d1f57602094553360005260398452436040600020556040519116815260443583820152606435604082015243606082015233907ffbfd93420bf0e27d0da646a83d21cf86e47e36ddf95c2fc700b4426c93679a4160806001850192a3600160405191018152f35b604051633392670960e11b815260018501600482015260006024820152604490fd5b611cf3915082612ff1565b6001860191549060031b1c1486611c15565b603f54611d1191612efb565b804310156119d85760449060405190630dac64f960e01b82523360048301526024820152fd5b604051626a7c0560e51b8152336004820152602490fd5b60405163352637d960e11b8152336004820152602490fd5b604051630317fcd160e51b8152336004820152602490fd5b60425460405163206f4e1160e21b81529182916107599160643560048501612ea5565b5060425460643511611987565b6107596040519283926346f4384b60e01b845260443560048501612ea5565b508160443511611972565b60449160405191630c20bbfb60e01b835260048301526024820152fd5b508115611962565b604051630f4c971b60e21b81526001600160a01b0383166004820152602490fd5b506001600160a01b038281166000908152603760205260409020541615611932565b604051636264a2a560e11b81529184166004830152602482015260449150fd5b506103e88483161161191b565b3461036c57600036600319011261036c57602060ff60008051602061496583398151915254166040519015158152f35b3461036c57604036600319011261036c576060611eb8612e63565b611ec0612e79565b60018060a01b038092166000526055602052816040600020911660005260205260ff604060002091600181845416930154906040519384528116602084015260a01c1615156040820152f35b3461036c57611f1a36612e8f565b6002600054146100f5576002600055816000526020916033835260018060a01b03928360016040600020015416156107e6578160005260338152604060002092600184015460ff8160a01c1660068110158061058b5760028214158061213d575b6107385750508516948560005260558352604060002033600052835260ff60016040600020015460a01c16156121215781156120f957600785015416604051636eb1769f60e11b8152838180611fd5303360048401612f93565b0381855afa9081156120ed576000916120c0575b508281106120a25750816120076120499361202093309033906139a3565b61201085613b10565b61201a8686613ba7565b85613c00565b9080969296612092575b506009820161203a878254612efb565b905580612082575b5083613d7c565b5060405192835243908301527fe74441bfc557ebe777d956a44fe581c7e99a54358022cd280963e96f752335e860403393a46001600055005b61208c9082613d1d565b86612042565b61209c9083613c79565b8761202a565b826044916040519163054365bb60e31b835260048301526024820152fd5b90508381813d83116120e6575b6120d78183612f70565b8101031261036c575187611fe9565b503d6120cd565b6040513d6000823e3d90fd5b6040516346f4384b60e01b815260006004820152600160248201526000196044820152606490fd5b60405163a996343960e01b815280610759883360048401612f93565b505060006003821415611f7b565b3461036c57600036600319011261036c576050546040516001600160a01b039091168152602090f35b3461036c57604036600319011261036c5761218d612e63565b6024356121986133ca565b6002600054146100f55760026000556001600160a01b0382811692908315801561238e575b61237557821561234d57604051636eb1769f60e11b8152602092908381806121e9303360048401612f93565b0381895afa9081156120ed57600091612320575b5084811061230257508061221185926133f5565b61221b81336134b0565b336000526038845260406000208660005284526040600020928354908116156122b2575b50600261227a9301612252838254612efb565b90558560005260378452600160406000200161226f838254612efb565b9055309033906139a3565b60405191825243908201527f44504979f82d498dad8a0687fc02e140be70b1b4ab3b9e23c6ffc1d04410194a60403392a36001600055005b6001600160a01b03199081163317845560018481018054909216881790915543600385018190556004850155603b8552604060002080549182019350908310610d1f57919091558390600261223f565b846044916040519163054365bb60e31b835260048301526024820152fd5b90508381813d8311612346575b6123378183612f70565b8101031261036c5751866121fd565b503d61232d565b6040516346f4384b60e01b815260048101849052600160248201526000196044820152606490fd5b604051630f4c971b60e21b815260048101859052602490fd5b508360005260376020528060406000205416156121bd565b3461036c57600036600319011261036c576020603254604051908152f35b3461036c57602036600319011261036c576001600160a01b036123e5612e63565b1660005260486020526020604060002054604051908152f35b3461036c57602036600319011261036c576001600160a01b0361241f612e63565b16600052603c6020526020604060002054604051908152f35b3461036c57602036600319011261036c576001600160a01b03612459612e63565b1660005260396020526020604060002054604051908152f35b3461036c57602036600319011261036c576001600160a01b03612493612e63565b16600052604e6020526020604060002054604051908152f35b3461036c57600036600319011261036c576020604054604051908152f35b3461036c576124d836612e8f565b906124e16133ca565b6002600054146100f55760026000908155818152603360205260409020600101546001600160a01b031615611870576000818152603360205260409020600101546001600160a01b0316338190036129fe5750806000526033602052604060002060ff600182015460a01c16600681101561058b5760018103610e3b5750821561234d57600681015461257660435482612efb565b8043116129e0575050336000526046602052604060002054611d375760078101546001600160a01b0316801580156129c1575b61075d576125b683613044565b80851161299c57508060005260376020526040600020916002830154600184015480821161297c57906125e891612ebb565b80861161295e575060038101546302625a0080821161293957505061260c826137ff565b9284600052604560205285604060002055600160a11b60ff60a01b196001840154161760018301558560088301556000600983015543600a830155612655600383015443612efb565b600b8301556000600c8301819055600d8301819055600e830185905543600f8401556001905260366020527f8e3caac72b6c5bb0462da38c8c8c3b5fbc00a646bd75367c23c11d594c4e36c980547fc082cfcdc2bfeeffb970c9772df3384f481b69fbc495624ec92a9254cc4b32f09190801561292057876000528260205260406000205490808210801590612906575b6128ed576000198101908111610d1f578082036128ba575b505080548015610d6f57600019019061271a610c4d8383612ff1565b556000868152602091825260408082208290556000805160206148e583398151915292839052902054600080516020614925833981519152805490919081109088908261289f575b505061287f57612772878261301f565b54600019810191908211610d1f57600087815260209182526040808220939093556001850180546001600160a01b039081168352604684528483208a905590541681526048909152208054908161286b575b505060026127d58782840154612efb565b91015581600052604d602052604060002080549060018201809211610d1f5761284861285893600361283f7ffaf3c82b21530880e3e8d2616dc465f196567de6cd001c0b5f54cbc313d432049864496cebb8009661285196556128398c338b6135c4565b8b612ec8565b91015490612ec8565b60405490612ec8565b0485612efb565b61070e6040519283923397439285612fc1565b6000198201918211610d1f575586806127c4565b604051633392670960e11b81526004810188905260026024820152604490fd5b6128ab91925083612ff1565b90549060031b1c14878a612762565b6128c49083612ff1565b90549060031b1c6128d981610da48486612ff1565b6000528260205260406000205588806126fe565b604051634035962f60e11b8152600481018a9052602490fd5b50886129128385612ff1565b90549060031b1c14156126e6565b604051634035962f60e11b815260048101899052602490fd5b606492506040519163206f4e1160e21b83526004830152600160248301526044820152fd5b856044916040519163a17e11d560e01b835260048301526024820152fd5b60405163a17e11d560e01b81526004810188905260006024820152604490fd5b84606491604051916346f4384b60e01b83526004830152600160248301526044820152fd5b506000818152603760205260409020546001600160a01b0316156125a9565b60405163a546a76b60e01b8152918291610759918660048501612ea5565b604051635a18bb9d60e01b8152908190610759903360048401612f93565b3461036c57600036600319011261036c576020603f54604051908152f35b3461036c57600036600319011261036c576020604254604051908152f35b3461036c57604036600319011261036c57612a71612e63565b6024803590612a7e6133ca565b600280600054146100f55760008190556001600160a01b038481169490919085158015612e4b575b612e33578415612e0c57612ab9816133f5565b612ac381336134b0565b33600052602091603883526040600020876000528352604060002093845416158015612e01575b612ddb57808401805494858811612db757886000526037855260406000206001848201549101908154808211612d985790612b2491612ebb565b808a11612d7b575033600052604c865260406000208a600052865260406000205491878a14600014612d5e57612b5b8a8499612ebb565b8455600443910155612b6e898254612ebb565b90558580612d35575b50505415612c9e575b50612b8b8386612efb565b936040516370a0823160e01b8152306004820152838183818b5afa9081156120ed57600091612c71575b50858110612c5457612bc78682612ebb565b9088600052603a8552604060002054809210612c2d5750505083612bec9133906135c4565b60405193845283015260408201524360608201527fcd0bdcd833f6e50284f71ddc74536c5123d2befda8a0c276e9e745f598d1d02b60803392a36001600055005b91612c3b8792604494612ebb565b906040519263531309fb60e11b84526004840152820152fd5b60405163531309fb60e11b81526004810187905291820152604490fd5b90508381813d8311612c97575b612c888183612f70565b8101031261036c575188612bb5565b503d612c7e565b600460009133835260388552604083208984528552826040812091818355816001840155820155826003820155015533600052604b825260406000208660005282526000604081205533600052604c8252604060002086600052825260006040812055603b825260406000208054906000198201918211612d20575586612b80565b85634e487b7160e01b60005260116004526000fd5b612d3e91612ebb565b33600052604c855260406000208960005285526040600020558885612b77565b612b5b8a612d758a612d708388612ec8565b612edb565b99612ebb565b896044918a6040519263a17e11d560e01b84526004840152820152fd5b60405163a17e11d560e01b8152600481018c90526000818c0152604490fd5b6064888760018a604051936346f4384b60e01b855260048501528301526044820152fd5b6040516346f4384b60e01b81526004810187905260018187015260006044820152606490fd5b508084015415612aea565b6040516346f4384b60e01b8152600481018690526001818601526000196044820152606490fd5b604051630f4c971b60e21b8152600481018790528490fd5b50856000526037602052826040600020541615612aa6565b600435906001600160a01b038216820361036c57565b602435906001600160a01b038216820361036c57565b604090600319011261036c576004359060243590565b6040919493926060820195825260208201520152565b91908203918211610d1f57565b81810292918115918404141715610d1f57565b8115612ee5570490565b634e487b7160e01b600052601260045260246000fd5b91908201809211610d1f57565b61024081019081106001600160401b03821117612f2457604052565b634e487b7160e01b600052604160045260246000fd5b606081019081106001600160401b03821117612f2457604052565b60a081019081106001600160401b03821117612f2457604052565b601f909101601f19168101906001600160401b03821190821017612f2457604052565b6001600160a01b0391821681529116602082015260400190565b60ff90911681526002602082015260400190565b90949392606092608083019660018060a01b03168352602083015260408201520152565b600682101561058b5752565b80548210156130095760005260206000200190600090565b634e487b7160e01b600052603260045260246000fd5b80549190600160401b831015612f245782610da491600161304295018155612ff1565b565b6000818152603360205260409020600101546001600160a01b0316156118705761306d90613070565b90565b60009081526033602052604081209060405161308b81612f08565b82548152600183015490610220600f60018060a01b0395868516602085015261ffff60408501956130c260ff8260a01c1688612fe5565b60a81c16606085015260028101549660808501978852600382015460a0860152600482015460c0860152600582015460e0860152600682015461010086015260078201541661012085015260088101546101408501526009810154610160850152600a810154610180850152600b8101546101a0850152600c8101546101c0850152600d8101546101e0850152600e8101546102008501520154910152805160068110156131ac57600114159081613184575b5061317f57505190565b905090565b905051600681101561319857151538613175565b634e487b7160e01b82526021600452602482fd5b634e487b7160e01b83526021600452602483fd5b909160018060a01b03809216600093818552602094603886526040918583832091169081835287528282209583516131f781612f55565b8188541691828252600189015416898201526080600460028a0154998a8885015260038101546060850152015491015215801561333d575b613330578596818352604981528383205494604a8252848420546037835260018686200154908015801580613327575b6132cf575b505050918391836132a6969461306d989652604b825284842083855282528484205484968181116132ad575b50508352604c8152838320918352522054612efb565b8093612efb565b670de0b6b3a76400009297506132c69161283991612ebb565b04943880613290565b670de0b6b3a7640000989398808302928304141715613313576132a696949261330161306d9997959361330793612edb565b90612efb565b96819395929496613264565b634e487b7160e01b86526011600452602486fd5b5082151561325f565b5093505050915080918190565b50851561322f565b80549190600160401b831015612f2457826110a691600161304295018155612ff1565b6001600160a01b039081169081156133b1576000805160206148c583398151915280546001600160a01b03198116841790915516600080516020614945833981519152600080a3565b604051631e4fbdf760e01b815260006004820152602490fd5b60ff60008051602061496583398151915254166133e357565b60405163d93c066560e01b8152600490fd5b6001600160a01b03166000818152604a6020526040812054909181156134ab57603760205260016040842001549283156134a557670de0b6b3a7640000918284028481048403613491578561344991612edb565b948515613489576134859460409461346461346b9389612ec8565b0490612ebb565b908252604a60205282822055604960205220918254612efb565b9055565b505050505050565b634e487b7160e01b83526011600452602483fd5b50505050565b505050565b9060018060a01b038091166000908082526020604981526040938085852054961690818552603883528585208486528352858520908651906134f182612f55565b808354168252600183015416848201526002820154906080600489830194848652600381015460608501520154910152156135b257818552604b835285852084865283528585205480156135ab575b80881161355b575b50508352604b8152838320918352522055565b670de0b6b3a764000091613572613579928a612ebb565b9051612ec8565b0480613586575b80613548565b818552604c835285852084865283526135a3868620918254612efb565b905538613580565b5086613540565b508352604b8152838320918352522055565b9160018060a01b03809316906040908151936370a0823160e01b94858152600495308783015260209160249883828b818b5afa918215613728576000926137d0575b508651948386521691828986015283858b818b5afa948515613728576000956137a1575b50865163a9059cbb60e01b6000908152848b52878c528590604481808d5af1600160005114811615613781575b8189521561376d5750865192818452308a85015284848c818c5afa93841561376257600094613733575b5087519182528982015283818b818b5afa9384156137285790869392916000956136f1575b5050906136b291612ebb565b036136dd57906136c191612ebb565b036136cc5750505050565b51630391186360e61b815291820152fd5b5050505191630391186360e61b8352820152fd5b80929550819394503d8311613721575b61370b8183612f70565b8101031261036c5751918491906136b2386136a6565b503d613701565b87513d6000823e3d90fd5b9093508481813d831161375b575b61374b8183612f70565b8101031261036c57519238613681565b503d613741565b88513d6000823e3d90fd5b635274afe760e01b81528981018990528a90fd5b600181151661379757893b15153d151616613657565b503d6000823e3d90fd5b9094508381813d83116137c9575b6137b98183612f70565b8101031261036c5751933861362a565b503d6137af565b9091508381813d83116137f8575b6137e88183612f70565b8101031261036c57519038613606565b503d6137de565b6001600160a01b039081166000818152603760205260408082208151929490939061382984612f3a565b8454168352600184015482600260208601968388520154940193845215613998578452604f6020528084209080519461386186612f55565b825486526001830154936020870194855260028401549287019283526004600385015494606089019586520154608088015280519361271094858102908082048714901517156139845787516138b691612edb565b86519081811161393a575050505183810293818504149015171561392657506138fd926138ed6139049695936138f7935190612ec8565b9251905190612ec8565b90612edb565b9051612efb565b61038480821061391e575b5061138880821161317f575090565b90503861390f565b634e487b7160e01b81526011600452602490fd5b909194975061394c9250959495612ebb565b92518403938411613926575061397a92612d7061397f969593613970935190612ec8565b9251905190612efb565b612efb565b613904565b634e487b7160e01b84526011600452602484fd5b505050505061038490565b604080516370a0823160e01b8082526001600160a01b0395861660048301819052938616969295929490939192602092919083856024818c5afa94851561376257600095613ae1575b5083906000908951936323b872dd60e01b8352166004528360245287604452606481808c5af1600160005114811615613acb575b818852600060605215613ab55750855193845260048401528083602481895afa908115613aaa57600091613a7a575b50613a5a9250612ebb565b03613a63575050565b602492505190630391186360e61b82526004820152fd5b905082813d8311613aa3575b613a908183612f70565b8101031261036c57613a5a915138613a4f565b503d613a86565b85513d6000823e3d90fd5b635274afe760e01b815260048101889052602490fd5b600181151661379757883b15153d151616613a20565b9094508381813d8311613b09575b613af98183612f70565b8101031261036c575193836139ec565b503d613aef565b60005260336020526040600020600881015480158015613b9b575b8015613b8f575b613b8b57613b54600f830154600a840154600b850154906003860154926145a9565b80156134ab5764496cebb800613b80612848600d93613b7b61348596600e89015490612ec8565b612ec8565b049201918254612efb565b5050565b50600f82015415613b32565b50600e82015415613b2b565b9060ff600182015460a01c16600681101561058b57600203613b8b57600b8101548015613be657905b81431015613bdd57505050565b61304292614083565b50613bfa600a820154600383015490612efb565b90613bd0565b90613c1760089392600d8101549485910154612efb565b908115613c535781811115613c4b5750905b8192808311600014613c415761306d905b8093612ebb565b5061306d82613c3a565b905090613c29565b606490604051906346f4384b60e01b825260048201526001602482015260006044820152fd5b906007820160018060a01b03808254169081600052604f602052612710613ca860046040600020015486612ec8565b04613cb38186612ebb565b92600052603a6020526040600020613ccc828254612efb565b9055613cdd600c8701918254612efb565b9055613cee600d8601948554612ebb565b845581613d0a575b5050505415613d025750565b600f43910155565b613d15925416614664565b388080613cf6565b600881018054808411613d74575b83613d3591612ebb565b9055600701546001600160a01b03166000908152603760205260409020600201805490919080821115613d6a57505060009055565b9061348591612ebb565b925082613d2b565b919091613d8881614754565b92613d9860088201549485612efb565b93158061407b575b613da8575050565b60018101805460ff60a01b198116600560a01b178255909260a082901c60ff16600681101561058b576003811492838061405a575b61402d575b5060018060a01b03809554169260009384526020956046875260076040968688812087815414614025575b50500154169060028303613fee57508352604d855283832080549081613fc6575b50505b82526035845282822093603681528383208554958615613fae5783855281835285852054878110801590613f94575b613f7c5760001997808901908111613f6857808203613f39575b505080548015613f2557870190613e94610c4d8383612ff1565b558284528152828481205560058352603581528383209160368252848420928185528383528585205482825482109182613f0a575b5050613eeb57613ed9828261301f565b54958601958611613984578352522055565b8551633392670960e11b81526004810183905260056024820152604490fd5b613f1691925083612ff1565b90549060031b1c148238613ec9565b634e487b7160e01b86526031600452602486fd5b613f439083612ff1565b90549060031b1c613f5881610da48486612ff1565b8652828452868620553880613e7a565b634e487b7160e01b87526011600452602487fd5b8651634035962f60e11b815260048101869052602490fd5b5084613fa08284612ff1565b90549060031b1c1415613e60565b8551634035962f60e11b815260048101859052602490fd5b6000198201918211613fda57553880613e2e565b634e487b7160e01b85526011600452602485fd5b613ff9575b50613e31565b8352604e855283832080549081614011575b50613ff3565b6000198201918211613fda5755388061400b565b558638613e0d565b6001600160a01b031660009081526047602052604090208054600019810191908211610d1f575538613de2565b506001600160a01b0381166000908152604760205260409020541515613ddd565b508315613da0565b9291909260018401805460ff8160a01c16600681101561058b576002036143795760ff60a01b1916600360a01b178155600b850192835560026000908152603660209081526000805160206149258339815191528054929760409492939092916000805160206148e583398151915290821561436157878b52818652868b2054838110801590614347575b61432f576000199380850190811161431b578082036142ec575b5050805480156142d857830190614142610c4d8383612ff1565b55868a5284528885812055600389526035845284892060368552858a2090878b52818652868b2054888254821091826142bd575b505061429e57614186888261301f565b549082820191821161426e57878b528552858a205560018060a01b0392838354168a5260478552858a208054906001820180921161428a5791600791869355828554168c52604687528b8881208a815414614282575b505001541690818a52604d8552858a208054918261425c575b5050508852604e835283882080549060018201809211614248577f6617d0011afaf7c02c56e6060579439ff4a02171ec9beff38351336438be58eb969798995055541694549082519182524390820152a3565b634e487b7160e01b8a52601160045260248afd5b820191821161426e57553880806141f5565b634e487b7160e01b8b52601160045260248bfd5b558b386141dc565b634e487b7160e01b8c52601160045260248cfd5b8651633392670960e11b81526004810189905260036024820152604490fd5b6142c991925083612ff1565b90549060031b1c148838614176565b634e487b7160e01b8c52603160045260248cfd5b6142f69083612ff1565b90549060031b1c61430b81610da48486612ff1565b8c52828752878c20553880614128565b634e487b7160e01b8d52601160045260248dfd5b8751634035962f60e11b8152600481018a9052602490fd5b50886143538284612ff1565b90549060031b1c141561410e565b8651634035962f60e11b815260048101899052602490fd5b505050509050565b6000805160206148c5833981519152546001600160a01b031633036143a257565b60405163118cdaa760e01b8152336004820152602490fd5b6001600160a01b039081166000908152604760205260408120546145755760466020526040812054801561456f5781526033602052604081209160405161440081612f08565b835481526001840154828116602083015261ffff604083019161442960ff8260a01c1684612fe5565b60a81c1660608301526002850154608083015260038501549260a08301938452600486015460c0840152600586015460e0840152600686015461010084015260078601541661012083015260088501546101408301526009850154610160830152600a850154916101808101928352610220600f600b880154976101a08401988952600c8101546101c0850152600d8101546101e0850152600e81015461020085015201549101528051600681101561455b576003146145515751600681101561453d576002036145365751918215801561452d575b6145265750825115614515575050515b43101590565b61452192505190612efb565b61450f565b9250505090565b508151156144ff565b5050905090565b634e487b7160e01b84526021600452602484fd5b5050505050600190565b634e487b7160e01b85526021600452602485fd5b50905090565b5050600190565b80548015610d6f5760001901906145938282612ff1565b81549060018060a01b039060031b1b1916905555565b919392936145b78343612ebb565b94851561465a5781156146495750905b811515908161463f575b506145ec575b50506302625a008083116145e85750565b9150565b604054908115612ee5576146069163096601800490612efb565b90814311156145d757808211156146365761462091612ebb565b80831161462e575b806145d7565b915038614628565b50506000614620565b90501515386145d1565b614654915082612efb565b906145c7565b5060009450505050565b8115613b8b576001600160a01b031660008181526037602052604081206001015492909190831561470e57670de0b6b3a76400008082028281048203613fda57856146ae91612edb565b9485156146f3576134859492604094926134646146cb9389612ec8565b818352604a6020526146e1848420918254612efb565b90558152604960205220918254612efb565b50509250816040916134859352604a60205220918254612efb565b925050604061348591604a60205220918254612efb565b60ff6000805160206149858339815191525460401c161561474257565b604051631afcd79f60e31b8152600490fd5b600052603360205260406000206040519061476e82612f08565b8054825260018101546001600160a01b0380821660208501529061ffff906147a060a082901c60ff1660408701612fe5565b60a81c166060840152600282015460808401526003820154908160a0850152600483015460c0850152600583015460e085015260068301546101008501526007830154166101208401526008820154916101408401918383526009820154610160860152600a82015480610180870152600b83015490816101a0880152600c8401546101c0880152610220600d850154976101e0810197898952600e87015491600f610200820198848a5201549384910152159081156148bb575b5080156148b3575b6148a95761487494959697506145a9565b9182156148a25761284861306d9493613b7b64496cebb8009461489a9451905190612ec8565b049051612efb565b5050505190565b5050505050505090565b508015614863565b9050153861485b56fe9016d09d72d40fdae2fd8ceac6b6234c7706214fd39c1cd1e609a0528c19930049d58ea9a5daf69ab79ed6bff1f0de709220367fa3b259710db785f85d2077eb3874e5d0e16575040f47821745c058618d0943b6b1b9ea151420c34f98735708f45abd214a7998af36d567f4bc75c5d50e868cf767d965b54d3b0f5c6200ab648be0079c531659141344cd1fd0a4f28419497f9722a3daafe3b4186f6b6457e0cd5ed15c6e187e77e9aee88184c21f4f2182ab5827cb3b7e07fbedcd63f03300f0c57e16840df040f15088dc2f81fe391c3923bec73e23a9662efc9c229c6a00a264697066735822122049836e5f3dda0bf8edc6ee1a6145a2cf044af3a7c53445500b07b92b7191634764736f6c63430008180033",
  "devdoc": {
    "details": "This is the contract the UUPS proxy points to as its implementation.      It handles all user-facing state-changing operations (submit, borrow, repay,      deposit, withdraw) and all internal accounting helpers.      Admin functions and view functions live in UnllooExt. When a call arrives      whose selector does not match any function in Core, fallback() fires and      forwards the call to UnllooExt via delegatecall. Since delegatecall runs      Ext's bytecode in Core's storage context, all state reads/writes target the      proxy's storage — the caller observes a single contract at one address.      Storage layout MUST remain identical to UnllooExt. Both contracts inherit      only UnllooStorage, which enforces layout parity by construction.Production changes:      - Fixes critical repay accounting bug (no double-subtraction of repaid amounts)      - Adds fair lender yield distribution via supply index (interest paid only)      - Protocol fees are segregated; do not block LP principal withdrawals      - Interest continues accruing after due date      - Owner-only expiry for Approved requests      - Optional public \"mark overdue\" for correct status transitions      - Strict ERC20 transfers (reverts on fee-on-transfer style behavior)",
    "errors": {
      "EnforcedPause()": [
        {
          "details": "The operation failed because the contract is paused."
        }
      ],
      "ExpectedPause()": [
        {
          "details": "The operation failed because the contract is not paused."
        }
      ],
      "InvalidInitialization()": [
        {
          "details": "The contract is already initialized."
        }
      ],
      "NotInitializing()": [
        {
          "details": "The contract is not initializing."
        }
      ],
      "OwnableInvalidOwner(address)": [
        {
          "details": "The owner is not a valid owner account. (eg. `address(0)`)"
        }
      ],
      "OwnableUnauthorizedAccount(address)": [
        {
          "details": "The caller account is not authorized to perform an operation."
        }
      ],
      "SafeERC20FailedOperation(address)": [
        {
          "details": "An operation with an ERC-20 token failed."
        }
      ]
    },
    "events": {
      "ETHReceived(address,uint256,uint256)": {
        "details": "ETH is for operational purposes only (gas sponsorship, etc.)",
        "params": {
          "amount": "Amount of ETH received in wei",
          "blockNumber": "Block number when ETH was received",
          "sender": "Address that sent ETH (indexed)"
        }
      },
      "ExtensionUpdated(address,address,uint256)": {
        "details": "Emitted by setExtension(); used to track Ext upgrade history",
        "params": {
          "blockNumber": "Block number when the update occurred",
          "newExtension": "Address of the new UnllooExt contract (indexed)",
          "oldExtension": "Address of the previous UnllooExt contract (indexed)"
        }
      },
      "Initialized(uint64)": {
        "details": "Triggered when the contract has been initialized or reinitialized."
      },
      "LiquidityDeposited(address,address,uint256,uint256)": {
        "params": {
          "amount": "Amount deposited in token decimals",
          "blockNumber": "Block number when deposit occurred",
          "lender": "Address of the depositor (indexed)",
          "token": "ERC20 token being deposited (indexed)"
        }
      },
      "LiquidityWithdrawn(address,address,uint256,uint256,uint256,uint256)": {
        "params": {
          "blockNumber": "Block number when withdrawal occurred",
          "interestAmount": "Earned interest portion of withdrawal",
          "lender": "Address of the withdrawer (indexed)",
          "principalAmount": "Principal portion of withdrawal",
          "token": "ERC20 token being withdrawn (indexed)",
          "totalAmount": "Total amount withdrawn (principal + interest)"
        }
      },
      "LoanBorrowed(uint256,address,address,uint256,uint256,uint256)": {
        "details": "`initialOwed` equals `principal` at borrow time (no interest yet)",
        "params": {
          "borrower": "Address receiving the funds (indexed)",
          "initialOwed": "Initial amount owed (equals principal, no interest yet)",
          "loanId": "Loan identifier being borrowed (indexed)",
          "principal": "Amount of tokens borrowed",
          "startBlock": "Block number when borrowing occurred (interest starts)",
          "token": "ERC20 token address being borrowed"
        }
      },
      "LoanMovedToUnpaidDebt(uint256,address,uint256,uint256)": {
        "details": "Triggered when deadline passes with outstanding balance",
        "params": {
          "blockNumber": "Block number when status changed",
          "borrower": "Address of the delinquent borrower (indexed)",
          "deadlineBlock": "The original deadline block that was missed",
          "loanId": "Loan identifier moved to unpaid debt (indexed)"
        }
      },
      "LoanRepaid(uint256,address,address,uint256,uint256,uint256)": {
        "params": {
          "blockNumber": "Block number when repayment occurred",
          "loanId": "Loan identifier being repaid (indexed)",
          "payer": "Address that sent the repayment tokens (indexed) — may differ from borrower",
          "remainingBalance": "Outstanding balance after repayment (0 if fully repaid)",
          "repaymentAmount": "Amount repaid in this transaction",
          "token": "ERC20 token address being repaid"
        }
      },
      "LoanRequestRejected(uint256,address,uint256)": {
        "params": {
          "borrower": "Address of the borrower whose loan was rejected (indexed)",
          "loanId": "Loan identifier being rejected (indexed)",
          "rejectionBlock": "Block number when rejection occurred"
        }
      },
      "LoanRequestSubmitted(uint256,address,uint16,uint256,uint256,uint256)": {
        "params": {
          "blockNumber": "Block number when request was submitted",
          "borrower": "Address of the borrower submitting the request (indexed)",
          "loanAmount": "Requested loan amount in token decimals",
          "loanDurationBlocks": "Requested loan duration in blocks",
          "loanId": "Unique identifier assigned to the loan (indexed for filtering)",
          "walletReputation": "Self-reported reputation score (0-1000)"
        }
      },
      "Paused(address)": {
        "details": "Emitted when the pause is triggered by `account`."
      },
      "Unpaused(address)": {
        "details": "Emitted when the pause is lifted by `account`."
      }
    },
    "kind": "dev",
    "methods": {
      "constructor": {
        "custom:oz-upgrades-unsafe-allow": "constructor"
      },
      "hasUnpaidDebt(address)": {
        "details": "Public wrapper around the inherited _hasUnpaidDebt internal function from      UnllooStorage. submitLoanRequest calls this directly. Ext's canSubmitRequest      calls _hasUnpaidDebt directly (no cross-boundary call needed).",
        "params": {
          "user": "Address to check"
        },
        "returns": {
          "_0": "True if user has a loan in UnpaidDebt status (or is virtually overdue)"
        }
      },
      "initialize(address,uint256,address,uint256,uint256,address)": {
        "details": "Gains a sixth parameter (_extensionDelegate) compared to Unlloo.sol.      All other parameters and validation logic are unchanged.",
        "params": {
          "_defaultMaxLoanAmount": "Maximum loan amount in token decimals",
          "_defaultMinLoanAmount": "Minimum loan amount in token decimals",
          "_defaultToken": "Default ERC20 token for the initial liquidity pool",
          "_extensionDelegate": "Address of the deployed UnllooExt contract",
          "blockTimeSecondsValue": "Block time in seconds for this chain (1-86400)",
          "initialOwner": "Owner address (admin)"
        }
      },
      "markLoanOverdue(uint256)": {
        "details": "This function syncs storage state with the virtual status projection from getLoan().      Anyone can call this to ensure storage reflects the actual overdue status.      **Why this exists:**      - getLoan() performs virtual status projection for UI convenience      - Storage may lag behind until this function is called      - State-changing functions (like repay()) automatically transition overdue loans      - This function allows explicit synchronization of storage with projection      **Effects:**      - Updates loan.status to UnpaidDebt in storage      - Updates status arrays and counters      - Emits LoanMovedToUnpaidDebt event      **Pause Behavior:**      - This function is intentionally NOT pausable to allow status maintenance during emergencies      - Status transitions don't move funds, only update accounting state",
        "params": {
          "loanId": "The ID of the overdue loan to mark"
        }
      },
      "owner()": {
        "details": "Returns the address of the current owner."
      },
      "paused()": {
        "details": "Returns true if the contract is paused, and false otherwise."
      },
      "payOnBehalf(uint256,uint256)": {
        "details": "Works like repay() but caller must be a registered guarantor for the loan's borrower.",
        "params": {
          "amount": "Amount to pay in token decimals",
          "loanId": "ID of the Active or UnpaidDebt loan to pay"
        }
      },
      "registerGuarantee(address)": {
        "details": "Simply records the relationship. The guarantor can later call payOnBehalf().",
        "params": {
          "borrower": "Address of the borrower being backed"
        }
      },
      "removeGuarantee(address)": {
        "params": {
          "borrower": "Address of the backed borrower"
        }
      },
      "renounceOwnership()": {
        "details": "Leaves the contract without owner. It will not be possible to call `onlyOwner` functions. Can only be called by the current owner. NOTE: Renouncing ownership will leave the contract without an owner, thereby disabling any functionality that is only available to the owner."
      },
      "repay(uint256,uint256)": {
        "details": "**Pause Behavior:** This function is intentionally NOT pausable to allow borrowers      to repay debts during emergencies. Preventing repayments during pause could unfairly      penalize borrowers with accruing interest while they cannot act."
      },
      "setExtension(address)": {
        "details": "Owner-only. Emits ExtensionUpdated. In production this should be      protected by a timelock to limit owner privilege on Ext swaps.",
        "params": {
          "newExtension": "Address of the new UnllooExt deployment"
        }
      },
      "transferOwnership(address)": {
        "details": "Transfers ownership of the contract to a new account (`newOwner`). Can only be called by the current owner."
      }
    },
    "title": "UnllooCore",
    "version": 1
  },
  "userdoc": {
    "events": {
      "ETHReceived(address,uint256,uint256)": {
        "notice": "Emitted when ETH is received by the contract"
      },
      "ExtensionUpdated(address,address,uint256)": {
        "notice": "Emitted when the extension delegate contract is updated"
      },
      "LiquidityDeposited(address,address,uint256,uint256)": {
        "notice": "Emitted when a lender deposits liquidity into a pool"
      },
      "LiquidityWithdrawn(address,address,uint256,uint256,uint256,uint256)": {
        "notice": "Emitted when a lender withdraws liquidity from a pool"
      },
      "LoanBorrowed(uint256,address,address,uint256,uint256,uint256)": {
        "notice": "Emitted when an approved loan is executed (funds disbursed)"
      },
      "LoanMovedToUnpaidDebt(uint256,address,uint256,uint256)": {
        "notice": "Emitted when a loan transitions to UnpaidDebt status"
      },
      "LoanRepaid(uint256,address,address,uint256,uint256,uint256)": {
        "notice": "Emitted on each loan repayment (partial or full)"
      },
      "LoanRequestRejected(uint256,address,uint256)": {
        "notice": "Emitted when an admin rejects a pending loan request"
      },
      "LoanRequestSubmitted(uint256,address,uint16,uint256,uint256,uint256)": {
        "notice": "Emitted when a borrower submits a new loan request"
      }
    },
    "kind": "user",
    "methods": {
      "borrow(uint256,uint256)": {
        "notice": "Execute borrowing on an approved loan"
      },
      "depositLiquidity(address,uint256)": {
        "notice": "Deposit liquidity into a token pool to earn yield"
      },
      "expireApprovedLoan(uint256)": {
        "notice": "Owner-only expiry for Approved requests (prevents permanent openRequestCount lock)"
      },
      "extensionDelegate()": {
        "notice": "Address of the currently active UnllooExt contract.         Core's fallback delegates all unrecognized calls to this address."
      },
      "getApprovedLoanAmount(uint256)": {
        "notice": "Get the maximum approved amount for a loan"
      },
      "getLenderPosition(address,address)": {
        "notice": "Get lender position with calculated interest"
      },
      "hasUnpaidDebt(address)": {
        "notice": "Check if a user has any unpaid debt."
      },
      "initialize(address,uint256,address,uint256,uint256,address)": {
        "notice": "Initialize the protocol."
      },
      "markLoanOverdue(uint256)": {
        "notice": "Mark an overdue Active loan as UnpaidDebt in storage"
      },
      "openRequestCount(address)": {
        "notice": "Number of open requests (Pending or Approved) per borrower"
      },
      "payOnBehalf(uint256,uint256)": {
        "notice": "Guarantor pays on behalf of a borrower. Tokens are pulled from the guarantor's wallet."
      },
      "registerGuarantee(address)": {
        "notice": "Register as a guarantor for a borrower. No collateral required."
      },
      "removeGuarantee(address)": {
        "notice": "Remove guarantee. Reverts if borrower has an active or unpaid loan."
      },
      "repay(uint256,uint256)": {
        "notice": "Make a repayment on an active loan"
      },
      "setExtension(address)": {
        "notice": "Update the address of the UnllooExt contract."
      },
      "submitLoanRequest(uint16,address,uint256,uint256)": {
        "notice": "Submit a new loan request to the protocol"
      },
      "unpaidDebtLoanCount(address)": {
        "notice": "Number of loans in UnpaidDebt status per borrower"
      },
      "withdrawLiquidity(address,uint256)": {
        "notice": "Withdraw liquidity (principal + earned interest) from a pool"
      }
    },
    "notice": "Hot-path implementation contract for the Unlloo lending protocol.",
    "version": 1
  },
  "storageLayout": {
    "storage": [
      {
        "astId": 8681,
        "contract": "contracts/UnllooCore.sol:UnllooCore",
        "label": "_status",
        "offset": 0,
        "slot": "0",
        "type": "t_uint256"
      },
      {
        "astId": 8725,
        "contract": "contracts/UnllooCore.sol:UnllooCore",
        "label": "__gap",
        "offset": 0,
        "slot": "1",
        "type": "t_array(t_uint256)49_storage"
      },
      {
        "astId": 7546,
        "contract": "contracts/UnllooCore.sol:UnllooCore",
        "label": "loanCounter",
        "offset": 0,
        "slot": "50",
        "type": "t_uint256"
      },
      {
        "astId": 7551,
        "contract": "contracts/UnllooCore.sol:UnllooCore",
        "label": "loans",
        "offset": 0,
        "slot": "51",
        "type": "t_mapping(t_uint256,t_struct(Loan)1401_storage)"
      },
      {
        "astId": 7556,
        "contract": "contracts/UnllooCore.sol:UnllooCore",
        "label": "_borrowerLoans",
        "offset": 0,
        "slot": "52",
        "type": "t_mapping(t_address,t_array(t_uint256)dyn_storage)"
      },
      {
        "astId": 7562,
        "contract": "contracts/UnllooCore.sol:UnllooCore",
        "label": "_loansByStatus",
        "offset": 0,
        "slot": "53",
        "type": "t_mapping(t_enum(LoanStatus)1344,t_array(t_uint256)dyn_storage)"
      },
      {
        "astId": 7569,
        "contract": "contracts/UnllooCore.sol:UnllooCore",
        "label": "_loanStatusIndex",
        "offset": 0,
        "slot": "54",
        "type": "t_mapping(t_enum(LoanStatus)1344,t_mapping(t_uint256,t_uint256))"
      },
      {
        "astId": 7574,
        "contract": "contracts/UnllooCore.sol:UnllooCore",
        "label": "pools",
        "offset": 0,
        "slot": "55",
        "type": "t_mapping(t_address,t_struct(LiquidityPool)1412_storage)"
      },
      {
        "astId": 7581,
        "contract": "contracts/UnllooCore.sol:UnllooCore",
        "label": "lenderPositions",
        "offset": 0,
        "slot": "56",
        "type": "t_mapping(t_address,t_mapping(t_address,t_struct(LenderPosition)1429_storage))"
      },
      {
        "astId": 7585,
        "contract": "contracts/UnllooCore.sol:UnllooCore",
        "label": "lastRequestBlock",
        "offset": 0,
        "slot": "57",
        "type": "t_mapping(t_address,t_uint256)"
      },
      {
        "astId": 7589,
        "contract": "contracts/UnllooCore.sol:UnllooCore",
        "label": "protocolFees",
        "offset": 0,
        "slot": "58",
        "type": "t_mapping(t_address,t_uint256)"
      },
      {
        "astId": 7593,
        "contract": "contracts/UnllooCore.sol:UnllooCore",
        "label": "activeLenderCount",
        "offset": 0,
        "slot": "59",
        "type": "t_mapping(t_address,t_uint256)"
      },
      {
        "astId": 7597,
        "contract": "contracts/UnllooCore.sol:UnllooCore",
        "label": "minLoanAmountPerPool",
        "offset": 0,
        "slot": "60",
        "type": "t_mapping(t_address,t_uint256)"
      },
      {
        "astId": 7601,
        "contract": "contracts/UnllooCore.sol:UnllooCore",
        "label": "maxLoanAmountPerPool",
        "offset": 0,
        "slot": "61",
        "type": "t_mapping(t_address,t_uint256)"
      },
      {
        "astId": 7603,
        "contract": "contracts/UnllooCore.sol:UnllooCore",
        "label": "minReputation",
        "offset": 0,
        "slot": "62",
        "type": "t_uint16"
      },
      {
        "astId": 7605,
        "contract": "contracts/UnllooCore.sol:UnllooCore",
        "label": "cooldownBlocks",
        "offset": 0,
        "slot": "63",
        "type": "t_uint256"
      },
      {
        "astId": 7607,
        "contract": "contracts/UnllooCore.sol:UnllooCore",
        "label": "blockTimeSeconds",
        "offset": 0,
        "slot": "64",
        "type": "t_uint256"
      },
      {
        "astId": 7609,
        "contract": "contracts/UnllooCore.sol:UnllooCore",
        "label": "minLoanDurationBlocks",
        "offset": 0,
        "slot": "65",
        "type": "t_uint256"
      },
      {
        "astId": 7611,
        "contract": "contracts/UnllooCore.sol:UnllooCore",
        "label": "maxLoanDurationBlocks",
        "offset": 0,
        "slot": "66",
        "type": "t_uint256"
      },
      {
        "astId": 7613,
        "contract": "contracts/UnllooCore.sol:UnllooCore",
        "label": "approvedLoanExpiryBlocks",
        "offset": 0,
        "slot": "67",
        "type": "t_uint256"
      },
      {
        "astId": 7615,
        "contract": "contracts/UnllooCore.sol:UnllooCore",
        "label": "defaultToken",
        "offset": 0,
        "slot": "68",
        "type": "t_address"
      },
      {
        "astId": 7619,
        "contract": "contracts/UnllooCore.sol:UnllooCore",
        "label": "loanInitialPrincipal",
        "offset": 0,
        "slot": "69",
        "type": "t_mapping(t_uint256,t_uint256)"
      },
      {
        "astId": 7624,
        "contract": "contracts/UnllooCore.sol:UnllooCore",
        "label": "_activeLoanByBorrower",
        "offset": 0,
        "slot": "70",
        "type": "t_mapping(t_address,t_uint256)"
      },
      {
        "astId": 7629,
        "contract": "contracts/UnllooCore.sol:UnllooCore",
        "label": "unpaidDebtLoanCount",
        "offset": 0,
        "slot": "71",
        "type": "t_mapping(t_address,t_uint256)"
      },
      {
        "astId": 7634,
        "contract": "contracts/UnllooCore.sol:UnllooCore",
        "label": "openRequestCount",
        "offset": 0,
        "slot": "72",
        "type": "t_mapping(t_address,t_uint256)"
      },
      {
        "astId": 7638,
        "contract": "contracts/UnllooCore.sol:UnllooCore",
        "label": "poolSupplyIndex",
        "offset": 0,
        "slot": "73",
        "type": "t_mapping(t_address,t_uint256)"
      },
      {
        "astId": 7642,
        "contract": "contracts/UnllooCore.sol:UnllooCore",
        "label": "poolUndistributedInterest",
        "offset": 0,
        "slot": "74",
        "type": "t_mapping(t_address,t_uint256)"
      },
      {
        "astId": 7648,
        "contract": "contracts/UnllooCore.sol:UnllooCore",
        "label": "lenderSupplyIndex",
        "offset": 0,
        "slot": "75",
        "type": "t_mapping(t_address,t_mapping(t_address,t_uint256))"
      },
      {
        "astId": 7654,
        "contract": "contracts/UnllooCore.sol:UnllooCore",
        "label": "lenderAccruedInterest",
        "offset": 0,
        "slot": "76",
        "type": "t_mapping(t_address,t_mapping(t_address,t_uint256))"
      },
      {
        "astId": 7658,
        "contract": "contracts/UnllooCore.sol:UnllooCore",
        "label": "activeLoansPerPool",
        "offset": 0,
        "slot": "77",
        "type": "t_mapping(t_address,t_uint256)"
      },
      {
        "astId": 7662,
        "contract": "contracts/UnllooCore.sol:UnllooCore",
        "label": "unpaidDebtLoansPerPool",
        "offset": 0,
        "slot": "78",
        "type": "t_mapping(t_address,t_uint256)"
      },
      {
        "astId": 7667,
        "contract": "contracts/UnllooCore.sol:UnllooCore",
        "label": "_poolRateCurve",
        "offset": 0,
        "slot": "79",
        "type": "t_mapping(t_address,t_struct(RateCurveParams)1446_storage)"
      },
      {
        "astId": 7670,
        "contract": "contracts/UnllooCore.sol:UnllooCore",
        "label": "extensionDelegate",
        "offset": 0,
        "slot": "80",
        "type": "t_address"
      },
      {
        "astId": 7676,
        "contract": "contracts/UnllooCore.sol:UnllooCore",
        "label": "_guaranteesByGuarantor",
        "offset": 0,
        "slot": "81",
        "type": "t_mapping(t_address,t_array(t_address)dyn_storage)"
      },
      {
        "astId": 7683,
        "contract": "contracts/UnllooCore.sol:UnllooCore",
        "label": "_guaranteeIndex",
        "offset": 0,
        "slot": "82",
        "type": "t_mapping(t_address,t_mapping(t_address,t_uint256))"
      },
      {
        "astId": 7689,
        "contract": "contracts/UnllooCore.sol:UnllooCore",
        "label": "_guarantorsForBorrower",
        "offset": 0,
        "slot": "83",
        "type": "t_mapping(t_address,t_array(t_address)dyn_storage)"
      },
      {
        "astId": 7696,
        "contract": "contracts/UnllooCore.sol:UnllooCore",
        "label": "_guarantorIndex",
        "offset": 0,
        "slot": "84",
        "type": "t_mapping(t_address,t_mapping(t_address,t_uint256))"
      },
      {
        "astId": 7704,
        "contract": "contracts/UnllooCore.sol:UnllooCore",
        "label": "guaranteeBonds",
        "offset": 0,
        "slot": "85",
        "type": "t_mapping(t_address,t_mapping(t_address,t_struct(GuaranteeBond)2027_storage))"
      },
      {
        "astId": 7709,
        "contract": "contracts/UnllooCore.sol:UnllooCore",
        "label": "__gap",
        "offset": 0,
        "slot": "86",
        "type": "t_array(t_uint256)29_storage"
      }
    ],
    "types": {
      "t_address": {
        "encoding": "inplace",
        "label": "address",
        "numberOfBytes": "20"
      },
      "t_array(t_address)dyn_storage": {
        "base": "t_address",
        "encoding": "dynamic_array",
        "label": "address[]",
        "numberOfBytes": "32"
      },
      "t_array(t_uint256)29_storage": {
        "base": "t_uint256",
        "encoding": "inplace",
        "label": "uint256[29]",
        "numberOfBytes": "928"
      },
      "t_array(t_uint256)49_storage": {
        "base": "t_uint256",
        "encoding": "inplace",
        "label": "uint256[49]",
        "numberOfBytes": "1568"
      },
      "t_array(t_uint256)dyn_storage": {
        "base": "t_uint256",
        "encoding": "dynamic_array",
        "label": "uint256[]",
        "numberOfBytes": "32"
      },
      "t_bool": {
        "encoding": "inplace",
        "label": "bool",
        "numberOfBytes": "1"
      },
      "t_enum(LoanStatus)1344": {
        "encoding": "inplace",
        "label": "enum IUnlloo.LoanStatus",
        "numberOfBytes": "1"
      },
      "t_mapping(t_address,t_array(t_address)dyn_storage)": {
        "encoding": "mapping",
        "key": "t_address",
        "label": "mapping(address => address[])",
        "numberOfBytes": "32",
        "value": "t_array(t_address)dyn_storage"
      },
      "t_mapping(t_address,t_array(t_uint256)dyn_storage)": {
        "encoding": "mapping",
        "key": "t_address",
        "label": "mapping(address => uint256[])",
        "numberOfBytes": "32",
        "value": "t_array(t_uint256)dyn_storage"
      },
      "t_mapping(t_address,t_mapping(t_address,t_struct(GuaranteeBond)2027_storage))": {
        "encoding": "mapping",
        "key": "t_address",
        "label": "mapping(address => mapping(address => struct IUnlloo.GuaranteeBond))",
        "numberOfBytes": "32",
        "value": "t_mapping(t_address,t_struct(GuaranteeBond)2027_storage)"
      },
      "t_mapping(t_address,t_mapping(t_address,t_struct(LenderPosition)1429_storage))": {
        "encoding": "mapping",
        "key": "t_address",
        "label": "mapping(address => mapping(address => struct IUnlloo.LenderPosition))",
        "numberOfBytes": "32",
        "value": "t_mapping(t_address,t_struct(LenderPosition)1429_storage)"
      },
      "t_mapping(t_address,t_mapping(t_address,t_uint256))": {
        "encoding": "mapping",
        "key": "t_address",
        "label": "mapping(address => mapping(address => uint256))",
        "numberOfBytes": "32",
        "value": "t_mapping(t_address,t_uint256)"
      },
      "t_mapping(t_address,t_struct(GuaranteeBond)2027_storage)": {
        "encoding": "mapping",
        "key": "t_address",
        "label": "mapping(address => struct IUnlloo.GuaranteeBond)",
        "numberOfBytes": "32",
        "value": "t_struct(GuaranteeBond)2027_storage"
      },
      "t_mapping(t_address,t_struct(LenderPosition)1429_storage)": {
        "encoding": "mapping",
        "key": "t_address",
        "label": "mapping(address => struct IUnlloo.LenderPosition)",
        "numberOfBytes": "32",
        "value": "t_struct(LenderPosition)1429_storage"
      },
      "t_mapping(t_address,t_struct(LiquidityPool)1412_storage)": {
        "encoding": "mapping",
        "key": "t_address",
        "label": "mapping(address => struct IUnlloo.LiquidityPool)",
        "numberOfBytes": "32",
        "value": "t_struct(LiquidityPool)1412_storage"
      },
      "t_mapping(t_address,t_struct(RateCurveParams)1446_storage)": {
        "encoding": "mapping",
        "key": "t_address",
        "label": "mapping(address => struct IUnlloo.RateCurveParams)",
        "numberOfBytes": "32",
        "value": "t_struct(RateCurveParams)1446_storage"
      },
      "t_mapping(t_address,t_uint256)": {
        "encoding": "mapping",
        "key": "t_address",
        "label": "mapping(address => uint256)",
        "numberOfBytes": "32",
        "value": "t_uint256"
      },
      "t_mapping(t_enum(LoanStatus)1344,t_array(t_uint256)dyn_storage)": {
        "encoding": "mapping",
        "key": "t_enum(LoanStatus)1344",
        "label": "mapping(enum IUnlloo.LoanStatus => uint256[])",
        "numberOfBytes": "32",
        "value": "t_array(t_uint256)dyn_storage"
      },
      "t_mapping(t_enum(LoanStatus)1344,t_mapping(t_uint256,t_uint256))": {
        "encoding": "mapping",
        "key": "t_enum(LoanStatus)1344",
        "label": "mapping(enum IUnlloo.LoanStatus => mapping(uint256 => uint256))",
        "numberOfBytes": "32",
        "value": "t_mapping(t_uint256,t_uint256)"
      },
      "t_mapping(t_uint256,t_struct(Loan)1401_storage)": {
        "encoding": "mapping",
        "key": "t_uint256",
        "label": "mapping(uint256 => struct IUnlloo.Loan)",
        "numberOfBytes": "32",
        "value": "t_struct(Loan)1401_storage"
      },
      "t_mapping(t_uint256,t_uint256)": {
        "encoding": "mapping",
        "key": "t_uint256",
        "label": "mapping(uint256 => uint256)",
        "numberOfBytes": "32",
        "value": "t_uint256"
      },
      "t_struct(GuaranteeBond)2027_storage": {
        "encoding": "inplace",
        "label": "struct IUnlloo.GuaranteeBond",
        "members": [
          {
            "astId": 2022,
            "contract": "contracts/UnllooCore.sol:UnllooCore",
            "label": "guarantor",
            "offset": 0,
            "slot": "0",
            "type": "t_address"
          },
          {
            "astId": 2024,
            "contract": "contracts/UnllooCore.sol:UnllooCore",
            "label": "borrower",
            "offset": 0,
            "slot": "1",
            "type": "t_address"
          },
          {
            "astId": 2026,
            "contract": "contracts/UnllooCore.sol:UnllooCore",
            "label": "active",
            "offset": 20,
            "slot": "1",
            "type": "t_bool"
          }
        ],
        "numberOfBytes": "64"
      },
      "t_struct(LenderPosition)1429_storage": {
        "encoding": "inplace",
        "label": "struct IUnlloo.LenderPosition",
        "members": [
          {
            "astId": 1416,
            "contract": "contracts/UnllooCore.sol:UnllooCore",
            "label": "lender",
            "offset": 0,
            "slot": "0",
            "type": "t_address"
          },
          {
            "astId": 1419,
            "contract": "contracts/UnllooCore.sol:UnllooCore",
            "label": "token",
            "offset": 0,
            "slot": "1",
            "type": "t_address"
          },
          {
            "astId": 1422,
            "contract": "contracts/UnllooCore.sol:UnllooCore",
            "label": "depositedAmount",
            "offset": 0,
            "slot": "2",
            "type": "t_uint256"
          },
          {
            "astId": 1425,
            "contract": "contracts/UnllooCore.sol:UnllooCore",
            "label": "depositBlock",
            "offset": 0,
            "slot": "3",
            "type": "t_uint256"
          },
          {
            "astId": 1428,
            "contract": "contracts/UnllooCore.sol:UnllooCore",
            "label": "lastWithdrawBlock",
            "offset": 0,
            "slot": "4",
            "type": "t_uint256"
          }
        ],
        "numberOfBytes": "160"
      },
      "t_struct(LiquidityPool)1412_storage": {
        "encoding": "inplace",
        "label": "struct IUnlloo.LiquidityPool",
        "members": [
          {
            "astId": 1405,
            "contract": "contracts/UnllooCore.sol:UnllooCore",
            "label": "token",
            "offset": 0,
            "slot": "0",
            "type": "t_address"
          },
          {
            "astId": 1408,
            "contract": "contracts/UnllooCore.sol:UnllooCore",
            "label": "totalLiquidity",
            "offset": 0,
            "slot": "1",
            "type": "t_uint256"
          },
          {
            "astId": 1411,
            "contract": "contracts/UnllooCore.sol:UnllooCore",
            "label": "borrowedAmount",
            "offset": 0,
            "slot": "2",
            "type": "t_uint256"
          }
        ],
        "numberOfBytes": "96"
      },
      "t_struct(Loan)1401_storage": {
        "encoding": "inplace",
        "label": "struct IUnlloo.Loan",
        "members": [
          {
            "astId": 1348,
            "contract": "contracts/UnllooCore.sol:UnllooCore",
            "label": "loanId",
            "offset": 0,
            "slot": "0",
            "type": "t_uint256"
          },
          {
            "astId": 1351,
            "contract": "contracts/UnllooCore.sol:UnllooCore",
            "label": "borrower",
            "offset": 0,
            "slot": "1",
            "type": "t_address"
          },
          {
            "astId": 1355,
            "contract": "contracts/UnllooCore.sol:UnllooCore",
            "label": "status",
            "offset": 20,
            "slot": "1",
            "type": "t_enum(LoanStatus)1344"
          },
          {
            "astId": 1358,
            "contract": "contracts/UnllooCore.sol:UnllooCore",
            "label": "walletReputation",
            "offset": 21,
            "slot": "1",
            "type": "t_uint16"
          },
          {
            "astId": 1361,
            "contract": "contracts/UnllooCore.sol:UnllooCore",
            "label": "loanAmount",
            "offset": 0,
            "slot": "2",
            "type": "t_uint256"
          },
          {
            "astId": 1364,
            "contract": "contracts/UnllooCore.sol:UnllooCore",
            "label": "loanDurationBlocks",
            "offset": 0,
            "slot": "3",
            "type": "t_uint256"
          },
          {
            "astId": 1367,
            "contract": "contracts/UnllooCore.sol:UnllooCore",
            "label": "chainId",
            "offset": 0,
            "slot": "4",
            "type": "t_uint256"
          },
          {
            "astId": 1370,
            "contract": "contracts/UnllooCore.sol:UnllooCore",
            "label": "requestBlock",
            "offset": 0,
            "slot": "5",
            "type": "t_uint256"
          },
          {
            "astId": 1373,
            "contract": "contracts/UnllooCore.sol:UnllooCore",
            "label": "approvalBlock",
            "offset": 0,
            "slot": "6",
            "type": "t_uint256"
          },
          {
            "astId": 1376,
            "contract": "contracts/UnllooCore.sol:UnllooCore",
            "label": "token",
            "offset": 0,
            "slot": "7",
            "type": "t_address"
          },
          {
            "astId": 1379,
            "contract": "contracts/UnllooCore.sol:UnllooCore",
            "label": "principal",
            "offset": 0,
            "slot": "8",
            "type": "t_uint256"
          },
          {
            "astId": 1382,
            "contract": "contracts/UnllooCore.sol:UnllooCore",
            "label": "amountRepaid",
            "offset": 0,
            "slot": "9",
            "type": "t_uint256"
          },
          {
            "astId": 1385,
            "contract": "contracts/UnllooCore.sol:UnllooCore",
            "label": "startBlock",
            "offset": 0,
            "slot": "10",
            "type": "t_uint256"
          },
          {
            "astId": 1388,
            "contract": "contracts/UnllooCore.sol:UnllooCore",
            "label": "deadlineBlock",
            "offset": 0,
            "slot": "11",
            "type": "t_uint256"
          },
          {
            "astId": 1391,
            "contract": "contracts/UnllooCore.sol:UnllooCore",
            "label": "protocolFee",
            "offset": 0,
            "slot": "12",
            "type": "t_uint256"
          },
          {
            "astId": 1394,
            "contract": "contracts/UnllooCore.sol:UnllooCore",
            "label": "interestAccrued",
            "offset": 0,
            "slot": "13",
            "type": "t_uint256"
          },
          {
            "astId": 1397,
            "contract": "contracts/UnllooCore.sol:UnllooCore",
            "label": "borrowRateBps",
            "offset": 0,
            "slot": "14",
            "type": "t_uint256"
          },
          {
            "astId": 1400,
            "contract": "contracts/UnllooCore.sol:UnllooCore",
            "label": "lastAccrualBlock",
            "offset": 0,
            "slot": "15",
            "type": "t_uint256"
          }
        ],
        "numberOfBytes": "512"
      },
      "t_struct(RateCurveParams)1446_storage": {
        "encoding": "inplace",
        "label": "struct IUnlloo.RateCurveParams",
        "members": [
          {
            "astId": 1433,
            "contract": "contracts/UnllooCore.sol:UnllooCore",
            "label": "baseRateBps",
            "offset": 0,
            "slot": "0",
            "type": "t_uint256"
          },
          {
            "astId": 1436,
            "contract": "contracts/UnllooCore.sol:UnllooCore",
            "label": "optimalUtilizationBps",
            "offset": 0,
            "slot": "1",
            "type": "t_uint256"
          },
          {
            "astId": 1439,
            "contract": "contracts/UnllooCore.sol:UnllooCore",
            "label": "slope1Bps",
            "offset": 0,
            "slot": "2",
            "type": "t_uint256"
          },
          {
            "astId": 1442,
            "contract": "contracts/UnllooCore.sol:UnllooCore",
            "label": "slope2Bps",
            "offset": 0,
            "slot": "3",
            "type": "t_uint256"
          },
          {
            "astId": 1445,
            "contract": "contracts/UnllooCore.sol:UnllooCore",
            "label": "protocolFeeBps",
            "offset": 0,
            "slot": "4",
            "type": "t_uint256"
          }
        ],
        "numberOfBytes": "160"
      },
      "t_uint16": {
        "encoding": "inplace",
        "label": "uint16",
        "numberOfBytes": "2"
      },
      "t_uint256": {
        "encoding": "inplace",
        "label": "uint256",
        "numberOfBytes": "32"
      }
    }
  }
}