{
  "address": "0xA28535f07EE1d35fdbd791607Fd2443b309Eb007",
  "abi": [
    {
      "inputs": [
        {
          "internalType": "address",
          "name": "token",
          "type": "address"
        }
      ],
      "name": "ActiveLoansUsingPool",
      "type": "error"
    },
    {
      "inputs": [],
      "name": "EnforcedPause",
      "type": "error"
    },
    {
      "inputs": [],
      "name": "ExpectedPause",
      "type": "error"
    },
    {
      "inputs": [
        {
          "internalType": "address",
          "name": "user",
          "type": "address"
        }
      ],
      "name": "HasActiveLoan",
      "type": "error"
    },
    {
      "inputs": [
        {
          "internalType": "address",
          "name": "user",
          "type": "address"
        }
      ],
      "name": "HasUnpaidDebt",
      "type": "error"
    },
    {
      "inputs": [
        {
          "internalType": "uint256",
          "name": "amount",
          "type": "uint256"
        },
        {
          "internalType": "uint256",
          "name": "min",
          "type": "uint256"
        },
        {
          "internalType": "uint256",
          "name": "max",
          "type": "uint256"
        }
      ],
      "name": "InvalidAmount",
      "type": "error"
    },
    {
      "inputs": [
        {
          "internalType": "uint256",
          "name": "blockTime",
          "type": "uint256"
        }
      ],
      "name": "InvalidBlockTime",
      "type": "error"
    },
    {
      "inputs": [
        {
          "internalType": "uint256",
          "name": "duration",
          "type": "uint256"
        },
        {
          "internalType": "uint256",
          "name": "min",
          "type": "uint256"
        },
        {
          "internalType": "uint256",
          "name": "max",
          "type": "uint256"
        }
      ],
      "name": "InvalidDuration",
      "type": "error"
    },
    {
      "inputs": [],
      "name": "InvalidInitialization",
      "type": "error"
    },
    {
      "inputs": [
        {
          "internalType": "uint8",
          "name": "current",
          "type": "uint8"
        },
        {
          "internalType": "uint8",
          "name": "required",
          "type": "uint8"
        }
      ],
      "name": "InvalidLoanStatus",
      "type": "error"
    },
    {
      "inputs": [
        {
          "internalType": "address",
          "name": "token",
          "type": "address"
        }
      ],
      "name": "InvalidPool",
      "type": "error"
    },
    {
      "inputs": [
        {
          "internalType": "uint256",
          "name": "minAmount",
          "type": "uint256"
        },
        {
          "internalType": "uint256",
          "name": "maxAmount",
          "type": "uint256"
        }
      ],
      "name": "InvalidPoolLoanLimits",
      "type": "error"
    },
    {
      "inputs": [
        {
          "internalType": "address",
          "name": "token",
          "type": "address"
        },
        {
          "internalType": "string",
          "name": "paramName",
          "type": "string"
        },
        {
          "internalType": "uint256",
          "name": "value",
          "type": "uint256"
        }
      ],
      "name": "InvalidRateCurveParam",
      "type": "error"
    },
    {
      "inputs": [
        {
          "internalType": "uint16",
          "name": "reputation",
          "type": "uint16"
        },
        {
          "internalType": "uint16",
          "name": "min",
          "type": "uint16"
        }
      ],
      "name": "InvalidReputation",
      "type": "error"
    },
    {
      "inputs": [
        {
          "internalType": "uint256",
          "name": "loanId",
          "type": "uint256"
        },
        {
          "internalType": "uint8",
          "name": "status",
          "type": "uint8"
        }
      ],
      "name": "LoanAlreadyInStatus",
      "type": "error"
    },
    {
      "inputs": [
        {
          "internalType": "uint256",
          "name": "loanId",
          "type": "uint256"
        }
      ],
      "name": "LoanNotFound",
      "type": "error"
    },
    {
      "inputs": [],
      "name": "NotInitializing",
      "type": "error"
    },
    {
      "inputs": [
        {
          "internalType": "address",
          "name": "owner",
          "type": "address"
        }
      ],
      "name": "OwnableInvalidOwner",
      "type": "error"
    },
    {
      "inputs": [
        {
          "internalType": "address",
          "name": "account",
          "type": "address"
        }
      ],
      "name": "OwnableUnauthorizedAccount",
      "type": "error"
    },
    {
      "inputs": [
        {
          "internalType": "address",
          "name": "token",
          "type": "address"
        }
      ],
      "name": "PoolExists",
      "type": "error"
    },
    {
      "inputs": [
        {
          "internalType": "address",
          "name": "token",
          "type": "address"
        }
      ],
      "name": "PoolNotEmpty",
      "type": "error"
    },
    {
      "inputs": [],
      "name": "ReentrancyGuardReentrantCall",
      "type": "error"
    },
    {
      "inputs": [
        {
          "internalType": "address",
          "name": "token",
          "type": "address"
        }
      ],
      "name": "SafeERC20FailedOperation",
      "type": "error"
    },
    {
      "inputs": [
        {
          "internalType": "address",
          "name": "token",
          "type": "address"
        }
      ],
      "name": "UnsupportedTokenTransfer",
      "type": "error"
    },
    {
      "anonymous": false,
      "inputs": [
        {
          "indexed": false,
          "internalType": "uint256",
          "name": "oldCooldownBlocks",
          "type": "uint256"
        },
        {
          "indexed": false,
          "internalType": "uint256",
          "name": "newCooldownBlocks",
          "type": "uint256"
        },
        {
          "indexed": false,
          "internalType": "uint256",
          "name": "blockNumber",
          "type": "uint256"
        }
      ],
      "name": "CooldownBlocksUpdated",
      "type": "event"
    },
    {
      "anonymous": false,
      "inputs": [
        {
          "indexed": true,
          "internalType": "address",
          "name": "admin",
          "type": "address"
        },
        {
          "indexed": false,
          "internalType": "uint256",
          "name": "amount",
          "type": "uint256"
        },
        {
          "indexed": false,
          "internalType": "uint256",
          "name": "blockNumber",
          "type": "uint256"
        }
      ],
      "name": "ETHWithdrawn",
      "type": "event"
    },
    {
      "anonymous": false,
      "inputs": [
        {
          "indexed": true,
          "internalType": "address",
          "name": "token",
          "type": "address"
        },
        {
          "indexed": false,
          "internalType": "uint256",
          "name": "amount",
          "type": "uint256"
        },
        {
          "indexed": false,
          "internalType": "uint256",
          "name": "blockNumber",
          "type": "uint256"
        }
      ],
      "name": "EmergencyWithdraw",
      "type": "event"
    },
    {
      "anonymous": false,
      "inputs": [
        {
          "indexed": false,
          "internalType": "uint64",
          "name": "version",
          "type": "uint64"
        }
      ],
      "name": "Initialized",
      "type": "event"
    },
    {
      "anonymous": false,
      "inputs": [
        {
          "indexed": true,
          "internalType": "address",
          "name": "token",
          "type": "address"
        },
        {
          "indexed": false,
          "internalType": "uint256",
          "name": "baseRateBps",
          "type": "uint256"
        },
        {
          "indexed": false,
          "internalType": "uint256",
          "name": "optimalUtilizationBps",
          "type": "uint256"
        },
        {
          "indexed": false,
          "internalType": "uint256",
          "name": "slope1Bps",
          "type": "uint256"
        },
        {
          "indexed": false,
          "internalType": "uint256",
          "name": "slope2Bps",
          "type": "uint256"
        },
        {
          "indexed": false,
          "internalType": "uint256",
          "name": "protocolFeeBps",
          "type": "uint256"
        },
        {
          "indexed": false,
          "internalType": "uint256",
          "name": "blockNumber",
          "type": "uint256"
        }
      ],
      "name": "InterestRatesUpdated",
      "type": "event"
    },
    {
      "anonymous": false,
      "inputs": [
        {
          "indexed": true,
          "internalType": "uint256",
          "name": "loanId",
          "type": "uint256"
        },
        {
          "indexed": true,
          "internalType": "address",
          "name": "borrower",
          "type": "address"
        },
        {
          "indexed": false,
          "internalType": "uint256",
          "name": "approvalBlock",
          "type": "uint256"
        }
      ],
      "name": "LoanRequestApproved",
      "type": "event"
    },
    {
      "anonymous": false,
      "inputs": [
        {
          "indexed": true,
          "internalType": "uint256",
          "name": "loanId",
          "type": "uint256"
        },
        {
          "indexed": true,
          "internalType": "address",
          "name": "borrower",
          "type": "address"
        },
        {
          "indexed": false,
          "internalType": "uint256",
          "name": "rejectionBlock",
          "type": "uint256"
        }
      ],
      "name": "LoanRequestRejected",
      "type": "event"
    },
    {
      "anonymous": false,
      "inputs": [
        {
          "indexed": false,
          "internalType": "uint16",
          "name": "oldMinReputation",
          "type": "uint16"
        },
        {
          "indexed": false,
          "internalType": "uint16",
          "name": "newMinReputation",
          "type": "uint16"
        },
        {
          "indexed": false,
          "internalType": "uint256",
          "name": "blockNumber",
          "type": "uint256"
        }
      ],
      "name": "MinReputationUpdated",
      "type": "event"
    },
    {
      "anonymous": false,
      "inputs": [
        {
          "indexed": true,
          "internalType": "address",
          "name": "previousOwner",
          "type": "address"
        },
        {
          "indexed": true,
          "internalType": "address",
          "name": "newOwner",
          "type": "address"
        }
      ],
      "name": "OwnershipTransferred",
      "type": "event"
    },
    {
      "anonymous": false,
      "inputs": [
        {
          "indexed": false,
          "internalType": "address",
          "name": "account",
          "type": "address"
        }
      ],
      "name": "Paused",
      "type": "event"
    },
    {
      "anonymous": false,
      "inputs": [
        {
          "indexed": true,
          "internalType": "address",
          "name": "token",
          "type": "address"
        },
        {
          "indexed": false,
          "internalType": "uint256",
          "name": "blockNumber",
          "type": "uint256"
        }
      ],
      "name": "PoolAdded",
      "type": "event"
    },
    {
      "anonymous": false,
      "inputs": [
        {
          "indexed": true,
          "internalType": "address",
          "name": "token",
          "type": "address"
        },
        {
          "indexed": false,
          "internalType": "uint256",
          "name": "minLoanAmount",
          "type": "uint256"
        },
        {
          "indexed": false,
          "internalType": "uint256",
          "name": "maxLoanAmount",
          "type": "uint256"
        },
        {
          "indexed": false,
          "internalType": "uint256",
          "name": "blockNumber",
          "type": "uint256"
        }
      ],
      "name": "PoolLoanLimitsUpdated",
      "type": "event"
    },
    {
      "anonymous": false,
      "inputs": [
        {
          "indexed": true,
          "internalType": "address",
          "name": "token",
          "type": "address"
        },
        {
          "indexed": false,
          "internalType": "uint256",
          "name": "blockNumber",
          "type": "uint256"
        }
      ],
      "name": "PoolRemoved",
      "type": "event"
    },
    {
      "anonymous": false,
      "inputs": [
        {
          "indexed": true,
          "internalType": "address",
          "name": "admin",
          "type": "address"
        },
        {
          "indexed": true,
          "internalType": "address",
          "name": "token",
          "type": "address"
        },
        {
          "indexed": false,
          "internalType": "uint256",
          "name": "amount",
          "type": "uint256"
        },
        {
          "indexed": false,
          "internalType": "uint256",
          "name": "blockNumber",
          "type": "uint256"
        }
      ],
      "name": "ProtocolFeesWithdrawn",
      "type": "event"
    },
    {
      "anonymous": false,
      "inputs": [
        {
          "indexed": false,
          "internalType": "address",
          "name": "account",
          "type": "address"
        }
      ],
      "name": "Unpaused",
      "type": "event"
    },
    {
      "inputs": [],
      "name": "MAX_BLOCKS_FOR_INTEREST",
      "outputs": [
        {
          "internalType": "uint256",
          "name": "",
          "type": "uint256"
        }
      ],
      "stateMutability": "view",
      "type": "function"
    },
    {
      "inputs": [],
      "name": "MAX_BORROWER_RATE",
      "outputs": [
        {
          "internalType": "uint256",
          "name": "",
          "type": "uint256"
        }
      ],
      "stateMutability": "view",
      "type": "function"
    },
    {
      "inputs": [],
      "name": "MAX_PENDING_LOANS_PER_USER",
      "outputs": [
        {
          "internalType": "uint256",
          "name": "",
          "type": "uint256"
        }
      ],
      "stateMutability": "view",
      "type": "function"
    },
    {
      "inputs": [],
      "name": "MIN_BORROWER_RATE",
      "outputs": [
        {
          "internalType": "uint256",
          "name": "",
          "type": "uint256"
        }
      ],
      "stateMutability": "view",
      "type": "function"
    },
    {
      "inputs": [
        {
          "internalType": "address",
          "name": "",
          "type": "address"
        }
      ],
      "name": "activeLenderCount",
      "outputs": [
        {
          "internalType": "uint256",
          "name": "",
          "type": "uint256"
        }
      ],
      "stateMutability": "view",
      "type": "function"
    },
    {
      "inputs": [
        {
          "internalType": "address",
          "name": "",
          "type": "address"
        }
      ],
      "name": "activeLoansPerPool",
      "outputs": [
        {
          "internalType": "uint256",
          "name": "",
          "type": "uint256"
        }
      ],
      "stateMutability": "view",
      "type": "function"
    },
    {
      "inputs": [
        {
          "internalType": "address",
          "name": "token",
          "type": "address"
        },
        {
          "internalType": "uint256",
          "name": "minLoanAmount",
          "type": "uint256"
        },
        {
          "internalType": "uint256",
          "name": "maxLoanAmount",
          "type": "uint256"
        }
      ],
      "name": "addLiquidityPool",
      "outputs": [],
      "stateMutability": "nonpayable",
      "type": "function"
    },
    {
      "inputs": [
        {
          "internalType": "uint256",
          "name": "loanId",
          "type": "uint256"
        }
      ],
      "name": "approveLoanRequest",
      "outputs": [],
      "stateMutability": "nonpayable",
      "type": "function"
    },
    {
      "inputs": [],
      "name": "approvedLoanExpiryBlocks",
      "outputs": [
        {
          "internalType": "uint256",
          "name": "",
          "type": "uint256"
        }
      ],
      "stateMutability": "view",
      "type": "function"
    },
    {
      "inputs": [],
      "name": "blockTimeSeconds",
      "outputs": [
        {
          "internalType": "uint256",
          "name": "",
          "type": "uint256"
        }
      ],
      "stateMutability": "view",
      "type": "function"
    },
    {
      "inputs": [
        {
          "internalType": "address",
          "name": "borrower",
          "type": "address"
        }
      ],
      "name": "borrowerLoans",
      "outputs": [
        {
          "internalType": "uint256[]",
          "name": "",
          "type": "uint256[]"
        }
      ],
      "stateMutability": "view",
      "type": "function"
    },
    {
      "inputs": [
        {
          "internalType": "address",
          "name": "token",
          "type": "address"
        }
      ],
      "name": "calculateBorrowRate",
      "outputs": [
        {
          "internalType": "uint256",
          "name": "rateBps",
          "type": "uint256"
        }
      ],
      "stateMutability": "view",
      "type": "function"
    },
    {
      "inputs": [
        {
          "internalType": "address",
          "name": "user",
          "type": "address"
        }
      ],
      "name": "canSubmitRequest",
      "outputs": [
        {
          "internalType": "bool",
          "name": "",
          "type": "bool"
        }
      ],
      "stateMutability": "view",
      "type": "function"
    },
    {
      "inputs": [],
      "name": "cooldownBlocks",
      "outputs": [
        {
          "internalType": "uint256",
          "name": "",
          "type": "uint256"
        }
      ],
      "stateMutability": "view",
      "type": "function"
    },
    {
      "inputs": [],
      "name": "defaultToken",
      "outputs": [
        {
          "internalType": "address",
          "name": "",
          "type": "address"
        }
      ],
      "stateMutability": "view",
      "type": "function"
    },
    {
      "inputs": [
        {
          "internalType": "address",
          "name": "token",
          "type": "address"
        },
        {
          "internalType": "uint256",
          "name": "amount",
          "type": "uint256"
        }
      ],
      "name": "emergencyWithdraw",
      "outputs": [],
      "stateMutability": "nonpayable",
      "type": "function"
    },
    {
      "inputs": [],
      "name": "extensionDelegate",
      "outputs": [
        {
          "internalType": "address",
          "name": "",
          "type": "address"
        }
      ],
      "stateMutability": "view",
      "type": "function"
    },
    {
      "inputs": [
        {
          "internalType": "uint256",
          "name": "loanId",
          "type": "uint256"
        }
      ],
      "name": "getAccruedInterest",
      "outputs": [
        {
          "internalType": "uint256",
          "name": "accruedInterest",
          "type": "uint256"
        }
      ],
      "stateMutability": "view",
      "type": "function"
    },
    {
      "inputs": [
        {
          "internalType": "address",
          "name": "token",
          "type": "address"
        }
      ],
      "name": "getActiveLenderCount",
      "outputs": [
        {
          "internalType": "uint256",
          "name": "count",
          "type": "uint256"
        }
      ],
      "stateMutability": "view",
      "type": "function"
    },
    {
      "inputs": [
        {
          "internalType": "address",
          "name": "borrower",
          "type": "address"
        }
      ],
      "name": "getActiveLoanByBorrower",
      "outputs": [
        {
          "internalType": "uint256",
          "name": "loanId",
          "type": "uint256"
        }
      ],
      "stateMutability": "view",
      "type": "function"
    },
    {
      "inputs": [
        {
          "internalType": "address",
          "name": "user",
          "type": "address"
        }
      ],
      "name": "getCooldownEndBlock",
      "outputs": [
        {
          "internalType": "uint256",
          "name": "cooldownEndBlock",
          "type": "uint256"
        }
      ],
      "stateMutability": "view",
      "type": "function"
    },
    {
      "inputs": [
        {
          "internalType": "address",
          "name": "borrower",
          "type": "address"
        },
        {
          "internalType": "address",
          "name": "guarantor",
          "type": "address"
        }
      ],
      "name": "getGuaranteeBond",
      "outputs": [
        {
          "components": [
            {
              "internalType": "address",
              "name": "guarantor",
              "type": "address"
            },
            {
              "internalType": "address",
              "name": "borrower",
              "type": "address"
            },
            {
              "internalType": "bool",
              "name": "active",
              "type": "bool"
            }
          ],
          "internalType": "struct IUnlloo.GuaranteeBond",
          "name": "",
          "type": "tuple"
        }
      ],
      "stateMutability": "view",
      "type": "function"
    },
    {
      "inputs": [
        {
          "internalType": "address",
          "name": "guarantor",
          "type": "address"
        }
      ],
      "name": "getGuaranteesByGuarantor",
      "outputs": [
        {
          "internalType": "address[]",
          "name": "borrowers",
          "type": "address[]"
        }
      ],
      "stateMutability": "view",
      "type": "function"
    },
    {
      "inputs": [
        {
          "internalType": "address",
          "name": "borrower",
          "type": "address"
        }
      ],
      "name": "getGuarantorsForBorrower",
      "outputs": [
        {
          "internalType": "address[]",
          "name": "",
          "type": "address[]"
        }
      ],
      "stateMutability": "view",
      "type": "function"
    },
    {
      "inputs": [
        {
          "internalType": "address",
          "name": "token",
          "type": "address"
        }
      ],
      "name": "getLiquidityPool",
      "outputs": [
        {
          "components": [
            {
              "internalType": "address",
              "name": "token",
              "type": "address"
            },
            {
              "internalType": "uint256",
              "name": "totalLiquidity",
              "type": "uint256"
            },
            {
              "internalType": "uint256",
              "name": "borrowedAmount",
              "type": "uint256"
            }
          ],
          "internalType": "struct IUnlloo.LiquidityPool",
          "name": "pool",
          "type": "tuple"
        }
      ],
      "stateMutability": "view",
      "type": "function"
    },
    {
      "inputs": [
        {
          "internalType": "uint256",
          "name": "loanId",
          "type": "uint256"
        }
      ],
      "name": "getLoan",
      "outputs": [
        {
          "components": [
            {
              "internalType": "uint256",
              "name": "loanId",
              "type": "uint256"
            },
            {
              "internalType": "address",
              "name": "borrower",
              "type": "address"
            },
            {
              "internalType": "enum IUnlloo.LoanStatus",
              "name": "status",
              "type": "uint8"
            },
            {
              "internalType": "uint16",
              "name": "walletReputation",
              "type": "uint16"
            },
            {
              "internalType": "uint256",
              "name": "loanAmount",
              "type": "uint256"
            },
            {
              "internalType": "uint256",
              "name": "loanDurationBlocks",
              "type": "uint256"
            },
            {
              "internalType": "uint256",
              "name": "chainId",
              "type": "uint256"
            },
            {
              "internalType": "uint256",
              "name": "requestBlock",
              "type": "uint256"
            },
            {
              "internalType": "uint256",
              "name": "approvalBlock",
              "type": "uint256"
            },
            {
              "internalType": "address",
              "name": "token",
              "type": "address"
            },
            {
              "internalType": "uint256",
              "name": "principal",
              "type": "uint256"
            },
            {
              "internalType": "uint256",
              "name": "amountRepaid",
              "type": "uint256"
            },
            {
              "internalType": "uint256",
              "name": "startBlock",
              "type": "uint256"
            },
            {
              "internalType": "uint256",
              "name": "deadlineBlock",
              "type": "uint256"
            },
            {
              "internalType": "uint256",
              "name": "protocolFee",
              "type": "uint256"
            },
            {
              "internalType": "uint256",
              "name": "interestAccrued",
              "type": "uint256"
            },
            {
              "internalType": "uint256",
              "name": "borrowRateBps",
              "type": "uint256"
            },
            {
              "internalType": "uint256",
              "name": "lastAccrualBlock",
              "type": "uint256"
            }
          ],
          "internalType": "struct IUnlloo.Loan",
          "name": "loan",
          "type": "tuple"
        }
      ],
      "stateMutability": "view",
      "type": "function"
    },
    {
      "inputs": [
        {
          "internalType": "address",
          "name": "borrower",
          "type": "address"
        }
      ],
      "name": "getLoansByBorrower",
      "outputs": [
        {
          "internalType": "uint256[]",
          "name": "",
          "type": "uint256[]"
        }
      ],
      "stateMutability": "view",
      "type": "function"
    },
    {
      "inputs": [
        {
          "internalType": "enum IUnlloo.LoanStatus",
          "name": "status",
          "type": "uint8"
        },
        {
          "internalType": "uint256",
          "name": "offset",
          "type": "uint256"
        },
        {
          "internalType": "uint256",
          "name": "limit",
          "type": "uint256"
        }
      ],
      "name": "getLoansByStatus",
      "outputs": [
        {
          "internalType": "uint256[]",
          "name": "loanIds",
          "type": "uint256[]"
        }
      ],
      "stateMutability": "view",
      "type": "function"
    },
    {
      "inputs": [
        {
          "internalType": "address",
          "name": "token",
          "type": "address"
        }
      ],
      "name": "getPoolLoanLimits",
      "outputs": [
        {
          "internalType": "uint256",
          "name": "minLoanAmount",
          "type": "uint256"
        },
        {
          "internalType": "uint256",
          "name": "maxLoanAmount",
          "type": "uint256"
        }
      ],
      "stateMutability": "view",
      "type": "function"
    },
    {
      "inputs": [
        {
          "internalType": "address",
          "name": "token",
          "type": "address"
        }
      ],
      "name": "getPoolRateCurve",
      "outputs": [
        {
          "components": [
            {
              "internalType": "uint256",
              "name": "baseRateBps",
              "type": "uint256"
            },
            {
              "internalType": "uint256",
              "name": "optimalUtilizationBps",
              "type": "uint256"
            },
            {
              "internalType": "uint256",
              "name": "slope1Bps",
              "type": "uint256"
            },
            {
              "internalType": "uint256",
              "name": "slope2Bps",
              "type": "uint256"
            },
            {
              "internalType": "uint256",
              "name": "protocolFeeBps",
              "type": "uint256"
            }
          ],
          "internalType": "struct IUnlloo.RateCurveParams",
          "name": "",
          "type": "tuple"
        }
      ],
      "stateMutability": "view",
      "type": "function"
    },
    {
      "inputs": [
        {
          "internalType": "address",
          "name": "token",
          "type": "address"
        }
      ],
      "name": "getProtocolFees",
      "outputs": [
        {
          "internalType": "uint256",
          "name": "balance",
          "type": "uint256"
        }
      ],
      "stateMutability": "view",
      "type": "function"
    },
    {
      "inputs": [
        {
          "internalType": "uint256",
          "name": "loanId",
          "type": "uint256"
        }
      ],
      "name": "getRemainingBalance",
      "outputs": [
        {
          "internalType": "uint256",
          "name": "remainingBalance",
          "type": "uint256"
        }
      ],
      "stateMutability": "view",
      "type": "function"
    },
    {
      "inputs": [
        {
          "internalType": "uint256",
          "name": "loanId",
          "type": "uint256"
        }
      ],
      "name": "getTotalOwed",
      "outputs": [
        {
          "internalType": "uint256",
          "name": "totalOwed",
          "type": "uint256"
        }
      ],
      "stateMutability": "view",
      "type": "function"
    },
    {
      "inputs": [
        {
          "internalType": "address",
          "name": "",
          "type": "address"
        },
        {
          "internalType": "address",
          "name": "",
          "type": "address"
        }
      ],
      "name": "guaranteeBonds",
      "outputs": [
        {
          "internalType": "address",
          "name": "guarantor",
          "type": "address"
        },
        {
          "internalType": "address",
          "name": "borrower",
          "type": "address"
        },
        {
          "internalType": "bool",
          "name": "active",
          "type": "bool"
        }
      ],
      "stateMutability": "view",
      "type": "function"
    },
    {
      "inputs": [
        {
          "internalType": "address",
          "name": "borrower",
          "type": "address"
        }
      ],
      "name": "isGuaranteed",
      "outputs": [
        {
          "internalType": "bool",
          "name": "",
          "type": "bool"
        }
      ],
      "stateMutability": "view",
      "type": "function"
    },
    {
      "inputs": [
        {
          "internalType": "address",
          "name": "",
          "type": "address"
        }
      ],
      "name": "lastRequestBlock",
      "outputs": [
        {
          "internalType": "uint256",
          "name": "",
          "type": "uint256"
        }
      ],
      "stateMutability": "view",
      "type": "function"
    },
    {
      "inputs": [
        {
          "internalType": "address",
          "name": "",
          "type": "address"
        },
        {
          "internalType": "address",
          "name": "",
          "type": "address"
        }
      ],
      "name": "lenderAccruedInterest",
      "outputs": [
        {
          "internalType": "uint256",
          "name": "",
          "type": "uint256"
        }
      ],
      "stateMutability": "view",
      "type": "function"
    },
    {
      "inputs": [
        {
          "internalType": "address",
          "name": "",
          "type": "address"
        },
        {
          "internalType": "address",
          "name": "",
          "type": "address"
        }
      ],
      "name": "lenderPositions",
      "outputs": [
        {
          "internalType": "address",
          "name": "lender",
          "type": "address"
        },
        {
          "internalType": "address",
          "name": "token",
          "type": "address"
        },
        {
          "internalType": "uint256",
          "name": "depositedAmount",
          "type": "uint256"
        },
        {
          "internalType": "uint256",
          "name": "depositBlock",
          "type": "uint256"
        },
        {
          "internalType": "uint256",
          "name": "lastWithdrawBlock",
          "type": "uint256"
        }
      ],
      "stateMutability": "view",
      "type": "function"
    },
    {
      "inputs": [
        {
          "internalType": "address",
          "name": "",
          "type": "address"
        },
        {
          "internalType": "address",
          "name": "",
          "type": "address"
        }
      ],
      "name": "lenderSupplyIndex",
      "outputs": [
        {
          "internalType": "uint256",
          "name": "",
          "type": "uint256"
        }
      ],
      "stateMutability": "view",
      "type": "function"
    },
    {
      "inputs": [],
      "name": "loanCounter",
      "outputs": [
        {
          "internalType": "uint256",
          "name": "",
          "type": "uint256"
        }
      ],
      "stateMutability": "view",
      "type": "function"
    },
    {
      "inputs": [
        {
          "internalType": "uint256",
          "name": "",
          "type": "uint256"
        }
      ],
      "name": "loanInitialPrincipal",
      "outputs": [
        {
          "internalType": "uint256",
          "name": "",
          "type": "uint256"
        }
      ],
      "stateMutability": "view",
      "type": "function"
    },
    {
      "inputs": [
        {
          "internalType": "uint256",
          "name": "",
          "type": "uint256"
        }
      ],
      "name": "loans",
      "outputs": [
        {
          "internalType": "uint256",
          "name": "loanId",
          "type": "uint256"
        },
        {
          "internalType": "address",
          "name": "borrower",
          "type": "address"
        },
        {
          "internalType": "enum IUnlloo.LoanStatus",
          "name": "status",
          "type": "uint8"
        },
        {
          "internalType": "uint16",
          "name": "walletReputation",
          "type": "uint16"
        },
        {
          "internalType": "uint256",
          "name": "loanAmount",
          "type": "uint256"
        },
        {
          "internalType": "uint256",
          "name": "loanDurationBlocks",
          "type": "uint256"
        },
        {
          "internalType": "uint256",
          "name": "chainId",
          "type": "uint256"
        },
        {
          "internalType": "uint256",
          "name": "requestBlock",
          "type": "uint256"
        },
        {
          "internalType": "uint256",
          "name": "approvalBlock",
          "type": "uint256"
        },
        {
          "internalType": "address",
          "name": "token",
          "type": "address"
        },
        {
          "internalType": "uint256",
          "name": "principal",
          "type": "uint256"
        },
        {
          "internalType": "uint256",
          "name": "amountRepaid",
          "type": "uint256"
        },
        {
          "internalType": "uint256",
          "name": "startBlock",
          "type": "uint256"
        },
        {
          "internalType": "uint256",
          "name": "deadlineBlock",
          "type": "uint256"
        },
        {
          "internalType": "uint256",
          "name": "protocolFee",
          "type": "uint256"
        },
        {
          "internalType": "uint256",
          "name": "interestAccrued",
          "type": "uint256"
        },
        {
          "internalType": "uint256",
          "name": "borrowRateBps",
          "type": "uint256"
        },
        {
          "internalType": "uint256",
          "name": "lastAccrualBlock",
          "type": "uint256"
        }
      ],
      "stateMutability": "view",
      "type": "function"
    },
    {
      "inputs": [
        {
          "internalType": "enum IUnlloo.LoanStatus",
          "name": "status",
          "type": "uint8"
        }
      ],
      "name": "loansByStatus",
      "outputs": [
        {
          "internalType": "uint256[]",
          "name": "",
          "type": "uint256[]"
        }
      ],
      "stateMutability": "view",
      "type": "function"
    },
    {
      "inputs": [
        {
          "internalType": "address",
          "name": "",
          "type": "address"
        }
      ],
      "name": "maxLoanAmountPerPool",
      "outputs": [
        {
          "internalType": "uint256",
          "name": "",
          "type": "uint256"
        }
      ],
      "stateMutability": "view",
      "type": "function"
    },
    {
      "inputs": [],
      "name": "maxLoanDurationBlocks",
      "outputs": [
        {
          "internalType": "uint256",
          "name": "",
          "type": "uint256"
        }
      ],
      "stateMutability": "view",
      "type": "function"
    },
    {
      "inputs": [
        {
          "internalType": "address",
          "name": "",
          "type": "address"
        }
      ],
      "name": "minLoanAmountPerPool",
      "outputs": [
        {
          "internalType": "uint256",
          "name": "",
          "type": "uint256"
        }
      ],
      "stateMutability": "view",
      "type": "function"
    },
    {
      "inputs": [],
      "name": "minLoanDurationBlocks",
      "outputs": [
        {
          "internalType": "uint256",
          "name": "",
          "type": "uint256"
        }
      ],
      "stateMutability": "view",
      "type": "function"
    },
    {
      "inputs": [],
      "name": "minReputation",
      "outputs": [
        {
          "internalType": "uint16",
          "name": "",
          "type": "uint16"
        }
      ],
      "stateMutability": "view",
      "type": "function"
    },
    {
      "inputs": [
        {
          "internalType": "address",
          "name": "",
          "type": "address"
        }
      ],
      "name": "openRequestCount",
      "outputs": [
        {
          "internalType": "uint256",
          "name": "",
          "type": "uint256"
        }
      ],
      "stateMutability": "view",
      "type": "function"
    },
    {
      "inputs": [],
      "name": "owner",
      "outputs": [
        {
          "internalType": "address",
          "name": "",
          "type": "address"
        }
      ],
      "stateMutability": "view",
      "type": "function"
    },
    {
      "inputs": [],
      "name": "pause",
      "outputs": [],
      "stateMutability": "nonpayable",
      "type": "function"
    },
    {
      "inputs": [],
      "name": "paused",
      "outputs": [
        {
          "internalType": "bool",
          "name": "",
          "type": "bool"
        }
      ],
      "stateMutability": "view",
      "type": "function"
    },
    {
      "inputs": [
        {
          "internalType": "address",
          "name": "",
          "type": "address"
        }
      ],
      "name": "poolSupplyIndex",
      "outputs": [
        {
          "internalType": "uint256",
          "name": "",
          "type": "uint256"
        }
      ],
      "stateMutability": "view",
      "type": "function"
    },
    {
      "inputs": [
        {
          "internalType": "address",
          "name": "",
          "type": "address"
        }
      ],
      "name": "poolUndistributedInterest",
      "outputs": [
        {
          "internalType": "uint256",
          "name": "",
          "type": "uint256"
        }
      ],
      "stateMutability": "view",
      "type": "function"
    },
    {
      "inputs": [
        {
          "internalType": "address",
          "name": "",
          "type": "address"
        }
      ],
      "name": "pools",
      "outputs": [
        {
          "internalType": "address",
          "name": "token",
          "type": "address"
        },
        {
          "internalType": "uint256",
          "name": "totalLiquidity",
          "type": "uint256"
        },
        {
          "internalType": "uint256",
          "name": "borrowedAmount",
          "type": "uint256"
        }
      ],
      "stateMutability": "view",
      "type": "function"
    },
    {
      "inputs": [
        {
          "internalType": "address",
          "name": "",
          "type": "address"
        }
      ],
      "name": "protocolFees",
      "outputs": [
        {
          "internalType": "uint256",
          "name": "",
          "type": "uint256"
        }
      ],
      "stateMutability": "view",
      "type": "function"
    },
    {
      "inputs": [
        {
          "internalType": "uint256",
          "name": "loanId",
          "type": "uint256"
        }
      ],
      "name": "rejectLoanRequest",
      "outputs": [],
      "stateMutability": "nonpayable",
      "type": "function"
    },
    {
      "inputs": [
        {
          "internalType": "address",
          "name": "token",
          "type": "address"
        }
      ],
      "name": "removeLiquidityPool",
      "outputs": [],
      "stateMutability": "nonpayable",
      "type": "function"
    },
    {
      "inputs": [],
      "name": "renounceOwnership",
      "outputs": [],
      "stateMutability": "nonpayable",
      "type": "function"
    },
    {
      "inputs": [
        {
          "internalType": "address",
          "name": "newOwner",
          "type": "address"
        }
      ],
      "name": "transferOwnership",
      "outputs": [],
      "stateMutability": "nonpayable",
      "type": "function"
    },
    {
      "inputs": [
        {
          "internalType": "address",
          "name": "",
          "type": "address"
        }
      ],
      "name": "unpaidDebtLoanCount",
      "outputs": [
        {
          "internalType": "uint256",
          "name": "",
          "type": "uint256"
        }
      ],
      "stateMutability": "view",
      "type": "function"
    },
    {
      "inputs": [
        {
          "internalType": "address",
          "name": "",
          "type": "address"
        }
      ],
      "name": "unpaidDebtLoansPerPool",
      "outputs": [
        {
          "internalType": "uint256",
          "name": "",
          "type": "uint256"
        }
      ],
      "stateMutability": "view",
      "type": "function"
    },
    {
      "inputs": [],
      "name": "unpause",
      "outputs": [],
      "stateMutability": "nonpayable",
      "type": "function"
    },
    {
      "inputs": [
        {
          "internalType": "uint256",
          "name": "newCooldownBlocks",
          "type": "uint256"
        }
      ],
      "name": "updateCooldownBlocks",
      "outputs": [],
      "stateMutability": "nonpayable",
      "type": "function"
    },
    {
      "inputs": [
        {
          "internalType": "uint16",
          "name": "newMinReputation",
          "type": "uint16"
        }
      ],
      "name": "updateMinReputation",
      "outputs": [],
      "stateMutability": "nonpayable",
      "type": "function"
    },
    {
      "inputs": [
        {
          "internalType": "address",
          "name": "token",
          "type": "address"
        },
        {
          "internalType": "uint256",
          "name": "minLoanAmount",
          "type": "uint256"
        },
        {
          "internalType": "uint256",
          "name": "maxLoanAmount",
          "type": "uint256"
        }
      ],
      "name": "updatePoolLoanLimits",
      "outputs": [],
      "stateMutability": "nonpayable",
      "type": "function"
    },
    {
      "inputs": [
        {
          "internalType": "address",
          "name": "token",
          "type": "address"
        },
        {
          "internalType": "uint256",
          "name": "baseRateBps",
          "type": "uint256"
        },
        {
          "internalType": "uint256",
          "name": "optimalUtilizationBps",
          "type": "uint256"
        },
        {
          "internalType": "uint256",
          "name": "slope1Bps",
          "type": "uint256"
        },
        {
          "internalType": "uint256",
          "name": "slope2Bps",
          "type": "uint256"
        },
        {
          "internalType": "uint256",
          "name": "protocolFeeBps",
          "type": "uint256"
        }
      ],
      "name": "updatePoolRateCurve",
      "outputs": [],
      "stateMutability": "nonpayable",
      "type": "function"
    },
    {
      "inputs": [
        {
          "internalType": "uint256",
          "name": "amount",
          "type": "uint256"
        }
      ],
      "name": "withdrawETH",
      "outputs": [],
      "stateMutability": "nonpayable",
      "type": "function"
    },
    {
      "inputs": [
        {
          "internalType": "address",
          "name": "token",
          "type": "address"
        },
        {
          "internalType": "uint256",
          "name": "amount",
          "type": "uint256"
        }
      ],
      "name": "withdrawProtocolFees",
      "outputs": [],
      "stateMutability": "nonpayable",
      "type": "function"
    }
  ],
  "transactionHash": "0xe6f669b485cff9cb410952c25b032828b95739c301f8ed174f7145b56a1ed657",
  "args": [],
  "numDeployments": 1,
  "solcInputHash": "c96a9109365e0e3bbebcdb835e487a40",
  "bytecode": "0x6080806040523461001657613761908161001c8239f35b600080fdfe60a0806040526004908136101561001557600080fd5b600091823560e01c91826309d35c5b14612544575081630baa9ed614612526578163117b0cca146125085781631325a18a146124cf578163145824e3146124965781631a2cbdb3146124725781631a7a73c2146123a15781631cd9d1fd146122af5781632711ce62146122765781632ae94863146121f95781632f1f13a91461217e5781632f28d7e01461214557816334d9289e1461212757816335aacadc14611e7e5781633b929300146119075781633efdc97114611dc95781633f4ba83a14611d6457816344ff241d14611d3b578163462a5a8c14611ccb5781634f9bb9be146108da578163504006ca14611bd65781635646cc2514611b6a578163584435c414611a6b5781635c975abb14611a3b5781636ba9b9c0146119f0578163715018a61461199857816373b96f301461196e57816374c13fda14611945578163773f323d1461190c57816378e94dd2146119075781637e6363f7146118bc5781638456cb591461185457816386a2a438146113425781638da5cb5b1461181e5781638ff32b50146118005781639339ea69146117d957816394ab9eeb146117b557816395ccea671461165957816397ea00301461163c5781639df997e314611603578163a351333a146115c7578163a4063dbc14611572578163ae22107f14611400578163aec247ce146113d2578163af43ea6614611347578163bf00a76914611342578163bf6cde8c14611011578163c30e3cff14610d1c578163c331f6c714610cf0578163cd365ab814610caa578163cddbb14014610c71578163d21bcc9014610bb0578163d616907a14610b92578163d6e5d35d14610b15578163d75b6a7d14610af9578163d79e8fd214610ada578163dcf844a714610478578163e1ec3c68146109a4578163e65149dd1461096b578163e8d6cd8314610930578163eba1022914610913578163ece583dd146108da578163ef7f0ab6146108b8578163f032197114610664578163f14210a6146104b1578163f27dd8ab14610478578163f2fde38b146103ef57508063fac5f506146103565763fe35b4341461031b57600080fd5b34610353576020366003190112610353576020906040906001600160a01b03610342612560565b168152603d83522054604051908152f35b80fd5b5034610353576040366003190112610353576060906040610375612560565b9161037e61257b565b61038661297b565b506001600160a01b039384168252605560209081528383209185168352522060405190916103b382612728565b6001818454169384845201549160ff604060208301928486168452019360a01c1615158352604051938452511660208301525115156040820152f35b9050346104745760203660031901126104745761040a612560565b610412612dbc565b6001600160a01b0390811691821561045c57506000805160206136ac83398151915280546001600160a01b031981168417909155166000805160206136ec8339815191528380a380f35b604051631e4fbdf760e01b8152908101849052602490fd5b5080fd5b8234610353576020366003190112610353576020906040906001600160a01b036104a0612560565b168152603a83522054604051908152f35b905034610474576020806003193601126106605781356104cf612dbc565b600284541461064f57600284556104e4612df5565b838052603a8252604084205481158015610646575b61062157478083116105fd575084808361051582958395612958565b828052603a8752604083205560018060a01b036000805160206136ac8339815191525416807fd3605746397fcbe273096353855da8c40c332aa45d2d97a5e19130a238e9e3bc60408051858152438b820152a25af13d156105f8573d6001600160401b0381116105e55760405190610596601f8201601f1916850183612790565b815284833d92013e5b156105ac57826001815580f35b60405162461bcd60e51b815291820152601360248201527211551217d514905394d1915497d19052531151606a1b604482015260649150fd5b634e487b7160e01b855260418452602485fd5b61059f565b8460649184604051926346f4384b60e01b8452830152600160248301526044820152fd5b6040516346f4384b60e01b815280850192909252600160248301526044820152606490fd5b508082116104f9565b604051633ee5aeb560e01b81528390fd5b8280fd5b9050346104745761067436612591565b91610680949194612dbc565b6001600160a01b039081169283156108a05783835260209160378352806040852054166108885760405163313ce56760e01b815283818881895afa85918161084b575b506106e057604051630f4c971b60e21b8152808801879052602490fd5b60ff90969394961660068110908115610840575b506108285786158015610820575b610803578187101561080357957f0c98febfffcec480c66a977e13f14bafdb5199ea9603591a0715b0cabe0c3ae294959660026040519161074283612728565b8883528683018a815260408401918b83528a8c526037895260408c2094511660018060a01b031985541617845551600184015551910155603c84526040872055603d8352604086205560498252670de0b6b3a76400006040862055604051906107aa82612759565b6104b08252828201611f4081526040830161025881526060840190610fa0825260808501926109c48452888a52604f875260408a209551865551600186015551600285015551600384015551910155604051438152a280f35b604483838960405192630c20bbfb60e01b84528301526024820152fd5b508115610702565b604051630f4c971b60e21b8152808401869052602490fd5b6012915011386106f4565b9091508481813d8311610881575b6108638183612790565b8101031261087d575160ff8116810361087d5790386106c3565b8580fd5b503d610859565b6040516327ce981760e11b8152808701869052602490fd5b604051630f4c971b60e21b8152808601849052602490fd5b8234610353578060031936011261035357602061ffff603e5416604051908152f35b8234610353576020366003190112610353576020906040906001600160a01b03610902612560565b168152603b83522054604051908152f35b823461035357806003193601126103535760206040516113888152f35b8234610353576020366003190112610353576020906040906001600160a01b03610958612560565b1681526053835220541515604051908152f35b8234610353576020366003190112610353576020906040906001600160a01b03610993612560565b168152604a83522054604051908152f35b823461035357602036600319011261035357813581526033602052604090208080549260018201549060028301549060038401549084015460058501546006860154600160a01b6001900360078801541690600888015492600989015494600a8a015496600b8b015498600c8c01549a600d8d01549c600e01549d600f01549e60405160805260805152600160a01b600190038116608051602001526080516040018160a01c60ff1690610a579161267e565b60a81c61ffff16608051606001526080516080015260805160a0015260805160c0015260805160e00152608051610100015260805161012001526080516101400152608051610160015260805161018001526080516101a001526080516101c001526080516101e001526080516102000152608051610220015260805161024090f35b823461035357806003193601126103535760206040516302625a008152f35b8234610353578060031936011261035357602060405160018152f35b905034610474576040366003190112610474579060a0916040610b36612560565b92610b3f61257b565b600180871b03809516825260386020528483832091168252602052208281541692600182015416916002820154906003830154920154926040519485526020850152604084015260608301526080820152f35b82346103535780600319360112610353576020604154604051908152f35b82346103535760203660031901126103535781359161ffff80841680940361066057610bda612dbc565b6103e88411610c5457603e5490811691828514610c3757507fb1e6ffb726a173be86353bc0bdde61e6b3e0630c66b1cc74f580527a36dc659b91848060609361ffff191617603e556040519182526020820152436040820152a180f35b604490838660405192636264a2a560e11b84528301526024820152fd5b509060449260405192636264a2a560e11b84528301526024820152fd5b8234610353576020366003190112610353576020906040906001600160a01b03610c99612560565b168152604d83522054604051908152f35b8234610353576020366003190112610353576040906001600160a01b03610ccf612560565b168152603c602052818082205491603d602052205482519182526020820152f35b8234610353576020366003190112610353576020610d14610d0f612560565b612d86565b604051908152f35b9050346104745760c036600319011261047457610d37612560565b90602490813591604490813560649384359260849081359560a492833598610d5d612dbc565b6001600160a01b039b8c169b8c15908e8e8315610ff9575b505050610fe2576103e88b11610fa857611388938488108015610f9d575b610f57576107d08911610f1e576127108a11610ee557848b11610ea757610dc38a610dbe8b8f6127b3565b6127b3565b948511610e6e578d8d7fa9a8c4e7ff13336d64a22c944b2d3f5ae554c6bfbf7e6c7f7dca2a4e9b31bd9560c08f8f8f8f8f8f60405190610e0282612759565b868252898b602084018581526040850190878252604060608701938a855260808801958c87528152604f60205220955186555160018601555160028501555160038401555191015560405194855260208501526040840152606083015260808201524360a0820152a280f35b6040516306637ff960e41b81529687018d9052606090870152600c908601526b746f74616c4d61785261746560a01b9085015283015290fd5b8a846d70726f746f636f6c46656542707360901b8f600e8a9660608d978a94604051996306637ff960e41b8b528a0152880152860152840152820152fd5b9268736c6f70653242707360b81b879360098f9460608a988f97604051996306637ff960e41b8b528a0152880152860152840152820152fd5b9268736c6f70653142707360b81b879360098f9460608a988e97604051996306637ff960e41b8b528a0152880152860152840152820152fd5b6040516306637ff960e41b81529687018d9052606090870152601590860152746f7074696d616c5574696c697a6174696f6e42707360581b908501528301939093529150fd5b5061251c8811610d93565b8a949650600b9060606a626173655261746542707360a81b94958e604051996306637ff960e41b8b528a0152880152860152840152820152fd5b604051630f4c971b60e21b81528087018d90528490fd5b60409293508152603760205220541615388e8e610d75565b82346103535760208060031936011261047457823561102e612dbc565b611037816130c4565b80835260338252604083206001810180549160ff8360a01c16600681101561132f578061130457506001600160a01b03928084166110748161344d565b6112ed578088526046875260408820546112d7575060ff60a01b1916600160a01b17825543600691909101558480526035845260408086206036865290862081549182156112bf5785885281875260408820548381108015906112a5575b61128d576000199380850190811161127a5780820361124a575b505080548015611237578301906111176111068383612c05565b8154906000199060031b1b19169055565b558487528552856040812055600186526035855260408620603686526040872090858852818752604088205481549087828210918261121c575b50506111fd57600160401b8110156111ea57866111778260016111909401855584612c05565b90919082549060031b91821b91600019901b1916179055565b549182019182116111d757907fd46969caffb05dfe1c69fe3a0ff23384ee3bae048df6bdc0f1dac51e97b62e1c93929185885286526040872055541692604051438152a380f35b634e487b7160e01b875260118852602487fd5b634e487b7160e01b895260418a52602489fd5b604051633392670960e11b8152808b0188905260016024820152604490fd5b61122891925084612c05565b90549060031b1c14878c611151565b634e487b7160e01b895260318a52602489fd5b6112549083612c05565b90549060031b1c611269816111778486612c05565b8952828852604089205589806110ec565b634e487b7160e01b8a5260118b5260248afd5b604051634035962f60e11b8152808b01889052602490fd5b50866112b18284612c05565b90549060031b1c14156110d2565b604051634035962f60e11b8152808a01879052602490fd5b8860249160405191626a7c0560e51b8352820152fd5b8860249160405191630317fcd160e51b8352820152fd5b604080516304b23fc560e11b815260ff909216898301908152600060208201528291010390fd5b0390fd5b634e487b7160e01b875260218852602487fd5b6126a1565b823461035357602080600319360112610474576001600160a01b03918261136c612560565b168152605360205260408120926040519081936020865493848152019584526020842093915b8383106113b9576113b5866113a9818a0382612790565b604051918291826125bb565b0390f35b8454811687529581019560019485019490920191611392565b82346103535760203660031901126103535760206113f66113f1612560565b612d1a565b6040519015158152f35b905034610474576020806003193601126106605761141c612560565b91611425612dbc565b6001600160a01b039283168085526037835260408086209051919490919061144c82612728565b825416908181526040600260018501549487840195865201549101521561155a575161154257828452604d8252604084205415801590611531575b6115195790837f76a8e47ab0e3b34f00f760c065680092fc24ddb2318d4ef01ec57b2b165d2f6d9284825260378352816002604082208281558260018201550155603c8352816040812055603d835281604081205560498352816040812055604a8352816040812055604f8352604082208281558260018201558260028201558260038201550155604051438152a280f35b604051632053027f60e21b8152908101839052602490fd5b50604e825260408420541515611487565b60405163a2fc0c0d60e01b8152908101839052602490fd5b604051630f4c971b60e21b8152808301859052602490fd5b8234610353576020366003190112610353576060906001600160a01b03906040908261159c612560565b1681526037602052209081541690600260018201549101549060405192835260208301526040820152f35b9050346104745760603660031901126104745735906006821015610353576113b56115f760443560243585612c33565b60405191829182612642565b8234610353576020366003190112610353576020906040906001600160a01b0361162b612560565b168152604983522054604051908152f35b823461035357806003193601126103535760206040516103848152f35b90503461047457604036600319011261047457611674612560565b9060243590611681612dbc565b611689613421565b60028454146117a6576002845561169f83612e20565b60018060a01b039283811693848652602092603784528160408820541661178e57604051906370a0823160e01b825230908201528381602481895afa908115611783578791611748575b508480936040959361171f611736947fbb757047c2b5f3974fe26b7c10f732e7bce710b0952a71082702781e62ae059599612e49565b6000805160206136ac833981519152541690612e89565b82519182524390820152a26001815580f35b9492938092915085813d831161177c575b6117638183612790565b810103126117785793519193909291846116e9565b8680fd5b503d611759565b6040513d89823e3d90fd5b604051630f4c971b60e21b8152908101869052602490fd5b604051633ee5aeb560e01b8152fd5b8234610353576020366003190112610353576020610d146117d4612560565b61327d565b8234610353576020366003190112610353576020610d1483356117fb816130c4565b6130ff565b82346103535780600319360112610353576020604354604051908152f35b82346103535780600319360112610353576000805160206136ac833981519152546040516001600160a01b039091168152602090f35b823461035357806003193601126103535761186d612dbc565b611875612df5565b60008051602061370c833981519152600160ff198254161790557f62e78cea01bee320cd4e420270b5ea74000d11b0c9f74754ebdbfc544b05a2586020604051338152a180f35b82346103535760403660031901126103535760406020916118db612560565b6118e361257b565b6001600160a01b039182168352604c85528383209116825283522054604051908152f35b612600565b8234610353576020366003190112610353576020906040906001600160a01b03611934612560565b168152604783522054604051908152f35b82346103535780600319360112610353576044546040516001600160a01b039091168152602090f35b90503461047457602036600319011261047457602091604091358152604583522054604051908152f35b82346103535780600319360112610353576119b1612dbc565b6000805160206136ac83398151915280546001600160a01b0319811690915581906001600160a01b03166000805160206136ec8339815191528280a380f35b8234610353576040366003190112610353576040602091611a0f612560565b611a1761257b565b6001600160a01b039182168352604b85528383209116825283522054604051908152f35b8234610353578060031936011261035357602060ff60008051602061370c83398151915254166040519015158152f35b823461035357602036600319011261035357813591611a88612dbc565b6040548015611b5757806201518004908115611b405762278d0004908085108015611b37575b611b1b575050603f5490818414611afe5750827f87059a8ed101adc7f2b6a86063e4de3b6d69adb2ed64ad9517e4e081e68e06689293603f55611af8604051928392439184612965565b0390a180f35b61132b82859360405194859463206f4e1160e21b86528501612965565b60405163206f4e1160e21b81529485945061132b938501612965565b50818511611aae565b82602491604051916307366d8d60e11b8352820152fd5b634e487b7160e01b835260128252602483fd5b82346103535760403660031901126103535760609060ff6040611b8b612560565b92611b9461257b565b60018060a01b038095168252605560205284838320911682526020522091600181845416930154906040519384528116602084015260a01c1615156040820152f35b823461035357602036600319011261035357610240611bf583356129b3565b6040519080518252602081015160018060a01b038091166020840152611c236040830151604085019061267e565b61ffff60608301511660608401526080820151608084015260a082015160a084015260c082015160c084015260e082015160e08401526101008083015190840152610120908183015116908301526101408082015190830152610160808201519083015261018080820151908301526101a080820151908301526101c080820151908301526101e0808201519083015261020080820151908301526102208091015190820152f35b9050346104745760209060206003193601126106605735600681101561066057611cf49061299a565b9160405180926020855492838152019483526020832092905b828210611d24576113b5856115f781890382612790565b835486529485019460019384019390910190611d0d565b82346103535780600319360112610353576050546040516001600160a01b039091168152602090f35b8234610353578060031936011261035357611d7d612dbc565b611d85613421565b60008051602061370c83398151915260ff1981541690557f5db9ee0a495bf2e6ff9c91a7834c1ba4fdd244a5e8aa4e537bd38aeae4b073aa6020604051338152a180f35b90503461047457602036600319011261047457604060a092611de9612560565b8160808451611df781612759565b82815282602082015282868201528260608201520152600180861b03168152604f6020522060405190611e2982612759565b8054928383526001820154602084019081526080600284015492604086019384526003850154946060870195865201549401938452604051948552516020850152516040840152516060830152516080820152f35b823461035357602080600319360112610474578235611e9b612dbc565b611ea4816130c4565b8083526033825260016040842001805460ff8160a01c16600681101561211457806120ed575060ff60a01b1916600160a21b178155838052603583526040808520603685529085208154929183156120d55784875281865260408720548481108015906120bb575b6112bf57600019948086019081116120a857808203612078575b50508054801561206557840190611f406111068383612c05565b5583865284528460408120558585526035845260408520603685526040862090848752818652604087205481549086828210918261204a575b505061202d57600160401b81101561201a5785611177826001611f9f9401855584612c05565b54908382019182116111d7578487528552604086205560018060a01b0391828254168652604885526040862080549182611ff5575b505050906000805160206136cc83398151915291541692604051438152a380f35b82019182116111d7575593945084936000805160206136cc8339815191528780611fd4565b634e487b7160e01b885260418952602488fd5b6044868a60405191633392670960e11b8352818301526024820152fd5b61205691925084612c05565b90549060031b1c14868b611f79565b634e487b7160e01b885260318952602488fd5b6120829083612c05565b90549060031b1c612097816111778486612c05565b885282875260408820558880611f26565b634e487b7160e01b895260118a52602489fd5b50856120c78284612c05565b90549060031b1c1415611f0c565b604051634035962f60e11b8152808901869052602490fd5b604080516304b23fc560e11b815260ff909216888301908152600060208201528291010390fd5b634e487b7160e01b865260218752602486fd5b82346103535780600319360112610353576020603254604051908152f35b8234610353576020366003190112610353576020906040906001600160a01b0361216d612560565b168152604883522054604051908152f35b823461035357602080600319360112610474576001600160a01b0391826121a3612560565b168152605160205260408120926040519081936020865493848152019584526020842093915b8383106121e0576113b5866113a9818a0382612790565b84548116875295810195600194850194909201916121c9565b8234610353576020366003190112610353576060906040612218612560565b9161222161297b565b506001600160a01b039283168152603760205220604051909161224382612728565b82541691828252604060026001830154926020850193845201549201918252604051928352516020830152516040820152f35b8234610353576020366003190112610353576020906040906001600160a01b0361229e612560565b168152603c83522054604051908152f35b905034610474576122bf36612591565b9091926122ca612dbc565b6001600160a01b0393841693841590811561238a575b50612372578215801561236a575b61234e578183101561234e5750907ff4600fe27d6a8027ed201253f46efeed7ea03b044eca39788df72ff8a9786dff91838552603c602052816040862055603d602052806040862055612348604051928392439184612965565b0390a280f35b9060449260405192630c20bbfb60e01b84528301526024820152fd5b5081156122ee565b604051630f4c971b60e21b8152908101849052602490fd5b9050848652603760205260408620541615386122e0565b905034610474576040366003190112610474576123bc612560565b602435916123c8612dbc565b60028454146117a65750600283556123de612df5565b6123e781612e20565b7f3013b3470b1ced077755181c0ec47848ca5914d714c9efe3138dda554f373736604060018060a01b039361245f8186861696878952603a60205261242f858a205483612e49565b878952603a602052848920612445838254612958565b90556000805160206136ac83398151915254168096612e89565b8151908152436020820152a36001815580f35b8234610353576020366003190112610353576020610d14612491612560565b6127d6565b8234610353576020366003190112610353576020906040906001600160a01b036124be612560565b168152603983522054604051908152f35b8234610353576020366003190112610353576020906040906001600160a01b036124f7612560565b168152604e83522054604051908152f35b82346103535780600319360112610353576020604054604051908152f35b82346103535780600319360112610353576020603f54604051908152f35b8390346104745781600319360112610474576020906042548152f35b600435906001600160a01b038216820361257657565b600080fd5b602435906001600160a01b038216820361257657565b6060906003190112612576576004356001600160a01b038116810361257657906024359060443590565b602090602060408183019282815285518094520193019160005b8281106125e3575050505090565b83516001600160a01b0316855293810193928101926001016125d5565b34612576576020366003190112612576576020610d14600435612622816130c4565b806000526033835261263c600860406000200154916130ff565b906127b3565b602090602060408183019282815285518094520193019160005b82811061266a575050505090565b83518552938101939281019260010161265c565b90600682101561268b5752565b634e487b7160e01b600052602160045260246000fd5b3461257657602080600319360112612576576001600160a01b036126c3612560565b1660005260346020526040600020906040519081602084549182815201936000526020600020916000905b828210612705576113b5856115f781890382612790565b8354865294850194600193840193909101906126ee565b600682101561268b5752565b606081019081106001600160401b0382111761274357604052565b634e487b7160e01b600052604160045260246000fd5b60a081019081106001600160401b0382111761274357604052565b61024081019081106001600160401b0382111761274357604052565b601f909101601f19168101906001600160401b0382119082101761274357604052565b919082018092116127c057565b634e487b7160e01b600052601160045260246000fd5b6001600160a01b03908116600090815260466020526040812054918215612952578282526033602052604082209060405161281081612774565b825481526001830154828116602083015261ffff604083019161283960ff8260a01c168461271c565b60a81c1660608301526002840154608083015260038401549260a08301938452600485015460c0840152600585015460e0840152600685015461010084015260078501541661012083015260088401546101408301526009840154610160830152600a840154916101808101928352610220600f600b870154966101a08401978852600c8101546101c0850152600d8101546101e0850152600e810154610200850152015491015251600681101561293e5760020361292d57519081158015612935575b61292d5782511561291c575050515b431015612917575090565b905090565b612928925051906127b3565b61290c565b505050905090565b508051156128fd565b634e487b7160e01b85526021600452602485fd5b50905090565b919082039182116127c057565b6040919493926060820195825260208201520152565b6040519061298882612728565b60006040838281528260208201520152565b600681101561268b576000526035602052604060002090565b60006102206040516129c481612774565b8281528260208201528260408201528260608201528260808201528260a08201528260c08201528260e08201528261010082015282610120820152826101408201528261016082015282610180820152826101a0820152826101c0820152826101e08201528261020082015201526000526033602052604060002090600f60405192612a4f84612774565b8054845260018101546001600160a01b038116602086015261ffff90612a7f60a082901c60ff166040880161271c565b60a81c16606085015260028101546080850152600381015460a0850152600481015460c0850152600581015460e0850152600681015461010085015260078101546001600160a01b0390811661012086015260088201546101408601526009820154610160860152600a820154610180860152600b8201546101a0860152600c8201546101c0860152600d8201546101e0860152600e820154610200860152910154610220840152602083015183911615612bb75750604082018051600681101561268b576002148015612ba3575b612b555750565b6101a083018051918215612b87575b82151580612b7d575b612b7657505050565b6003905252565b5082431015612b6d565b9150612b9d61018085015160a0860151906127b3565b91612b64565b508051600681101561268b57600314612b4e565b9150565b8115612bc5570490565b634e487b7160e01b600052601260045260246000fd5b818102929181159184041417156127c057565b6001600160401b0381116127435760051b60200190565b8054821015612c1d5760005260206000200190600090565b634e487b7160e01b600052603260045260246000fd5b612c40909392919361299a565b92835491828210801590612d12575b612d0957612c5d90826127b3565b91808311612d01575b50612c718183612958565b612c93612c7d82612bee565b91612c8b6040519384612790565b808352612bee565b60209190601f190136838301378095835b858110612cb357505050505050565b612cbd8183612c05565b91905491612ccb8783612958565b908551821015612cec57600193879160031b1c9160051b8601015201612ca4565b60246000634e487b7160e01b81526032600452fd5b915038612c66565b50606093505050565b508015612c4f565b612d238161344d565b612d80576001600160a01b0316600090815260466020526040812054612d7d576048602052600160408220541015612d7d57604090603960205220548015612d7757603f54612d71916127b3565b43101590565b50600190565b90565b50600090565b6001600160a01b03168015612db55760005260396020526040600020548015612d8057603f54612d7d916127b3565b5060001990565b6000805160206136ac833981519152546001600160a01b03163303612ddd57565b60405163118cdaa760e01b8152336004820152602490fd5b60ff60008051602061370c8339815191525416612e0e57565b60405163d93c066560e01b8152600490fd5b6001600160a01b031615612e3057565b604051630f4c971b60e21b815260006004820152602490fd5b9081158015612e80575b612e5b575050565b60649250604051916346f4384b60e01b83526004830152600160248301526044820152fd5b50808211612e53565b9160018060a01b03809316906040908151936370a0823160e01b94858152600495308783015260209160249883828b818b5afa918215612fed57600092613095575b508651948386521691828986015283858b818b5afa948515612fed57600095613066575b50865163a9059cbb60e01b6000908152848b52878c528590604481808d5af1600160005114811615613046575b818952156130325750865192818452308a85015284848c818c5afa93841561302757600094612ff8575b5087519182528982015283818b818b5afa938415612fed579086939291600095612fb6575b505090612f7791612958565b03612fa25790612f8691612958565b03612f915750505050565b51630391186360e61b815291820152fd5b5050505191630391186360e61b8352820152fd5b80929550819394503d8311612fe6575b612fd08183612790565b81010312612576575191849190612f7738612f6b565b503d612fc6565b87513d6000823e3d90fd5b9093508481813d8311613020575b6130108183612790565b8101031261257657519238612f46565b503d613006565b88513d6000823e3d90fd5b635274afe760e01b81528981018990528a90fd5b600181151661305c57893b15153d151616612f1c565b503d6000823e3d90fd5b9094508381813d831161308e575b61307e8183612790565b8101031261257657519338612eef565b503d613074565b9091508381813d83116130bd575b6130ad8183612790565b8101031261257657519038612ecb565b503d6130a3565b6000818152603360205260409020600101546001600160a01b0316156130e75750565b60249060405190634035962f60e11b82526004820152fd5b600052603360205260406000206040519061311982612774565b8054825260018101546001600160a01b0380821660208501529061ffff9061314b60a082901c60ff166040870161271c565b60a81c166060840152600282015460808401526003820154908160a0850152600483015460c0850152600583015460e085015260068301546101008501526007830154166101208401526008820154916101408401918383526009820154610160860152600a82015480610180870152600b83015490816101a0880152600c8401546101c0880152610220600d850154976101e0810197898952600e87015491600f610200820198848a520154938491015215908115613274575b50801561326c575b6132625761321f94959697506135f4565b91821561325b5761324a612d7d949361324564496cebb800946132539451905190612bdb565b612bdb565b60405490612bdb565b0490516127b3565b5050505190565b5050505050505090565b50801561320e565b90501538613206565b6001600160a01b03908116600081815260376020526040808220815192949093906132a784612728565b8454168352600184015482600260208601968388520154940193845215613416578452604f602052808420908051946132df86612759565b8254865260018301549360208701948552600284015492870192835260046003850154946060890195865201546080880152805193612710948581029080820487149015171561340257875161333491612bbb565b8651908181116133b857505050518381029381850414901517156133a4575061337b9261336b613382969593613375935190612bdb565b9251905190612bdb565b90612bbb565b90516127b3565b61038480821061339c575b50611388808211612917575090565b90503861338d565b634e487b7160e01b81526011600452602490fd5b90919497506133ca9250959495612958565b925184039384116133a45750610dbe926133ee6133fd9695936133f3935190612bdb565b612bbb565b92519051906127b3565b613382565b634e487b7160e01b84526011600452602484fd5b505050505061038490565b60ff60008051602061370c83398151915254161561343b57565b604051638dfc202b60e01b8152600490fd5b6001600160a01b039081166000908152604760205260408120546135ed576046602052604081205480156129525781526033602052604081209160405161349381612774565b835481526001840154828116602083015261ffff60408301916134bc60ff8260a01c168461271c565b60a81c1660608301526002850154608083015260038501549260a08301938452600486015460c0840152600586015460e0840152600686015461010084015260078601541661012083015260088501546101408301526009850154610160830152600a850154916101808101928352610220600f600b880154976101a08401988952600c8101546101c0850152600d8101546101e0850152600e81015461020085015201549101528051600681101561293e576003146135e3575160068110156135cf576002036135c8575191821580156135bf575b6135b857508251156135a75750505143101590565b6135b3925051906127b3565b612d71565b9250505090565b50815115613592565b5050905090565b634e487b7160e01b84526021600452602484fd5b5050505050600190565b5050600190565b919392936136028343612958565b9485156136a15781156136905750905b8115159081613686575b50613633575b50506302625a00808311612bb75750565b604054908115612bc55761364d91630966018004906127b3565b9081431115613622578082111561367d5761366791612958565b808311613675575b80613622565b91503861366f565b50506000613667565b905015153861361c565b61369b9150826127b3565b90613612565b506000945050505056fe9016d09d72d40fdae2fd8ceac6b6234c7706214fd39c1cd1e609a0528c1993003874e5d0e16575040f47821745c058618d0943b6b1b9ea151420c34f987357088be0079c531659141344cd1fd0a4f28419497f9722a3daafe3b4186f6b6457e0cd5ed15c6e187e77e9aee88184c21f4f2182ab5827cb3b7e07fbedcd63f03300a2646970667358221220e58d5018003bceaa4686028b1ffb845ba7dcb06216ec8a4d907271a2adaa7d6e64736f6c63430008180033",
  "devdoc": {
    "details": "This contract is invoked exclusively via delegatecall from UnllooCore's fallback      function. It has no constructor, no initializer, and no fallback of its own.      All storage reads and writes operate on UnllooCore's (proxy's) storage through      the delegatecall context. Modifiers inherited from UnllooStorage (onlyOwner,      nonReentrant, whenPaused, whenNotPaused) work correctly because they read from      the same storage slots.      Storage layout MUST remain identical to UnllooCore. Both contracts inherit only      UnllooStorage, which is the sole mechanism ensuring layout parity.",
    "errors": {
      "EnforcedPause()": [
        {
          "details": "The operation failed because the contract is paused."
        }
      ],
      "ExpectedPause()": [
        {
          "details": "The operation failed because the contract is not paused."
        }
      ],
      "InvalidInitialization()": [
        {
          "details": "The contract is already initialized."
        }
      ],
      "NotInitializing()": [
        {
          "details": "The contract is not initializing."
        }
      ],
      "OwnableInvalidOwner(address)": [
        {
          "details": "The owner is not a valid owner account. (eg. `address(0)`)"
        }
      ],
      "OwnableUnauthorizedAccount(address)": [
        {
          "details": "The caller account is not authorized to perform an operation."
        }
      ],
      "SafeERC20FailedOperation(address)": [
        {
          "details": "An operation with an ERC-20 token failed."
        }
      ]
    },
    "events": {
      "CooldownBlocksUpdated(uint256,uint256,uint256)": {
        "params": {
          "blockNumber": "Block number when update occurred",
          "newCooldownBlocks": "New cooldown in blocks",
          "oldCooldownBlocks": "Previous cooldown in blocks"
        }
      },
      "ETHWithdrawn(address,uint256,uint256)": {
        "details": "ETH is operational only; not part of lending pools",
        "params": {
          "admin": "Address of the admin making withdrawal (indexed)",
          "amount": "Amount of ETH withdrawn in wei",
          "blockNumber": "Block number when withdrawal occurred"
        }
      },
      "EmergencyWithdraw(address,uint256,uint256)": {
        "details": "Only callable by admin in emergency situations",
        "params": {
          "amount": "Amount recovered in token decimals",
          "blockNumber": "Block number when emergency withdrawal occurred",
          "token": "ERC20 token being recovered (indexed)"
        }
      },
      "Initialized(uint64)": {
        "details": "Triggered when the contract has been initialized or reinitialized."
      },
      "InterestRatesUpdated(address,uint256,uint256,uint256,uint256,uint256,uint256)": {
        "params": {
          "baseRateBps": "New base rate in basis points",
          "blockNumber": "Block number when update occurred",
          "optimalUtilizationBps": "New optimal utilization kink point",
          "protocolFeeBps": "New protocol fee in basis points",
          "slope1Bps": "New slope below optimal utilization",
          "slope2Bps": "New slope above optimal utilization",
          "token": "Pool token address (indexed)"
        }
      },
      "LoanRequestApproved(uint256,address,uint256)": {
        "params": {
          "approvalBlock": "Block number when approval occurred",
          "borrower": "Address of the borrower whose loan was approved (indexed)",
          "loanId": "Loan identifier being approved (indexed)"
        }
      },
      "LoanRequestRejected(uint256,address,uint256)": {
        "params": {
          "borrower": "Address of the borrower whose loan was rejected (indexed)",
          "loanId": "Loan identifier being rejected (indexed)",
          "rejectionBlock": "Block number when rejection occurred"
        }
      },
      "MinReputationUpdated(uint16,uint16,uint256)": {
        "params": {
          "blockNumber": "Block number when update occurred",
          "newMinReputation": "New minimum reputation value",
          "oldMinReputation": "Previous minimum reputation value"
        }
      },
      "Paused(address)": {
        "details": "Emitted when the pause is triggered by `account`."
      },
      "PoolAdded(address,uint256)": {
        "params": {
          "blockNumber": "Block number when pool was added",
          "token": "ERC20 token address for the new pool (indexed)"
        }
      },
      "PoolLoanLimitsUpdated(address,uint256,uint256,uint256)": {
        "params": {
          "blockNumber": "Block number when limits were updated",
          "maxLoanAmount": "New maximum loan amount in token decimals",
          "minLoanAmount": "New minimum loan amount in token decimals",
          "token": "ERC20 token address of the pool (indexed)"
        }
      },
      "PoolRemoved(address,uint256)": {
        "params": {
          "blockNumber": "Block number when pool was removed",
          "token": "ERC20 token address of the removed pool (indexed)"
        }
      },
      "ProtocolFeesWithdrawn(address,address,uint256,uint256)": {
        "params": {
          "admin": "Address of the admin making withdrawal (indexed)",
          "amount": "Amount of fees withdrawn",
          "blockNumber": "Block number when withdrawal occurred",
          "token": "ERC20 token being withdrawn (indexed)"
        }
      },
      "Unpaused(address)": {
        "details": "Emitted when the pause is lifted by `account`."
      }
    },
    "kind": "dev",
    "methods": {
      "emergencyWithdraw(address,uint256)": {
        "details": "Safer emergency withdraw: only allows withdrawing tokens NOT configured as a pool token.      For pool tokens, use withdrawProtocolFees()."
      },
      "getLoan(uint256)": {
        "details": "**IMPORTANT: This function performs VIRTUAL STATUS PROJECTION**      The returned loan status may differ from actual storage state."
      },
      "owner()": {
        "details": "Returns the address of the current owner."
      },
      "paused()": {
        "details": "Returns true if the contract is paused, and false otherwise."
      },
      "removeLiquidityPool(address)": {
        "details": "**Warning:** Any accumulated undistributed interest (rounding dust) will be lost      when the pool is removed. This is typically negligible but should be considered.      Ensure all lenders have withdrawn before removing a pool."
      },
      "renounceOwnership()": {
        "details": "Leaves the contract without owner. It will not be possible to call `onlyOwner` functions. Can only be called by the current owner. NOTE: Renouncing ownership will leave the contract without an owner, thereby disabling any functionality that is only available to the owner."
      },
      "transferOwnership(address)": {
        "details": "Transfers ownership of the contract to a new account (`newOwner`). Can only be called by the current owner."
      }
    },
    "title": "UnllooExt",
    "version": 1
  },
  "userdoc": {
    "events": {
      "CooldownBlocksUpdated(uint256,uint256,uint256)": {
        "notice": "Emitted when cooldown period between loan requests is updated"
      },
      "ETHWithdrawn(address,uint256,uint256)": {
        "notice": "Emitted when admin withdraws ETH from the contract"
      },
      "EmergencyWithdraw(address,uint256,uint256)": {
        "notice": "Emitted during emergency token recovery"
      },
      "InterestRatesUpdated(address,uint256,uint256,uint256,uint256,uint256,uint256)": {
        "notice": "Emitted when pool interest rate parameters are updated"
      },
      "LoanRequestApproved(uint256,address,uint256)": {
        "notice": "Emitted when an admin approves a pending loan request"
      },
      "LoanRequestRejected(uint256,address,uint256)": {
        "notice": "Emitted when an admin rejects a pending loan request"
      },
      "MinReputationUpdated(uint16,uint16,uint256)": {
        "notice": "Emitted when minimum reputation threshold is updated"
      },
      "PoolAdded(address,uint256)": {
        "notice": "Emitted when a new liquidity pool is added for a token"
      },
      "PoolLoanLimitsUpdated(address,uint256,uint256,uint256)": {
        "notice": "Emitted when pool loan limits are updated"
      },
      "PoolRemoved(address,uint256)": {
        "notice": "Emitted when a liquidity pool is removed"
      },
      "ProtocolFeesWithdrawn(address,address,uint256,uint256)": {
        "notice": "Emitted when admin withdraws accumulated protocol fees"
      }
    },
    "kind": "user",
    "methods": {
      "addLiquidityPool(address,uint256,uint256)": {
        "notice": "Add a new liquidity pool for a token (admin only)"
      },
      "approveLoanRequest(uint256)": {
        "notice": "Approve a pending loan request (admin only)"
      },
      "borrowerLoans(address)": {
        "notice": "Get all loan IDs for a borrower (alias for getLoansByBorrower)"
      },
      "calculateBorrowRate(address)": {
        "notice": "Calculate current borrow rate for a token pool"
      },
      "canSubmitRequest(address)": {
        "notice": "Check if a user can submit a new loan request"
      },
      "extensionDelegate()": {
        "notice": "Address of the currently active UnllooExt contract.         Core's fallback delegates all unrecognized calls to this address."
      },
      "getAccruedInterest(uint256)": {
        "notice": "Calculate current accrued interest for a loan"
      },
      "getActiveLenderCount(address)": {
        "notice": "Get count of active lenders in a pool"
      },
      "getActiveLoanByBorrower(address)": {
        "notice": "Get the active or unpaid loan ID for a borrower"
      },
      "getCooldownEndBlock(address)": {
        "notice": "Get the block number when cooldown ends for a user"
      },
      "getGuaranteeBond(address,address)": {
        "notice": "Get the guarantee record between a borrower and a specific guarantor"
      },
      "getGuaranteesByGuarantor(address)": {
        "notice": "Get all borrowers backed by a specific guarantor"
      },
      "getGuarantorsForBorrower(address)": {
        "notice": "Get all guarantors backing a specific borrower"
      },
      "getLiquidityPool(address)": {
        "notice": "Get aggregate pool state for a token"
      },
      "getLoan(uint256)": {
        "notice": "Get loan information with virtual status projection"
      },
      "getLoansByBorrower(address)": {
        "notice": "Get all loan IDs for a specific borrower"
      },
      "getLoansByStatus(uint8,uint256,uint256)": {
        "notice": "Get loan IDs filtered by status with pagination"
      },
      "getPoolLoanLimits(address)": {
        "notice": "Get current loan limits for a pool"
      },
      "getPoolRateCurve(address)": {
        "notice": "Get the interest rate curve parameters for a pool"
      },
      "getProtocolFees(address)": {
        "notice": "Get accumulated protocol fees for a token"
      },
      "getRemainingBalance(uint256)": {
        "notice": "Get remaining balance (principal + interest) — alias for getTotalOwed, kept for compatibility"
      },
      "getTotalOwed(uint256)": {
        "notice": "Calculate total amount currently owed on a loan"
      },
      "isGuaranteed(address)": {
        "notice": "Check whether a borrower has at least one active guarantor"
      },
      "loansByStatus(uint8)": {
        "notice": "Get all loan IDs in a given status (unpaginated)"
      },
      "openRequestCount(address)": {
        "notice": "Number of open requests (Pending or Approved) per borrower"
      },
      "pause()": {
        "notice": "Pause all protocol operations (admin only)"
      },
      "rejectLoanRequest(uint256)": {
        "notice": "Reject a pending loan request (admin only)"
      },
      "removeLiquidityPool(address)": {
        "notice": "Remove a liquidity pool (admin only)"
      },
      "unpaidDebtLoanCount(address)": {
        "notice": "Number of loans in UnpaidDebt status per borrower"
      },
      "unpause()": {
        "notice": "Resume protocol operations after pause (admin only)"
      },
      "updateCooldownBlocks(uint256)": {
        "notice": "Update cooldown period between loan requests (admin only)"
      },
      "updateMinReputation(uint16)": {
        "notice": "Update minimum reputation threshold for loan requests (admin only)"
      },
      "updatePoolLoanLimits(address,uint256,uint256)": {
        "notice": "Update loan amount limits for a pool (admin only)"
      },
      "updatePoolRateCurve(address,uint256,uint256,uint256,uint256,uint256)": {
        "notice": "Update interest rate curve parameters for a specific pool (admin only)"
      },
      "withdrawETH(uint256)": {
        "notice": "Withdraw ETH from contract (admin only)"
      },
      "withdrawProtocolFees(address,uint256)": {
        "notice": "Withdraw accumulated protocol fees (admin only)"
      }
    },
    "notice": "Extension contract containing all admin functions and external view functions         for the Unlloo lending protocol.",
    "version": 1
  },
  "storageLayout": {
    "storage": [
      {
        "astId": 8681,
        "contract": "contracts/UnllooExt.sol:UnllooExt",
        "label": "_status",
        "offset": 0,
        "slot": "0",
        "type": "t_uint256"
      },
      {
        "astId": 8725,
        "contract": "contracts/UnllooExt.sol:UnllooExt",
        "label": "__gap",
        "offset": 0,
        "slot": "1",
        "type": "t_array(t_uint256)49_storage"
      },
      {
        "astId": 7546,
        "contract": "contracts/UnllooExt.sol:UnllooExt",
        "label": "loanCounter",
        "offset": 0,
        "slot": "50",
        "type": "t_uint256"
      },
      {
        "astId": 7551,
        "contract": "contracts/UnllooExt.sol:UnllooExt",
        "label": "loans",
        "offset": 0,
        "slot": "51",
        "type": "t_mapping(t_uint256,t_struct(Loan)1401_storage)"
      },
      {
        "astId": 7556,
        "contract": "contracts/UnllooExt.sol:UnllooExt",
        "label": "_borrowerLoans",
        "offset": 0,
        "slot": "52",
        "type": "t_mapping(t_address,t_array(t_uint256)dyn_storage)"
      },
      {
        "astId": 7562,
        "contract": "contracts/UnllooExt.sol:UnllooExt",
        "label": "_loansByStatus",
        "offset": 0,
        "slot": "53",
        "type": "t_mapping(t_enum(LoanStatus)1344,t_array(t_uint256)dyn_storage)"
      },
      {
        "astId": 7569,
        "contract": "contracts/UnllooExt.sol:UnllooExt",
        "label": "_loanStatusIndex",
        "offset": 0,
        "slot": "54",
        "type": "t_mapping(t_enum(LoanStatus)1344,t_mapping(t_uint256,t_uint256))"
      },
      {
        "astId": 7574,
        "contract": "contracts/UnllooExt.sol:UnllooExt",
        "label": "pools",
        "offset": 0,
        "slot": "55",
        "type": "t_mapping(t_address,t_struct(LiquidityPool)1412_storage)"
      },
      {
        "astId": 7581,
        "contract": "contracts/UnllooExt.sol:UnllooExt",
        "label": "lenderPositions",
        "offset": 0,
        "slot": "56",
        "type": "t_mapping(t_address,t_mapping(t_address,t_struct(LenderPosition)1429_storage))"
      },
      {
        "astId": 7585,
        "contract": "contracts/UnllooExt.sol:UnllooExt",
        "label": "lastRequestBlock",
        "offset": 0,
        "slot": "57",
        "type": "t_mapping(t_address,t_uint256)"
      },
      {
        "astId": 7589,
        "contract": "contracts/UnllooExt.sol:UnllooExt",
        "label": "protocolFees",
        "offset": 0,
        "slot": "58",
        "type": "t_mapping(t_address,t_uint256)"
      },
      {
        "astId": 7593,
        "contract": "contracts/UnllooExt.sol:UnllooExt",
        "label": "activeLenderCount",
        "offset": 0,
        "slot": "59",
        "type": "t_mapping(t_address,t_uint256)"
      },
      {
        "astId": 7597,
        "contract": "contracts/UnllooExt.sol:UnllooExt",
        "label": "minLoanAmountPerPool",
        "offset": 0,
        "slot": "60",
        "type": "t_mapping(t_address,t_uint256)"
      },
      {
        "astId": 7601,
        "contract": "contracts/UnllooExt.sol:UnllooExt",
        "label": "maxLoanAmountPerPool",
        "offset": 0,
        "slot": "61",
        "type": "t_mapping(t_address,t_uint256)"
      },
      {
        "astId": 7603,
        "contract": "contracts/UnllooExt.sol:UnllooExt",
        "label": "minReputation",
        "offset": 0,
        "slot": "62",
        "type": "t_uint16"
      },
      {
        "astId": 7605,
        "contract": "contracts/UnllooExt.sol:UnllooExt",
        "label": "cooldownBlocks",
        "offset": 0,
        "slot": "63",
        "type": "t_uint256"
      },
      {
        "astId": 7607,
        "contract": "contracts/UnllooExt.sol:UnllooExt",
        "label": "blockTimeSeconds",
        "offset": 0,
        "slot": "64",
        "type": "t_uint256"
      },
      {
        "astId": 7609,
        "contract": "contracts/UnllooExt.sol:UnllooExt",
        "label": "minLoanDurationBlocks",
        "offset": 0,
        "slot": "65",
        "type": "t_uint256"
      },
      {
        "astId": 7611,
        "contract": "contracts/UnllooExt.sol:UnllooExt",
        "label": "maxLoanDurationBlocks",
        "offset": 0,
        "slot": "66",
        "type": "t_uint256"
      },
      {
        "astId": 7613,
        "contract": "contracts/UnllooExt.sol:UnllooExt",
        "label": "approvedLoanExpiryBlocks",
        "offset": 0,
        "slot": "67",
        "type": "t_uint256"
      },
      {
        "astId": 7615,
        "contract": "contracts/UnllooExt.sol:UnllooExt",
        "label": "defaultToken",
        "offset": 0,
        "slot": "68",
        "type": "t_address"
      },
      {
        "astId": 7619,
        "contract": "contracts/UnllooExt.sol:UnllooExt",
        "label": "loanInitialPrincipal",
        "offset": 0,
        "slot": "69",
        "type": "t_mapping(t_uint256,t_uint256)"
      },
      {
        "astId": 7624,
        "contract": "contracts/UnllooExt.sol:UnllooExt",
        "label": "_activeLoanByBorrower",
        "offset": 0,
        "slot": "70",
        "type": "t_mapping(t_address,t_uint256)"
      },
      {
        "astId": 7629,
        "contract": "contracts/UnllooExt.sol:UnllooExt",
        "label": "unpaidDebtLoanCount",
        "offset": 0,
        "slot": "71",
        "type": "t_mapping(t_address,t_uint256)"
      },
      {
        "astId": 7634,
        "contract": "contracts/UnllooExt.sol:UnllooExt",
        "label": "openRequestCount",
        "offset": 0,
        "slot": "72",
        "type": "t_mapping(t_address,t_uint256)"
      },
      {
        "astId": 7638,
        "contract": "contracts/UnllooExt.sol:UnllooExt",
        "label": "poolSupplyIndex",
        "offset": 0,
        "slot": "73",
        "type": "t_mapping(t_address,t_uint256)"
      },
      {
        "astId": 7642,
        "contract": "contracts/UnllooExt.sol:UnllooExt",
        "label": "poolUndistributedInterest",
        "offset": 0,
        "slot": "74",
        "type": "t_mapping(t_address,t_uint256)"
      },
      {
        "astId": 7648,
        "contract": "contracts/UnllooExt.sol:UnllooExt",
        "label": "lenderSupplyIndex",
        "offset": 0,
        "slot": "75",
        "type": "t_mapping(t_address,t_mapping(t_address,t_uint256))"
      },
      {
        "astId": 7654,
        "contract": "contracts/UnllooExt.sol:UnllooExt",
        "label": "lenderAccruedInterest",
        "offset": 0,
        "slot": "76",
        "type": "t_mapping(t_address,t_mapping(t_address,t_uint256))"
      },
      {
        "astId": 7658,
        "contract": "contracts/UnllooExt.sol:UnllooExt",
        "label": "activeLoansPerPool",
        "offset": 0,
        "slot": "77",
        "type": "t_mapping(t_address,t_uint256)"
      },
      {
        "astId": 7662,
        "contract": "contracts/UnllooExt.sol:UnllooExt",
        "label": "unpaidDebtLoansPerPool",
        "offset": 0,
        "slot": "78",
        "type": "t_mapping(t_address,t_uint256)"
      },
      {
        "astId": 7667,
        "contract": "contracts/UnllooExt.sol:UnllooExt",
        "label": "_poolRateCurve",
        "offset": 0,
        "slot": "79",
        "type": "t_mapping(t_address,t_struct(RateCurveParams)1446_storage)"
      },
      {
        "astId": 7670,
        "contract": "contracts/UnllooExt.sol:UnllooExt",
        "label": "extensionDelegate",
        "offset": 0,
        "slot": "80",
        "type": "t_address"
      },
      {
        "astId": 7676,
        "contract": "contracts/UnllooExt.sol:UnllooExt",
        "label": "_guaranteesByGuarantor",
        "offset": 0,
        "slot": "81",
        "type": "t_mapping(t_address,t_array(t_address)dyn_storage)"
      },
      {
        "astId": 7683,
        "contract": "contracts/UnllooExt.sol:UnllooExt",
        "label": "_guaranteeIndex",
        "offset": 0,
        "slot": "82",
        "type": "t_mapping(t_address,t_mapping(t_address,t_uint256))"
      },
      {
        "astId": 7689,
        "contract": "contracts/UnllooExt.sol:UnllooExt",
        "label": "_guarantorsForBorrower",
        "offset": 0,
        "slot": "83",
        "type": "t_mapping(t_address,t_array(t_address)dyn_storage)"
      },
      {
        "astId": 7696,
        "contract": "contracts/UnllooExt.sol:UnllooExt",
        "label": "_guarantorIndex",
        "offset": 0,
        "slot": "84",
        "type": "t_mapping(t_address,t_mapping(t_address,t_uint256))"
      },
      {
        "astId": 7704,
        "contract": "contracts/UnllooExt.sol:UnllooExt",
        "label": "guaranteeBonds",
        "offset": 0,
        "slot": "85",
        "type": "t_mapping(t_address,t_mapping(t_address,t_struct(GuaranteeBond)2027_storage))"
      },
      {
        "astId": 7709,
        "contract": "contracts/UnllooExt.sol:UnllooExt",
        "label": "__gap",
        "offset": 0,
        "slot": "86",
        "type": "t_array(t_uint256)29_storage"
      }
    ],
    "types": {
      "t_address": {
        "encoding": "inplace",
        "label": "address",
        "numberOfBytes": "20"
      },
      "t_array(t_address)dyn_storage": {
        "base": "t_address",
        "encoding": "dynamic_array",
        "label": "address[]",
        "numberOfBytes": "32"
      },
      "t_array(t_uint256)29_storage": {
        "base": "t_uint256",
        "encoding": "inplace",
        "label": "uint256[29]",
        "numberOfBytes": "928"
      },
      "t_array(t_uint256)49_storage": {
        "base": "t_uint256",
        "encoding": "inplace",
        "label": "uint256[49]",
        "numberOfBytes": "1568"
      },
      "t_array(t_uint256)dyn_storage": {
        "base": "t_uint256",
        "encoding": "dynamic_array",
        "label": "uint256[]",
        "numberOfBytes": "32"
      },
      "t_bool": {
        "encoding": "inplace",
        "label": "bool",
        "numberOfBytes": "1"
      },
      "t_enum(LoanStatus)1344": {
        "encoding": "inplace",
        "label": "enum IUnlloo.LoanStatus",
        "numberOfBytes": "1"
      },
      "t_mapping(t_address,t_array(t_address)dyn_storage)": {
        "encoding": "mapping",
        "key": "t_address",
        "label": "mapping(address => address[])",
        "numberOfBytes": "32",
        "value": "t_array(t_address)dyn_storage"
      },
      "t_mapping(t_address,t_array(t_uint256)dyn_storage)": {
        "encoding": "mapping",
        "key": "t_address",
        "label": "mapping(address => uint256[])",
        "numberOfBytes": "32",
        "value": "t_array(t_uint256)dyn_storage"
      },
      "t_mapping(t_address,t_mapping(t_address,t_struct(GuaranteeBond)2027_storage))": {
        "encoding": "mapping",
        "key": "t_address",
        "label": "mapping(address => mapping(address => struct IUnlloo.GuaranteeBond))",
        "numberOfBytes": "32",
        "value": "t_mapping(t_address,t_struct(GuaranteeBond)2027_storage)"
      },
      "t_mapping(t_address,t_mapping(t_address,t_struct(LenderPosition)1429_storage))": {
        "encoding": "mapping",
        "key": "t_address",
        "label": "mapping(address => mapping(address => struct IUnlloo.LenderPosition))",
        "numberOfBytes": "32",
        "value": "t_mapping(t_address,t_struct(LenderPosition)1429_storage)"
      },
      "t_mapping(t_address,t_mapping(t_address,t_uint256))": {
        "encoding": "mapping",
        "key": "t_address",
        "label": "mapping(address => mapping(address => uint256))",
        "numberOfBytes": "32",
        "value": "t_mapping(t_address,t_uint256)"
      },
      "t_mapping(t_address,t_struct(GuaranteeBond)2027_storage)": {
        "encoding": "mapping",
        "key": "t_address",
        "label": "mapping(address => struct IUnlloo.GuaranteeBond)",
        "numberOfBytes": "32",
        "value": "t_struct(GuaranteeBond)2027_storage"
      },
      "t_mapping(t_address,t_struct(LenderPosition)1429_storage)": {
        "encoding": "mapping",
        "key": "t_address",
        "label": "mapping(address => struct IUnlloo.LenderPosition)",
        "numberOfBytes": "32",
        "value": "t_struct(LenderPosition)1429_storage"
      },
      "t_mapping(t_address,t_struct(LiquidityPool)1412_storage)": {
        "encoding": "mapping",
        "key": "t_address",
        "label": "mapping(address => struct IUnlloo.LiquidityPool)",
        "numberOfBytes": "32",
        "value": "t_struct(LiquidityPool)1412_storage"
      },
      "t_mapping(t_address,t_struct(RateCurveParams)1446_storage)": {
        "encoding": "mapping",
        "key": "t_address",
        "label": "mapping(address => struct IUnlloo.RateCurveParams)",
        "numberOfBytes": "32",
        "value": "t_struct(RateCurveParams)1446_storage"
      },
      "t_mapping(t_address,t_uint256)": {
        "encoding": "mapping",
        "key": "t_address",
        "label": "mapping(address => uint256)",
        "numberOfBytes": "32",
        "value": "t_uint256"
      },
      "t_mapping(t_enum(LoanStatus)1344,t_array(t_uint256)dyn_storage)": {
        "encoding": "mapping",
        "key": "t_enum(LoanStatus)1344",
        "label": "mapping(enum IUnlloo.LoanStatus => uint256[])",
        "numberOfBytes": "32",
        "value": "t_array(t_uint256)dyn_storage"
      },
      "t_mapping(t_enum(LoanStatus)1344,t_mapping(t_uint256,t_uint256))": {
        "encoding": "mapping",
        "key": "t_enum(LoanStatus)1344",
        "label": "mapping(enum IUnlloo.LoanStatus => mapping(uint256 => uint256))",
        "numberOfBytes": "32",
        "value": "t_mapping(t_uint256,t_uint256)"
      },
      "t_mapping(t_uint256,t_struct(Loan)1401_storage)": {
        "encoding": "mapping",
        "key": "t_uint256",
        "label": "mapping(uint256 => struct IUnlloo.Loan)",
        "numberOfBytes": "32",
        "value": "t_struct(Loan)1401_storage"
      },
      "t_mapping(t_uint256,t_uint256)": {
        "encoding": "mapping",
        "key": "t_uint256",
        "label": "mapping(uint256 => uint256)",
        "numberOfBytes": "32",
        "value": "t_uint256"
      },
      "t_struct(GuaranteeBond)2027_storage": {
        "encoding": "inplace",
        "label": "struct IUnlloo.GuaranteeBond",
        "members": [
          {
            "astId": 2022,
            "contract": "contracts/UnllooExt.sol:UnllooExt",
            "label": "guarantor",
            "offset": 0,
            "slot": "0",
            "type": "t_address"
          },
          {
            "astId": 2024,
            "contract": "contracts/UnllooExt.sol:UnllooExt",
            "label": "borrower",
            "offset": 0,
            "slot": "1",
            "type": "t_address"
          },
          {
            "astId": 2026,
            "contract": "contracts/UnllooExt.sol:UnllooExt",
            "label": "active",
            "offset": 20,
            "slot": "1",
            "type": "t_bool"
          }
        ],
        "numberOfBytes": "64"
      },
      "t_struct(LenderPosition)1429_storage": {
        "encoding": "inplace",
        "label": "struct IUnlloo.LenderPosition",
        "members": [
          {
            "astId": 1416,
            "contract": "contracts/UnllooExt.sol:UnllooExt",
            "label": "lender",
            "offset": 0,
            "slot": "0",
            "type": "t_address"
          },
          {
            "astId": 1419,
            "contract": "contracts/UnllooExt.sol:UnllooExt",
            "label": "token",
            "offset": 0,
            "slot": "1",
            "type": "t_address"
          },
          {
            "astId": 1422,
            "contract": "contracts/UnllooExt.sol:UnllooExt",
            "label": "depositedAmount",
            "offset": 0,
            "slot": "2",
            "type": "t_uint256"
          },
          {
            "astId": 1425,
            "contract": "contracts/UnllooExt.sol:UnllooExt",
            "label": "depositBlock",
            "offset": 0,
            "slot": "3",
            "type": "t_uint256"
          },
          {
            "astId": 1428,
            "contract": "contracts/UnllooExt.sol:UnllooExt",
            "label": "lastWithdrawBlock",
            "offset": 0,
            "slot": "4",
            "type": "t_uint256"
          }
        ],
        "numberOfBytes": "160"
      },
      "t_struct(LiquidityPool)1412_storage": {
        "encoding": "inplace",
        "label": "struct IUnlloo.LiquidityPool",
        "members": [
          {
            "astId": 1405,
            "contract": "contracts/UnllooExt.sol:UnllooExt",
            "label": "token",
            "offset": 0,
            "slot": "0",
            "type": "t_address"
          },
          {
            "astId": 1408,
            "contract": "contracts/UnllooExt.sol:UnllooExt",
            "label": "totalLiquidity",
            "offset": 0,
            "slot": "1",
            "type": "t_uint256"
          },
          {
            "astId": 1411,
            "contract": "contracts/UnllooExt.sol:UnllooExt",
            "label": "borrowedAmount",
            "offset": 0,
            "slot": "2",
            "type": "t_uint256"
          }
        ],
        "numberOfBytes": "96"
      },
      "t_struct(Loan)1401_storage": {
        "encoding": "inplace",
        "label": "struct IUnlloo.Loan",
        "members": [
          {
            "astId": 1348,
            "contract": "contracts/UnllooExt.sol:UnllooExt",
            "label": "loanId",
            "offset": 0,
            "slot": "0",
            "type": "t_uint256"
          },
          {
            "astId": 1351,
            "contract": "contracts/UnllooExt.sol:UnllooExt",
            "label": "borrower",
            "offset": 0,
            "slot": "1",
            "type": "t_address"
          },
          {
            "astId": 1355,
            "contract": "contracts/UnllooExt.sol:UnllooExt",
            "label": "status",
            "offset": 20,
            "slot": "1",
            "type": "t_enum(LoanStatus)1344"
          },
          {
            "astId": 1358,
            "contract": "contracts/UnllooExt.sol:UnllooExt",
            "label": "walletReputation",
            "offset": 21,
            "slot": "1",
            "type": "t_uint16"
          },
          {
            "astId": 1361,
            "contract": "contracts/UnllooExt.sol:UnllooExt",
            "label": "loanAmount",
            "offset": 0,
            "slot": "2",
            "type": "t_uint256"
          },
          {
            "astId": 1364,
            "contract": "contracts/UnllooExt.sol:UnllooExt",
            "label": "loanDurationBlocks",
            "offset": 0,
            "slot": "3",
            "type": "t_uint256"
          },
          {
            "astId": 1367,
            "contract": "contracts/UnllooExt.sol:UnllooExt",
            "label": "chainId",
            "offset": 0,
            "slot": "4",
            "type": "t_uint256"
          },
          {
            "astId": 1370,
            "contract": "contracts/UnllooExt.sol:UnllooExt",
            "label": "requestBlock",
            "offset": 0,
            "slot": "5",
            "type": "t_uint256"
          },
          {
            "astId": 1373,
            "contract": "contracts/UnllooExt.sol:UnllooExt",
            "label": "approvalBlock",
            "offset": 0,
            "slot": "6",
            "type": "t_uint256"
          },
          {
            "astId": 1376,
            "contract": "contracts/UnllooExt.sol:UnllooExt",
            "label": "token",
            "offset": 0,
            "slot": "7",
            "type": "t_address"
          },
          {
            "astId": 1379,
            "contract": "contracts/UnllooExt.sol:UnllooExt",
            "label": "principal",
            "offset": 0,
            "slot": "8",
            "type": "t_uint256"
          },
          {
            "astId": 1382,
            "contract": "contracts/UnllooExt.sol:UnllooExt",
            "label": "amountRepaid",
            "offset": 0,
            "slot": "9",
            "type": "t_uint256"
          },
          {
            "astId": 1385,
            "contract": "contracts/UnllooExt.sol:UnllooExt",
            "label": "startBlock",
            "offset": 0,
            "slot": "10",
            "type": "t_uint256"
          },
          {
            "astId": 1388,
            "contract": "contracts/UnllooExt.sol:UnllooExt",
            "label": "deadlineBlock",
            "offset": 0,
            "slot": "11",
            "type": "t_uint256"
          },
          {
            "astId": 1391,
            "contract": "contracts/UnllooExt.sol:UnllooExt",
            "label": "protocolFee",
            "offset": 0,
            "slot": "12",
            "type": "t_uint256"
          },
          {
            "astId": 1394,
            "contract": "contracts/UnllooExt.sol:UnllooExt",
            "label": "interestAccrued",
            "offset": 0,
            "slot": "13",
            "type": "t_uint256"
          },
          {
            "astId": 1397,
            "contract": "contracts/UnllooExt.sol:UnllooExt",
            "label": "borrowRateBps",
            "offset": 0,
            "slot": "14",
            "type": "t_uint256"
          },
          {
            "astId": 1400,
            "contract": "contracts/UnllooExt.sol:UnllooExt",
            "label": "lastAccrualBlock",
            "offset": 0,
            "slot": "15",
            "type": "t_uint256"
          }
        ],
        "numberOfBytes": "512"
      },
      "t_struct(RateCurveParams)1446_storage": {
        "encoding": "inplace",
        "label": "struct IUnlloo.RateCurveParams",
        "members": [
          {
            "astId": 1433,
            "contract": "contracts/UnllooExt.sol:UnllooExt",
            "label": "baseRateBps",
            "offset": 0,
            "slot": "0",
            "type": "t_uint256"
          },
          {
            "astId": 1436,
            "contract": "contracts/UnllooExt.sol:UnllooExt",
            "label": "optimalUtilizationBps",
            "offset": 0,
            "slot": "1",
            "type": "t_uint256"
          },
          {
            "astId": 1439,
            "contract": "contracts/UnllooExt.sol:UnllooExt",
            "label": "slope1Bps",
            "offset": 0,
            "slot": "2",
            "type": "t_uint256"
          },
          {
            "astId": 1442,
            "contract": "contracts/UnllooExt.sol:UnllooExt",
            "label": "slope2Bps",
            "offset": 0,
            "slot": "3",
            "type": "t_uint256"
          },
          {
            "astId": 1445,
            "contract": "contracts/UnllooExt.sol:UnllooExt",
            "label": "protocolFeeBps",
            "offset": 0,
            "slot": "4",
            "type": "t_uint256"
          }
        ],
        "numberOfBytes": "160"
      },
      "t_uint16": {
        "encoding": "inplace",
        "label": "uint16",
        "numberOfBytes": "2"
      },
      "t_uint256": {
        "encoding": "inplace",
        "label": "uint256",
        "numberOfBytes": "32"
      }
    }
  }
}