{
  "address": "0x4786084CE9cda7FD7e64f723884e19564CFfaCf7",
  "abi": [
    {
      "inputs": [],
      "stateMutability": "nonpayable",
      "type": "constructor"
    },
    {
      "inputs": [
        {
          "internalType": "address",
          "name": "token",
          "type": "address"
        }
      ],
      "name": "ActiveLoansUsingPool",
      "type": "error"
    },
    {
      "inputs": [
        {
          "internalType": "uint256",
          "name": "loanId",
          "type": "uint256"
        },
        {
          "internalType": "uint256",
          "name": "approvalBlock",
          "type": "uint256"
        },
        {
          "internalType": "uint256",
          "name": "expiryBlock",
          "type": "uint256"
        }
      ],
      "name": "ApprovedLoanExpired",
      "type": "error"
    },
    {
      "inputs": [
        {
          "internalType": "uint256",
          "name": "loanId",
          "type": "uint256"
        },
        {
          "internalType": "uint256",
          "name": "currentBlock",
          "type": "uint256"
        },
        {
          "internalType": "uint256",
          "name": "expiryBlock",
          "type": "uint256"
        }
      ],
      "name": "ApprovedLoanNotExpired",
      "type": "error"
    },
    {
      "inputs": [
        {
          "internalType": "address",
          "name": "user",
          "type": "address"
        },
        {
          "internalType": "uint256",
          "name": "cooldownEndBlock",
          "type": "uint256"
        }
      ],
      "name": "CooldownNotExpired",
      "type": "error"
    },
    {
      "inputs": [],
      "name": "EnforcedPause",
      "type": "error"
    },
    {
      "inputs": [
        {
          "internalType": "address",
          "name": "user",
          "type": "address"
        }
      ],
      "name": "ExceedsMaxPendingLoans",
      "type": "error"
    },
    {
      "inputs": [],
      "name": "ExpectedPause",
      "type": "error"
    },
    {
      "inputs": [
        {
          "internalType": "address",
          "name": "user",
          "type": "address"
        }
      ],
      "name": "HasActiveLoan",
      "type": "error"
    },
    {
      "inputs": [
        {
          "internalType": "address",
          "name": "user",
          "type": "address"
        }
      ],
      "name": "HasUnpaidDebt",
      "type": "error"
    },
    {
      "inputs": [
        {
          "internalType": "uint256",
          "name": "required",
          "type": "uint256"
        },
        {
          "internalType": "uint256",
          "name": "actual",
          "type": "uint256"
        }
      ],
      "name": "InsufficientAllowance",
      "type": "error"
    },
    {
      "inputs": [
        {
          "internalType": "uint256",
          "name": "requested",
          "type": "uint256"
        },
        {
          "internalType": "uint256",
          "name": "available",
          "type": "uint256"
        }
      ],
      "name": "InsufficientLiquidity",
      "type": "error"
    },
    {
      "inputs": [
        {
          "internalType": "uint256",
          "name": "amount",
          "type": "uint256"
        },
        {
          "internalType": "uint256",
          "name": "min",
          "type": "uint256"
        },
        {
          "internalType": "uint256",
          "name": "max",
          "type": "uint256"
        }
      ],
      "name": "InvalidAmount",
      "type": "error"
    },
    {
      "inputs": [
        {
          "internalType": "uint256",
          "name": "blockTime",
          "type": "uint256"
        }
      ],
      "name": "InvalidBlockTime",
      "type": "error"
    },
    {
      "inputs": [
        {
          "internalType": "address",
          "name": "token",
          "type": "address"
        }
      ],
      "name": "InvalidDefaultToken",
      "type": "error"
    },
    {
      "inputs": [
        {
          "internalType": "uint256",
          "name": "duration",
          "type": "uint256"
        },
        {
          "internalType": "uint256",
          "name": "min",
          "type": "uint256"
        },
        {
          "internalType": "uint256",
          "name": "max",
          "type": "uint256"
        }
      ],
      "name": "InvalidDuration",
      "type": "error"
    },
    {
      "inputs": [],
      "name": "InvalidInitialization",
      "type": "error"
    },
    {
      "inputs": [
        {
          "internalType": "uint8",
          "name": "current",
          "type": "uint8"
        },
        {
          "internalType": "uint8",
          "name": "required",
          "type": "uint8"
        }
      ],
      "name": "InvalidLoanStatus",
      "type": "error"
    },
    {
      "inputs": [
        {
          "internalType": "address",
          "name": "owner",
          "type": "address"
        }
      ],
      "name": "InvalidOwner",
      "type": "error"
    },
    {
      "inputs": [
        {
          "internalType": "address",
          "name": "token",
          "type": "address"
        }
      ],
      "name": "InvalidPool",
      "type": "error"
    },
    {
      "inputs": [
        {
          "internalType": "uint256",
          "name": "minAmount",
          "type": "uint256"
        },
        {
          "internalType": "uint256",
          "name": "maxAmount",
          "type": "uint256"
        }
      ],
      "name": "InvalidPoolLoanLimits",
      "type": "error"
    },
    {
      "inputs": [
        {
          "internalType": "address",
          "name": "token",
          "type": "address"
        },
        {
          "internalType": "string",
          "name": "paramName",
          "type": "string"
        },
        {
          "internalType": "uint256",
          "name": "value",
          "type": "uint256"
        }
      ],
      "name": "InvalidRateCurveParam",
      "type": "error"
    },
    {
      "inputs": [
        {
          "internalType": "uint16",
          "name": "reputation",
          "type": "uint16"
        },
        {
          "internalType": "uint16",
          "name": "min",
          "type": "uint16"
        }
      ],
      "name": "InvalidReputation",
      "type": "error"
    },
    {
      "inputs": [
        {
          "internalType": "uint256",
          "name": "loanId",
          "type": "uint256"
        },
        {
          "internalType": "uint8",
          "name": "status",
          "type": "uint8"
        }
      ],
      "name": "LoanAlreadyInStatus",
      "type": "error"
    },
    {
      "inputs": [
        {
          "internalType": "uint256",
          "name": "loanId",
          "type": "uint256"
        }
      ],
      "name": "LoanNotFound",
      "type": "error"
    },
    {
      "inputs": [
        {
          "internalType": "address",
          "name": "caller",
          "type": "address"
        },
        {
          "internalType": "address",
          "name": "borrower",
          "type": "address"
        }
      ],
      "name": "NotBorrower",
      "type": "error"
    },
    {
      "inputs": [
        {
          "internalType": "uint256",
          "name": "requested",
          "type": "uint256"
        },
        {
          "internalType": "uint256",
          "name": "available",
          "type": "uint256"
        }
      ],
      "name": "NotEnoughCash",
      "type": "error"
    },
    {
      "inputs": [],
      "name": "NotInitializing",
      "type": "error"
    },
    {
      "inputs": [
        {
          "internalType": "address",
          "name": "owner",
          "type": "address"
        }
      ],
      "name": "OwnableInvalidOwner",
      "type": "error"
    },
    {
      "inputs": [
        {
          "internalType": "address",
          "name": "account",
          "type": "address"
        }
      ],
      "name": "OwnableUnauthorizedAccount",
      "type": "error"
    },
    {
      "inputs": [
        {
          "internalType": "address",
          "name": "token",
          "type": "address"
        }
      ],
      "name": "PoolExists",
      "type": "error"
    },
    {
      "inputs": [
        {
          "internalType": "address",
          "name": "token",
          "type": "address"
        }
      ],
      "name": "PoolNotEmpty",
      "type": "error"
    },
    {
      "inputs": [],
      "name": "ReentrancyGuardReentrantCall",
      "type": "error"
    },
    {
      "inputs": [
        {
          "internalType": "address",
          "name": "token",
          "type": "address"
        }
      ],
      "name": "SafeERC20FailedOperation",
      "type": "error"
    },
    {
      "inputs": [
        {
          "internalType": "address",
          "name": "token",
          "type": "address"
        }
      ],
      "name": "UnsupportedTokenTransfer",
      "type": "error"
    },
    {
      "anonymous": false,
      "inputs": [
        {
          "indexed": false,
          "internalType": "uint256",
          "name": "oldCooldownBlocks",
          "type": "uint256"
        },
        {
          "indexed": false,
          "internalType": "uint256",
          "name": "newCooldownBlocks",
          "type": "uint256"
        },
        {
          "indexed": false,
          "internalType": "uint256",
          "name": "blockNumber",
          "type": "uint256"
        }
      ],
      "name": "CooldownBlocksUpdated",
      "type": "event"
    },
    {
      "anonymous": false,
      "inputs": [
        {
          "indexed": true,
          "internalType": "address",
          "name": "sender",
          "type": "address"
        },
        {
          "indexed": false,
          "internalType": "uint256",
          "name": "amount",
          "type": "uint256"
        },
        {
          "indexed": false,
          "internalType": "uint256",
          "name": "blockNumber",
          "type": "uint256"
        }
      ],
      "name": "ETHReceived",
      "type": "event"
    },
    {
      "anonymous": false,
      "inputs": [
        {
          "indexed": true,
          "internalType": "address",
          "name": "admin",
          "type": "address"
        },
        {
          "indexed": false,
          "internalType": "uint256",
          "name": "amount",
          "type": "uint256"
        },
        {
          "indexed": false,
          "internalType": "uint256",
          "name": "blockNumber",
          "type": "uint256"
        }
      ],
      "name": "ETHWithdrawn",
      "type": "event"
    },
    {
      "anonymous": false,
      "inputs": [
        {
          "indexed": true,
          "internalType": "address",
          "name": "token",
          "type": "address"
        },
        {
          "indexed": false,
          "internalType": "uint256",
          "name": "amount",
          "type": "uint256"
        },
        {
          "indexed": false,
          "internalType": "uint256",
          "name": "blockNumber",
          "type": "uint256"
        }
      ],
      "name": "EmergencyWithdraw",
      "type": "event"
    },
    {
      "anonymous": false,
      "inputs": [
        {
          "indexed": false,
          "internalType": "uint64",
          "name": "version",
          "type": "uint64"
        }
      ],
      "name": "Initialized",
      "type": "event"
    },
    {
      "anonymous": false,
      "inputs": [
        {
          "indexed": true,
          "internalType": "address",
          "name": "token",
          "type": "address"
        },
        {
          "indexed": false,
          "internalType": "uint256",
          "name": "baseRateBps",
          "type": "uint256"
        },
        {
          "indexed": false,
          "internalType": "uint256",
          "name": "optimalUtilizationBps",
          "type": "uint256"
        },
        {
          "indexed": false,
          "internalType": "uint256",
          "name": "slope1Bps",
          "type": "uint256"
        },
        {
          "indexed": false,
          "internalType": "uint256",
          "name": "slope2Bps",
          "type": "uint256"
        },
        {
          "indexed": false,
          "internalType": "uint256",
          "name": "protocolFeeBps",
          "type": "uint256"
        },
        {
          "indexed": false,
          "internalType": "uint256",
          "name": "blockNumber",
          "type": "uint256"
        }
      ],
      "name": "InterestRatesUpdated",
      "type": "event"
    },
    {
      "anonymous": false,
      "inputs": [
        {
          "indexed": true,
          "internalType": "address",
          "name": "lender",
          "type": "address"
        },
        {
          "indexed": true,
          "internalType": "address",
          "name": "token",
          "type": "address"
        },
        {
          "indexed": false,
          "internalType": "uint256",
          "name": "amount",
          "type": "uint256"
        },
        {
          "indexed": false,
          "internalType": "uint256",
          "name": "blockNumber",
          "type": "uint256"
        }
      ],
      "name": "LiquidityDeposited",
      "type": "event"
    },
    {
      "anonymous": false,
      "inputs": [
        {
          "indexed": true,
          "internalType": "address",
          "name": "lender",
          "type": "address"
        },
        {
          "indexed": true,
          "internalType": "address",
          "name": "token",
          "type": "address"
        },
        {
          "indexed": false,
          "internalType": "uint256",
          "name": "principalAmount",
          "type": "uint256"
        },
        {
          "indexed": false,
          "internalType": "uint256",
          "name": "interestAmount",
          "type": "uint256"
        },
        {
          "indexed": false,
          "internalType": "uint256",
          "name": "totalAmount",
          "type": "uint256"
        },
        {
          "indexed": false,
          "internalType": "uint256",
          "name": "blockNumber",
          "type": "uint256"
        }
      ],
      "name": "LiquidityWithdrawn",
      "type": "event"
    },
    {
      "anonymous": false,
      "inputs": [
        {
          "indexed": true,
          "internalType": "uint256",
          "name": "loanId",
          "type": "uint256"
        },
        {
          "indexed": true,
          "internalType": "address",
          "name": "borrower",
          "type": "address"
        },
        {
          "indexed": false,
          "internalType": "address",
          "name": "token",
          "type": "address"
        },
        {
          "indexed": false,
          "internalType": "uint256",
          "name": "principal",
          "type": "uint256"
        },
        {
          "indexed": false,
          "internalType": "uint256",
          "name": "initialOwed",
          "type": "uint256"
        },
        {
          "indexed": false,
          "internalType": "uint256",
          "name": "startBlock",
          "type": "uint256"
        }
      ],
      "name": "LoanBorrowed",
      "type": "event"
    },
    {
      "anonymous": false,
      "inputs": [
        {
          "indexed": true,
          "internalType": "uint256",
          "name": "loanId",
          "type": "uint256"
        },
        {
          "indexed": true,
          "internalType": "address",
          "name": "borrower",
          "type": "address"
        },
        {
          "indexed": false,
          "internalType": "uint256",
          "name": "deadlineBlock",
          "type": "uint256"
        },
        {
          "indexed": false,
          "internalType": "uint256",
          "name": "blockNumber",
          "type": "uint256"
        }
      ],
      "name": "LoanMovedToUnpaidDebt",
      "type": "event"
    },
    {
      "anonymous": false,
      "inputs": [
        {
          "indexed": true,
          "internalType": "uint256",
          "name": "loanId",
          "type": "uint256"
        },
        {
          "indexed": true,
          "internalType": "address",
          "name": "borrower",
          "type": "address"
        },
        {
          "indexed": false,
          "internalType": "address",
          "name": "token",
          "type": "address"
        },
        {
          "indexed": false,
          "internalType": "uint256",
          "name": "repaymentAmount",
          "type": "uint256"
        },
        {
          "indexed": false,
          "internalType": "uint256",
          "name": "remainingBalance",
          "type": "uint256"
        },
        {
          "indexed": false,
          "internalType": "uint256",
          "name": "blockNumber",
          "type": "uint256"
        }
      ],
      "name": "LoanRepaid",
      "type": "event"
    },
    {
      "anonymous": false,
      "inputs": [
        {
          "indexed": true,
          "internalType": "uint256",
          "name": "loanId",
          "type": "uint256"
        },
        {
          "indexed": true,
          "internalType": "address",
          "name": "borrower",
          "type": "address"
        },
        {
          "indexed": false,
          "internalType": "uint256",
          "name": "approvalBlock",
          "type": "uint256"
        }
      ],
      "name": "LoanRequestApproved",
      "type": "event"
    },
    {
      "anonymous": false,
      "inputs": [
        {
          "indexed": true,
          "internalType": "uint256",
          "name": "loanId",
          "type": "uint256"
        },
        {
          "indexed": true,
          "internalType": "address",
          "name": "borrower",
          "type": "address"
        },
        {
          "indexed": false,
          "internalType": "uint256",
          "name": "rejectionBlock",
          "type": "uint256"
        }
      ],
      "name": "LoanRequestRejected",
      "type": "event"
    },
    {
      "anonymous": false,
      "inputs": [
        {
          "indexed": true,
          "internalType": "uint256",
          "name": "loanId",
          "type": "uint256"
        },
        {
          "indexed": true,
          "internalType": "address",
          "name": "borrower",
          "type": "address"
        },
        {
          "indexed": false,
          "internalType": "uint16",
          "name": "walletReputation",
          "type": "uint16"
        },
        {
          "indexed": false,
          "internalType": "uint256",
          "name": "loanAmount",
          "type": "uint256"
        },
        {
          "indexed": false,
          "internalType": "uint256",
          "name": "loanDurationBlocks",
          "type": "uint256"
        },
        {
          "indexed": false,
          "internalType": "uint256",
          "name": "blockNumber",
          "type": "uint256"
        }
      ],
      "name": "LoanRequestSubmitted",
      "type": "event"
    },
    {
      "anonymous": false,
      "inputs": [
        {
          "indexed": false,
          "internalType": "uint16",
          "name": "oldMinReputation",
          "type": "uint16"
        },
        {
          "indexed": false,
          "internalType": "uint16",
          "name": "newMinReputation",
          "type": "uint16"
        },
        {
          "indexed": false,
          "internalType": "uint256",
          "name": "blockNumber",
          "type": "uint256"
        }
      ],
      "name": "MinReputationUpdated",
      "type": "event"
    },
    {
      "anonymous": false,
      "inputs": [
        {
          "indexed": true,
          "internalType": "address",
          "name": "previousOwner",
          "type": "address"
        },
        {
          "indexed": true,
          "internalType": "address",
          "name": "newOwner",
          "type": "address"
        }
      ],
      "name": "OwnershipTransferred",
      "type": "event"
    },
    {
      "anonymous": false,
      "inputs": [
        {
          "indexed": false,
          "internalType": "address",
          "name": "account",
          "type": "address"
        }
      ],
      "name": "Paused",
      "type": "event"
    },
    {
      "anonymous": false,
      "inputs": [
        {
          "indexed": true,
          "internalType": "address",
          "name": "token",
          "type": "address"
        },
        {
          "indexed": false,
          "internalType": "uint256",
          "name": "blockNumber",
          "type": "uint256"
        }
      ],
      "name": "PoolAdded",
      "type": "event"
    },
    {
      "anonymous": false,
      "inputs": [
        {
          "indexed": true,
          "internalType": "address",
          "name": "token",
          "type": "address"
        },
        {
          "indexed": false,
          "internalType": "uint256",
          "name": "minLoanAmount",
          "type": "uint256"
        },
        {
          "indexed": false,
          "internalType": "uint256",
          "name": "maxLoanAmount",
          "type": "uint256"
        },
        {
          "indexed": false,
          "internalType": "uint256",
          "name": "blockNumber",
          "type": "uint256"
        }
      ],
      "name": "PoolLoanLimitsUpdated",
      "type": "event"
    },
    {
      "anonymous": false,
      "inputs": [
        {
          "indexed": true,
          "internalType": "address",
          "name": "token",
          "type": "address"
        },
        {
          "indexed": false,
          "internalType": "uint256",
          "name": "blockNumber",
          "type": "uint256"
        }
      ],
      "name": "PoolRemoved",
      "type": "event"
    },
    {
      "anonymous": false,
      "inputs": [
        {
          "indexed": true,
          "internalType": "address",
          "name": "admin",
          "type": "address"
        },
        {
          "indexed": true,
          "internalType": "address",
          "name": "token",
          "type": "address"
        },
        {
          "indexed": false,
          "internalType": "uint256",
          "name": "amount",
          "type": "uint256"
        },
        {
          "indexed": false,
          "internalType": "uint256",
          "name": "blockNumber",
          "type": "uint256"
        }
      ],
      "name": "ProtocolFeesWithdrawn",
      "type": "event"
    },
    {
      "anonymous": false,
      "inputs": [
        {
          "indexed": false,
          "internalType": "address",
          "name": "account",
          "type": "address"
        }
      ],
      "name": "Unpaused",
      "type": "event"
    },
    {
      "inputs": [],
      "name": "MAX_BLOCKS_FOR_INTEREST",
      "outputs": [
        {
          "internalType": "uint256",
          "name": "",
          "type": "uint256"
        }
      ],
      "stateMutability": "view",
      "type": "function"
    },
    {
      "inputs": [],
      "name": "MAX_BORROWER_RATE",
      "outputs": [
        {
          "internalType": "uint256",
          "name": "",
          "type": "uint256"
        }
      ],
      "stateMutability": "view",
      "type": "function"
    },
    {
      "inputs": [],
      "name": "MAX_PENDING_LOANS_PER_USER",
      "outputs": [
        {
          "internalType": "uint256",
          "name": "",
          "type": "uint256"
        }
      ],
      "stateMutability": "view",
      "type": "function"
    },
    {
      "inputs": [],
      "name": "MIN_BORROWER_RATE",
      "outputs": [
        {
          "internalType": "uint256",
          "name": "",
          "type": "uint256"
        }
      ],
      "stateMutability": "view",
      "type": "function"
    },
    {
      "inputs": [
        {
          "internalType": "address",
          "name": "",
          "type": "address"
        }
      ],
      "name": "activeLenderCount",
      "outputs": [
        {
          "internalType": "uint256",
          "name": "",
          "type": "uint256"
        }
      ],
      "stateMutability": "view",
      "type": "function"
    },
    {
      "inputs": [
        {
          "internalType": "address",
          "name": "",
          "type": "address"
        }
      ],
      "name": "activeLoansPerPool",
      "outputs": [
        {
          "internalType": "uint256",
          "name": "",
          "type": "uint256"
        }
      ],
      "stateMutability": "view",
      "type": "function"
    },
    {
      "inputs": [
        {
          "internalType": "address",
          "name": "token",
          "type": "address"
        },
        {
          "internalType": "uint256",
          "name": "minLoanAmount",
          "type": "uint256"
        },
        {
          "internalType": "uint256",
          "name": "maxLoanAmount",
          "type": "uint256"
        }
      ],
      "name": "addLiquidityPool",
      "outputs": [],
      "stateMutability": "nonpayable",
      "type": "function"
    },
    {
      "inputs": [
        {
          "internalType": "uint256",
          "name": "loanId",
          "type": "uint256"
        }
      ],
      "name": "approveLoanRequest",
      "outputs": [],
      "stateMutability": "nonpayable",
      "type": "function"
    },
    {
      "inputs": [],
      "name": "approvedLoanExpiryBlocks",
      "outputs": [
        {
          "internalType": "uint256",
          "name": "",
          "type": "uint256"
        }
      ],
      "stateMutability": "view",
      "type": "function"
    },
    {
      "inputs": [],
      "name": "blockTimeSeconds",
      "outputs": [
        {
          "internalType": "uint256",
          "name": "",
          "type": "uint256"
        }
      ],
      "stateMutability": "view",
      "type": "function"
    },
    {
      "inputs": [
        {
          "internalType": "uint256",
          "name": "loanId",
          "type": "uint256"
        },
        {
          "internalType": "uint256",
          "name": "tokenAmount",
          "type": "uint256"
        }
      ],
      "name": "borrow",
      "outputs": [],
      "stateMutability": "nonpayable",
      "type": "function"
    },
    {
      "inputs": [
        {
          "internalType": "address",
          "name": "borrower",
          "type": "address"
        }
      ],
      "name": "borrowerLoans",
      "outputs": [
        {
          "internalType": "uint256[]",
          "name": "",
          "type": "uint256[]"
        }
      ],
      "stateMutability": "view",
      "type": "function"
    },
    {
      "inputs": [
        {
          "internalType": "address",
          "name": "token",
          "type": "address"
        }
      ],
      "name": "calculateBorrowRate",
      "outputs": [
        {
          "internalType": "uint256",
          "name": "rateBps",
          "type": "uint256"
        }
      ],
      "stateMutability": "view",
      "type": "function"
    },
    {
      "inputs": [
        {
          "internalType": "address",
          "name": "user",
          "type": "address"
        }
      ],
      "name": "canSubmitRequest",
      "outputs": [
        {
          "internalType": "bool",
          "name": "",
          "type": "bool"
        }
      ],
      "stateMutability": "view",
      "type": "function"
    },
    {
      "inputs": [],
      "name": "cooldownBlocks",
      "outputs": [
        {
          "internalType": "uint256",
          "name": "",
          "type": "uint256"
        }
      ],
      "stateMutability": "view",
      "type": "function"
    },
    {
      "inputs": [],
      "name": "defaultToken",
      "outputs": [
        {
          "internalType": "address",
          "name": "",
          "type": "address"
        }
      ],
      "stateMutability": "view",
      "type": "function"
    },
    {
      "inputs": [
        {
          "internalType": "address",
          "name": "token",
          "type": "address"
        },
        {
          "internalType": "uint256",
          "name": "amount",
          "type": "uint256"
        }
      ],
      "name": "depositLiquidity",
      "outputs": [],
      "stateMutability": "nonpayable",
      "type": "function"
    },
    {
      "inputs": [
        {
          "internalType": "address",
          "name": "token",
          "type": "address"
        },
        {
          "internalType": "uint256",
          "name": "amount",
          "type": "uint256"
        }
      ],
      "name": "emergencyWithdraw",
      "outputs": [],
      "stateMutability": "nonpayable",
      "type": "function"
    },
    {
      "inputs": [
        {
          "internalType": "uint256",
          "name": "loanId",
          "type": "uint256"
        }
      ],
      "name": "expireApprovedLoan",
      "outputs": [],
      "stateMutability": "nonpayable",
      "type": "function"
    },
    {
      "inputs": [
        {
          "internalType": "uint256",
          "name": "loanId",
          "type": "uint256"
        }
      ],
      "name": "getAccruedInterest",
      "outputs": [
        {
          "internalType": "uint256",
          "name": "accruedInterest",
          "type": "uint256"
        }
      ],
      "stateMutability": "view",
      "type": "function"
    },
    {
      "inputs": [
        {
          "internalType": "address",
          "name": "token",
          "type": "address"
        }
      ],
      "name": "getActiveLenderCount",
      "outputs": [
        {
          "internalType": "uint256",
          "name": "count",
          "type": "uint256"
        }
      ],
      "stateMutability": "view",
      "type": "function"
    },
    {
      "inputs": [
        {
          "internalType": "address",
          "name": "borrower",
          "type": "address"
        }
      ],
      "name": "getActiveLoanByBorrower",
      "outputs": [
        {
          "internalType": "uint256",
          "name": "loanId",
          "type": "uint256"
        }
      ],
      "stateMutability": "view",
      "type": "function"
    },
    {
      "inputs": [
        {
          "internalType": "uint256",
          "name": "loanId",
          "type": "uint256"
        }
      ],
      "name": "getApprovedLoanAmount",
      "outputs": [
        {
          "internalType": "uint256",
          "name": "approvedAmount",
          "type": "uint256"
        }
      ],
      "stateMutability": "view",
      "type": "function"
    },
    {
      "inputs": [
        {
          "internalType": "address",
          "name": "user",
          "type": "address"
        }
      ],
      "name": "getCooldownEndBlock",
      "outputs": [
        {
          "internalType": "uint256",
          "name": "cooldownEndBlock",
          "type": "uint256"
        }
      ],
      "stateMutability": "view",
      "type": "function"
    },
    {
      "inputs": [
        {
          "internalType": "address",
          "name": "lender",
          "type": "address"
        },
        {
          "internalType": "address",
          "name": "token",
          "type": "address"
        }
      ],
      "name": "getLenderPosition",
      "outputs": [
        {
          "internalType": "uint256",
          "name": "depositedAmount",
          "type": "uint256"
        },
        {
          "internalType": "uint256",
          "name": "accruedInterest",
          "type": "uint256"
        },
        {
          "internalType": "uint256",
          "name": "totalWithdrawable",
          "type": "uint256"
        }
      ],
      "stateMutability": "view",
      "type": "function"
    },
    {
      "inputs": [
        {
          "internalType": "address",
          "name": "token",
          "type": "address"
        }
      ],
      "name": "getLiquidityPool",
      "outputs": [
        {
          "components": [
            {
              "internalType": "address",
              "name": "token",
              "type": "address"
            },
            {
              "internalType": "uint256",
              "name": "totalLiquidity",
              "type": "uint256"
            },
            {
              "internalType": "uint256",
              "name": "borrowedAmount",
              "type": "uint256"
            }
          ],
          "internalType": "struct IUnlloo.LiquidityPool",
          "name": "pool",
          "type": "tuple"
        }
      ],
      "stateMutability": "view",
      "type": "function"
    },
    {
      "inputs": [
        {
          "internalType": "uint256",
          "name": "loanId",
          "type": "uint256"
        }
      ],
      "name": "getLoan",
      "outputs": [
        {
          "components": [
            {
              "internalType": "uint256",
              "name": "loanId",
              "type": "uint256"
            },
            {
              "internalType": "address",
              "name": "borrower",
              "type": "address"
            },
            {
              "internalType": "enum IUnlloo.LoanStatus",
              "name": "status",
              "type": "uint8"
            },
            {
              "internalType": "uint16",
              "name": "walletReputation",
              "type": "uint16"
            },
            {
              "internalType": "uint256",
              "name": "loanAmount",
              "type": "uint256"
            },
            {
              "internalType": "uint256",
              "name": "loanDurationBlocks",
              "type": "uint256"
            },
            {
              "internalType": "uint256",
              "name": "chainId",
              "type": "uint256"
            },
            {
              "internalType": "uint256",
              "name": "requestBlock",
              "type": "uint256"
            },
            {
              "internalType": "uint256",
              "name": "approvalBlock",
              "type": "uint256"
            },
            {
              "internalType": "address",
              "name": "token",
              "type": "address"
            },
            {
              "internalType": "uint256",
              "name": "principal",
              "type": "uint256"
            },
            {
              "internalType": "uint256",
              "name": "amountRepaid",
              "type": "uint256"
            },
            {
              "internalType": "uint256",
              "name": "startBlock",
              "type": "uint256"
            },
            {
              "internalType": "uint256",
              "name": "deadlineBlock",
              "type": "uint256"
            },
            {
              "internalType": "uint256",
              "name": "protocolFee",
              "type": "uint256"
            },
            {
              "internalType": "uint256",
              "name": "interestAccrued",
              "type": "uint256"
            },
            {
              "internalType": "uint256",
              "name": "borrowRateBps",
              "type": "uint256"
            },
            {
              "internalType": "uint256",
              "name": "lastAccrualBlock",
              "type": "uint256"
            }
          ],
          "internalType": "struct IUnlloo.Loan",
          "name": "loan",
          "type": "tuple"
        }
      ],
      "stateMutability": "view",
      "type": "function"
    },
    {
      "inputs": [
        {
          "internalType": "address",
          "name": "borrower",
          "type": "address"
        }
      ],
      "name": "getLoansByBorrower",
      "outputs": [
        {
          "internalType": "uint256[]",
          "name": "",
          "type": "uint256[]"
        }
      ],
      "stateMutability": "view",
      "type": "function"
    },
    {
      "inputs": [
        {
          "internalType": "enum IUnlloo.LoanStatus",
          "name": "status",
          "type": "uint8"
        },
        {
          "internalType": "uint256",
          "name": "offset",
          "type": "uint256"
        },
        {
          "internalType": "uint256",
          "name": "limit",
          "type": "uint256"
        }
      ],
      "name": "getLoansByStatus",
      "outputs": [
        {
          "internalType": "uint256[]",
          "name": "loanIds",
          "type": "uint256[]"
        }
      ],
      "stateMutability": "view",
      "type": "function"
    },
    {
      "inputs": [
        {
          "internalType": "address",
          "name": "token",
          "type": "address"
        }
      ],
      "name": "getPoolLoanLimits",
      "outputs": [
        {
          "internalType": "uint256",
          "name": "minLoanAmount",
          "type": "uint256"
        },
        {
          "internalType": "uint256",
          "name": "maxLoanAmount",
          "type": "uint256"
        }
      ],
      "stateMutability": "view",
      "type": "function"
    },
    {
      "inputs": [
        {
          "internalType": "address",
          "name": "token",
          "type": "address"
        }
      ],
      "name": "getPoolRateCurve",
      "outputs": [
        {
          "components": [
            {
              "internalType": "uint256",
              "name": "baseRateBps",
              "type": "uint256"
            },
            {
              "internalType": "uint256",
              "name": "optimalUtilizationBps",
              "type": "uint256"
            },
            {
              "internalType": "uint256",
              "name": "slope1Bps",
              "type": "uint256"
            },
            {
              "internalType": "uint256",
              "name": "slope2Bps",
              "type": "uint256"
            },
            {
              "internalType": "uint256",
              "name": "protocolFeeBps",
              "type": "uint256"
            }
          ],
          "internalType": "struct IUnlloo.RateCurveParams",
          "name": "",
          "type": "tuple"
        }
      ],
      "stateMutability": "view",
      "type": "function"
    },
    {
      "inputs": [
        {
          "internalType": "address",
          "name": "token",
          "type": "address"
        }
      ],
      "name": "getProtocolFees",
      "outputs": [
        {
          "internalType": "uint256",
          "name": "balance",
          "type": "uint256"
        }
      ],
      "stateMutability": "view",
      "type": "function"
    },
    {
      "inputs": [
        {
          "internalType": "uint256",
          "name": "loanId",
          "type": "uint256"
        }
      ],
      "name": "getRemainingBalance",
      "outputs": [
        {
          "internalType": "uint256",
          "name": "remainingBalance",
          "type": "uint256"
        }
      ],
      "stateMutability": "view",
      "type": "function"
    },
    {
      "inputs": [
        {
          "internalType": "uint256",
          "name": "loanId",
          "type": "uint256"
        }
      ],
      "name": "getTotalOwed",
      "outputs": [
        {
          "internalType": "uint256",
          "name": "totalOwed",
          "type": "uint256"
        }
      ],
      "stateMutability": "view",
      "type": "function"
    },
    {
      "inputs": [
        {
          "internalType": "address",
          "name": "user",
          "type": "address"
        }
      ],
      "name": "hasUnpaidDebt",
      "outputs": [
        {
          "internalType": "bool",
          "name": "",
          "type": "bool"
        }
      ],
      "stateMutability": "view",
      "type": "function"
    },
    {
      "inputs": [
        {
          "internalType": "address",
          "name": "_defaultToken",
          "type": "address"
        },
        {
          "internalType": "uint256",
          "name": "blockTimeSecondsValue",
          "type": "uint256"
        },
        {
          "internalType": "address",
          "name": "initialOwner",
          "type": "address"
        },
        {
          "internalType": "uint256",
          "name": "_defaultMinLoanAmount",
          "type": "uint256"
        },
        {
          "internalType": "uint256",
          "name": "_defaultMaxLoanAmount",
          "type": "uint256"
        }
      ],
      "name": "initialize",
      "outputs": [],
      "stateMutability": "nonpayable",
      "type": "function"
    },
    {
      "inputs": [
        {
          "internalType": "address",
          "name": "",
          "type": "address"
        }
      ],
      "name": "lastRequestBlock",
      "outputs": [
        {
          "internalType": "uint256",
          "name": "",
          "type": "uint256"
        }
      ],
      "stateMutability": "view",
      "type": "function"
    },
    {
      "inputs": [
        {
          "internalType": "address",
          "name": "",
          "type": "address"
        },
        {
          "internalType": "address",
          "name": "",
          "type": "address"
        }
      ],
      "name": "lenderAccruedInterest",
      "outputs": [
        {
          "internalType": "uint256",
          "name": "",
          "type": "uint256"
        }
      ],
      "stateMutability": "view",
      "type": "function"
    },
    {
      "inputs": [
        {
          "internalType": "address",
          "name": "",
          "type": "address"
        },
        {
          "internalType": "address",
          "name": "",
          "type": "address"
        }
      ],
      "name": "lenderPositions",
      "outputs": [
        {
          "internalType": "address",
          "name": "lender",
          "type": "address"
        },
        {
          "internalType": "address",
          "name": "token",
          "type": "address"
        },
        {
          "internalType": "uint256",
          "name": "depositedAmount",
          "type": "uint256"
        },
        {
          "internalType": "uint256",
          "name": "depositBlock",
          "type": "uint256"
        },
        {
          "internalType": "uint256",
          "name": "lastWithdrawBlock",
          "type": "uint256"
        }
      ],
      "stateMutability": "view",
      "type": "function"
    },
    {
      "inputs": [
        {
          "internalType": "address",
          "name": "",
          "type": "address"
        },
        {
          "internalType": "address",
          "name": "",
          "type": "address"
        }
      ],
      "name": "lenderSupplyIndex",
      "outputs": [
        {
          "internalType": "uint256",
          "name": "",
          "type": "uint256"
        }
      ],
      "stateMutability": "view",
      "type": "function"
    },
    {
      "inputs": [],
      "name": "loanCounter",
      "outputs": [
        {
          "internalType": "uint256",
          "name": "",
          "type": "uint256"
        }
      ],
      "stateMutability": "view",
      "type": "function"
    },
    {
      "inputs": [
        {
          "internalType": "uint256",
          "name": "",
          "type": "uint256"
        }
      ],
      "name": "loanInitialPrincipal",
      "outputs": [
        {
          "internalType": "uint256",
          "name": "",
          "type": "uint256"
        }
      ],
      "stateMutability": "view",
      "type": "function"
    },
    {
      "inputs": [
        {
          "internalType": "uint256",
          "name": "",
          "type": "uint256"
        }
      ],
      "name": "loans",
      "outputs": [
        {
          "internalType": "uint256",
          "name": "loanId",
          "type": "uint256"
        },
        {
          "internalType": "address",
          "name": "borrower",
          "type": "address"
        },
        {
          "internalType": "enum IUnlloo.LoanStatus",
          "name": "status",
          "type": "uint8"
        },
        {
          "internalType": "uint16",
          "name": "walletReputation",
          "type": "uint16"
        },
        {
          "internalType": "uint256",
          "name": "loanAmount",
          "type": "uint256"
        },
        {
          "internalType": "uint256",
          "name": "loanDurationBlocks",
          "type": "uint256"
        },
        {
          "internalType": "uint256",
          "name": "chainId",
          "type": "uint256"
        },
        {
          "internalType": "uint256",
          "name": "requestBlock",
          "type": "uint256"
        },
        {
          "internalType": "uint256",
          "name": "approvalBlock",
          "type": "uint256"
        },
        {
          "internalType": "address",
          "name": "token",
          "type": "address"
        },
        {
          "internalType": "uint256",
          "name": "principal",
          "type": "uint256"
        },
        {
          "internalType": "uint256",
          "name": "amountRepaid",
          "type": "uint256"
        },
        {
          "internalType": "uint256",
          "name": "startBlock",
          "type": "uint256"
        },
        {
          "internalType": "uint256",
          "name": "deadlineBlock",
          "type": "uint256"
        },
        {
          "internalType": "uint256",
          "name": "protocolFee",
          "type": "uint256"
        },
        {
          "internalType": "uint256",
          "name": "interestAccrued",
          "type": "uint256"
        },
        {
          "internalType": "uint256",
          "name": "borrowRateBps",
          "type": "uint256"
        },
        {
          "internalType": "uint256",
          "name": "lastAccrualBlock",
          "type": "uint256"
        }
      ],
      "stateMutability": "view",
      "type": "function"
    },
    {
      "inputs": [
        {
          "internalType": "enum IUnlloo.LoanStatus",
          "name": "status",
          "type": "uint8"
        }
      ],
      "name": "loansByStatus",
      "outputs": [
        {
          "internalType": "uint256[]",
          "name": "",
          "type": "uint256[]"
        }
      ],
      "stateMutability": "view",
      "type": "function"
    },
    {
      "inputs": [
        {
          "internalType": "uint256",
          "name": "loanId",
          "type": "uint256"
        }
      ],
      "name": "markLoanOverdue",
      "outputs": [],
      "stateMutability": "nonpayable",
      "type": "function"
    },
    {
      "inputs": [
        {
          "internalType": "address",
          "name": "",
          "type": "address"
        }
      ],
      "name": "maxLoanAmountPerPool",
      "outputs": [
        {
          "internalType": "uint256",
          "name": "",
          "type": "uint256"
        }
      ],
      "stateMutability": "view",
      "type": "function"
    },
    {
      "inputs": [],
      "name": "maxLoanDurationBlocks",
      "outputs": [
        {
          "internalType": "uint256",
          "name": "",
          "type": "uint256"
        }
      ],
      "stateMutability": "view",
      "type": "function"
    },
    {
      "inputs": [
        {
          "internalType": "address",
          "name": "",
          "type": "address"
        }
      ],
      "name": "minLoanAmountPerPool",
      "outputs": [
        {
          "internalType": "uint256",
          "name": "",
          "type": "uint256"
        }
      ],
      "stateMutability": "view",
      "type": "function"
    },
    {
      "inputs": [],
      "name": "minLoanDurationBlocks",
      "outputs": [
        {
          "internalType": "uint256",
          "name": "",
          "type": "uint256"
        }
      ],
      "stateMutability": "view",
      "type": "function"
    },
    {
      "inputs": [],
      "name": "minReputation",
      "outputs": [
        {
          "internalType": "uint16",
          "name": "",
          "type": "uint16"
        }
      ],
      "stateMutability": "view",
      "type": "function"
    },
    {
      "inputs": [
        {
          "internalType": "address",
          "name": "",
          "type": "address"
        }
      ],
      "name": "openRequestCount",
      "outputs": [
        {
          "internalType": "uint256",
          "name": "",
          "type": "uint256"
        }
      ],
      "stateMutability": "view",
      "type": "function"
    },
    {
      "inputs": [],
      "name": "owner",
      "outputs": [
        {
          "internalType": "address",
          "name": "",
          "type": "address"
        }
      ],
      "stateMutability": "view",
      "type": "function"
    },
    {
      "inputs": [],
      "name": "pause",
      "outputs": [],
      "stateMutability": "nonpayable",
      "type": "function"
    },
    {
      "inputs": [],
      "name": "paused",
      "outputs": [
        {
          "internalType": "bool",
          "name": "",
          "type": "bool"
        }
      ],
      "stateMutability": "view",
      "type": "function"
    },
    {
      "inputs": [
        {
          "internalType": "address",
          "name": "",
          "type": "address"
        }
      ],
      "name": "poolSupplyIndex",
      "outputs": [
        {
          "internalType": "uint256",
          "name": "",
          "type": "uint256"
        }
      ],
      "stateMutability": "view",
      "type": "function"
    },
    {
      "inputs": [
        {
          "internalType": "address",
          "name": "",
          "type": "address"
        }
      ],
      "name": "poolUndistributedInterest",
      "outputs": [
        {
          "internalType": "uint256",
          "name": "",
          "type": "uint256"
        }
      ],
      "stateMutability": "view",
      "type": "function"
    },
    {
      "inputs": [
        {
          "internalType": "address",
          "name": "",
          "type": "address"
        }
      ],
      "name": "pools",
      "outputs": [
        {
          "internalType": "address",
          "name": "token",
          "type": "address"
        },
        {
          "internalType": "uint256",
          "name": "totalLiquidity",
          "type": "uint256"
        },
        {
          "internalType": "uint256",
          "name": "borrowedAmount",
          "type": "uint256"
        }
      ],
      "stateMutability": "view",
      "type": "function"
    },
    {
      "inputs": [
        {
          "internalType": "address",
          "name": "",
          "type": "address"
        }
      ],
      "name": "protocolFees",
      "outputs": [
        {
          "internalType": "uint256",
          "name": "",
          "type": "uint256"
        }
      ],
      "stateMutability": "view",
      "type": "function"
    },
    {
      "inputs": [
        {
          "internalType": "uint256",
          "name": "loanId",
          "type": "uint256"
        }
      ],
      "name": "rejectLoanRequest",
      "outputs": [],
      "stateMutability": "nonpayable",
      "type": "function"
    },
    {
      "inputs": [
        {
          "internalType": "address",
          "name": "token",
          "type": "address"
        }
      ],
      "name": "removeLiquidityPool",
      "outputs": [],
      "stateMutability": "nonpayable",
      "type": "function"
    },
    {
      "inputs": [],
      "name": "renounceOwnership",
      "outputs": [],
      "stateMutability": "nonpayable",
      "type": "function"
    },
    {
      "inputs": [
        {
          "internalType": "uint256",
          "name": "loanId",
          "type": "uint256"
        },
        {
          "internalType": "uint256",
          "name": "amount",
          "type": "uint256"
        }
      ],
      "name": "repay",
      "outputs": [],
      "stateMutability": "nonpayable",
      "type": "function"
    },
    {
      "inputs": [
        {
          "internalType": "uint16",
          "name": "walletReputation",
          "type": "uint16"
        },
        {
          "internalType": "address",
          "name": "token",
          "type": "address"
        },
        {
          "internalType": "uint256",
          "name": "loanAmount",
          "type": "uint256"
        },
        {
          "internalType": "uint256",
          "name": "loanDurationBlocks",
          "type": "uint256"
        }
      ],
      "name": "submitLoanRequest",
      "outputs": [
        {
          "internalType": "uint256",
          "name": "loanId",
          "type": "uint256"
        }
      ],
      "stateMutability": "nonpayable",
      "type": "function"
    },
    {
      "inputs": [
        {
          "internalType": "address",
          "name": "newOwner",
          "type": "address"
        }
      ],
      "name": "transferOwnership",
      "outputs": [],
      "stateMutability": "nonpayable",
      "type": "function"
    },
    {
      "inputs": [
        {
          "internalType": "address",
          "name": "",
          "type": "address"
        }
      ],
      "name": "unpaidDebtLoanCount",
      "outputs": [
        {
          "internalType": "uint256",
          "name": "",
          "type": "uint256"
        }
      ],
      "stateMutability": "view",
      "type": "function"
    },
    {
      "inputs": [
        {
          "internalType": "address",
          "name": "",
          "type": "address"
        }
      ],
      "name": "unpaidDebtLoansPerPool",
      "outputs": [
        {
          "internalType": "uint256",
          "name": "",
          "type": "uint256"
        }
      ],
      "stateMutability": "view",
      "type": "function"
    },
    {
      "inputs": [],
      "name": "unpause",
      "outputs": [],
      "stateMutability": "nonpayable",
      "type": "function"
    },
    {
      "inputs": [
        {
          "internalType": "uint256",
          "name": "newCooldownBlocks",
          "type": "uint256"
        }
      ],
      "name": "updateCooldownBlocks",
      "outputs": [],
      "stateMutability": "nonpayable",
      "type": "function"
    },
    {
      "inputs": [
        {
          "internalType": "uint16",
          "name": "newMinReputation",
          "type": "uint16"
        }
      ],
      "name": "updateMinReputation",
      "outputs": [],
      "stateMutability": "nonpayable",
      "type": "function"
    },
    {
      "inputs": [
        {
          "internalType": "address",
          "name": "token",
          "type": "address"
        },
        {
          "internalType": "uint256",
          "name": "minLoanAmount",
          "type": "uint256"
        },
        {
          "internalType": "uint256",
          "name": "maxLoanAmount",
          "type": "uint256"
        }
      ],
      "name": "updatePoolLoanLimits",
      "outputs": [],
      "stateMutability": "nonpayable",
      "type": "function"
    },
    {
      "inputs": [
        {
          "internalType": "address",
          "name": "token",
          "type": "address"
        },
        {
          "internalType": "uint256",
          "name": "baseRateBps",
          "type": "uint256"
        },
        {
          "internalType": "uint256",
          "name": "optimalUtilizationBps",
          "type": "uint256"
        },
        {
          "internalType": "uint256",
          "name": "slope1Bps",
          "type": "uint256"
        },
        {
          "internalType": "uint256",
          "name": "slope2Bps",
          "type": "uint256"
        },
        {
          "internalType": "uint256",
          "name": "protocolFeeBps",
          "type": "uint256"
        }
      ],
      "name": "updatePoolRateCurve",
      "outputs": [],
      "stateMutability": "nonpayable",
      "type": "function"
    },
    {
      "inputs": [
        {
          "internalType": "uint256",
          "name": "amount",
          "type": "uint256"
        }
      ],
      "name": "withdrawETH",
      "outputs": [],
      "stateMutability": "nonpayable",
      "type": "function"
    },
    {
      "inputs": [
        {
          "internalType": "address",
          "name": "token",
          "type": "address"
        },
        {
          "internalType": "uint256",
          "name": "amount",
          "type": "uint256"
        }
      ],
      "name": "withdrawLiquidity",
      "outputs": [],
      "stateMutability": "nonpayable",
      "type": "function"
    },
    {
      "inputs": [
        {
          "internalType": "address",
          "name": "token",
          "type": "address"
        },
        {
          "internalType": "uint256",
          "name": "amount",
          "type": "uint256"
        }
      ],
      "name": "withdrawProtocolFees",
      "outputs": [],
      "stateMutability": "nonpayable",
      "type": "function"
    },
    {
      "stateMutability": "payable",
      "type": "receive"
    }
  ],
  "transactionHash": "0xc96f770538eda1d4d9f8d9229554bb747718763e4bb9beb30995bad5aaaedc5b",
  "args": [],
  "numDeployments": 1,
  "solcInputHash": "6f97d26eec288e75bdd82424f2fa7251",
  "bytecode": "0x60808060405234620000bd577ff0c57e16840df040f15088dc2f81fe391c3923bec73e23a9662efc9c229c6a009081549060ff8260401c16620000ae57506001600160401b036002600160401b03198282160162000068575b604051615dde9081620000c38239f35b6001600160401b031990911681179091556040519081527fc7f505b2f371ae2175ee4913f4499e1f2633a7b5936321eed1cdaeb6115181d290602090a138808062000058565b63f92ee8a960e01b8152600490fd5b600080fdfe60a060405260043610156100c2575b361561001957600080fd5b610021614c92565b600060028154146100b05760028155341561008757808060019252603a602052604081206100503482546140cf565b90556040513481524360208201527f7dd768b8b37911c0bb413d9cf56fcb57b286f5def4c57d475c8abdd6737b7e1e60403392a255005b6040516346f4384b60e01b81526004810191909152600160248201526000196044820152606490fd5b604051633ee5aeb560e01b8152600490fd5b60003560e01c806306d47de914613b3557806309d35c5b14613b175780630baa9ed614613af95780630ecbcdab146135ed578063117b0cca146135cf5780631325a18a14613595578063145824e31461355b5780631a2cbdb3146135385780631a7a73c2146134645780631cd9d1fd1461338a5780632542e3f81461303a5780632711ce62146130005780632ae9486314612f735780632f28d7e014612f3957806334d9289e14612f1b57806335aacadc14612e3d57806339b41b4a14612c0b5780633b929300146120955780633efdc97114612b515780633f4ba83a14612aed578063462a5a8c14612a7b5780634f9bb9be14610814578063504006ca14612986578063584435c4146128825780635c975abb1461285257806361d663f3146122e25780636ba9b9c014612291578063712a73501461219a578063715018a61461214257806373b96f301461211657806374c13fda146120ed578063773f323d146120b357806378e94dd2146120955780637e6363f7146120445780638456cb5914611fdd57806386a2a438146118945780638a51b1ee14611fbf5780638da5cb5b14611f895780638ff32b5014611f6b5780639262198e14611f485780639339ea6914611ef157806394ab9eeb14611ece57806395ccea6714611d8357806397ea003014611d665780639df997e314611d2c578063a351333a14611cef578063a4063dbc14611c9b578063aa67609514611a82578063ae22107f14611906578063aec247ce146118d9578063bee7dd0b14611899578063bf00a76914611894578063bf6cde8c146115cd578063c30e3cff146112de578063c331f6c7146112b3578063cd365ab81461126c578063cddbb14014611232578063d21bcc9014611170578063d616907a14611152578063d6e5d35d146110d3578063d75b6a7d146110b7578063d79e8fd214611098578063d8aed145146109dc578063dcf844a71461045f578063e1ec3c68146108a5578063e65149dd1461086b578063eba102291461084e578063ece583dd14610814578063ef7f0ab6146107f2578063f032197114610640578063f14210a614610499578063f27dd8ab1461045f578063f2fde38b146104345763fe35b4340361000e573461042f57602036600319011261042f576001600160a01b03610416613f40565b16600052603d6020526020604060002054604051908152f35b600080fd5b3461042f57602036600319011261042f5761045d610450613f40565b6104586152e1565b614c30565b005b3461042f57602036600319011261042f576001600160a01b03610480613f40565b16600052603a6020526020604060002054604051908152f35b3461042f5760208060031936011261042f576004356104b66152e1565b6002600054146100b05760026000556104cd614c92565b60008052603a825260406000205481158015610637575b61061257478083116105ed57506000808361050182958395614097565b828052603a8752604083205560018060a01b03600080516020615ca98339815191525416807fd3605746397fcbe273096353855da8c40c332aa45d2d97a5e19130a238e9e3bc60408051858152438b820152a25af13d156105e8573d6001600160401b0381116105d25760405190610582601f8201601f191685018361412e565b81526000833d92013e5b15610598576001600055005b6064906040519062461bcd60e51b82526004820152601360248201527211551217d514905394d1915497d19052531151606a1b6044820152fd5b634e487b7160e01b600052604160045260246000fd5b61058c565b82606491604051916346f4384b60e01b83526004830152600160248301526044820152fd5b60649250604051916346f4384b60e01b83526004830152600160248301526044820152fd5b508082116104e4565b3461042f5761064e36613f82565b916106576152e1565b6001600160a01b03928184169283156107d957836000526020926037845285604060002054166107c05761068a90615345565b801580156107b8575b61079b578181101561079b577f0c98febfffcec480c66a977e13f14bafdb5199ea9603591a0715b0cabe0c3ae293946002604051916106d1836140dc565b878352858301600081526040840191600083528960005260378852604060002094511660018060a01b031985541617845551600184015551910155603c8352604060002055603d825260406000205560498152670de0b6b3a764000060406000205560405161073f816140f7565b6104b081526004828201611f4081526040830161025881526060840190610fa0825260808501926109c4845288600052604f875260406000209551865551600186015551600285015551600384015551910155604051438152a2005b60449160405191630c20bbfb60e01b835260048301526024820152fd5b508115610693565b6040516327ce981760e11b815260048101869052602490fd5b604051630f4c971b60e21b815260006004820152602490fd5b3461042f57600036600319011261042f57602061ffff603e5416604051908152f35b3461042f57602036600319011261042f576001600160a01b03610835613f40565b16600052603b6020526020604060002054604051908152f35b3461042f57600036600319011261042f5760206040516113888152f35b3461042f57602036600319011261042f576001600160a01b0361088c613f40565b16600052604a6020526020604060002054604051908152f35b3461042f57602036600319011261042f576004356000526033602052604060002080549080600181015460028201546003830154600484015460058501546006860154600160a01b6001900360078801541690600888015492600989015494600a8a015496600b8b015498600c8c01549a600d8d01549c600e01549d600f01549e60405160805260805152600160a01b600190038116608051602001526080516040018160a01c60ff169061095991613fe8565b60a81c61ffff16608051606001526080516080015260805160a0015260805160c0015260805160e00152608051610100015260805161012001526080516101400152608051610160015260805161018001526080516101a001526080516101c001526080516101e001526080516102000152608051610220015260805161024090f35b3461042f576109ea36613f6c565b906002600054146100b0576002600055806000526020906033825260018060a01b0391600193838560406000200154161561107f578260005260338252838560406000200154168033036110615750826000526033825260406000209385850160ff815460a01c169060068210159182610e6e57600281141580611052575b6110305784156110085760078801928484541680158015610ff1575b610fd95750600a89015415610fb4575050610a9f8661588d565b610aa98787615924565b600d87018054976008810195610ac08a88546140cf565b908115610f8f57600992919081811115610f875750995b808b1115610f7f57925b610aeb848c614097565b93610afd8c89895416309033906153f6565b80610ee8575b505001610b118982546140cf565b905580610e8c575b50610b2f610b26876159ac565b945494856140cf565b931580610e84575b610b6c575b50600080516020615d898339815191529350541690610b646040519283923397439285614198565b0390a3600055005b805460ff60a01b198116600560a01b17825560a081901c60ff16916006831015610e6e57846003841492838094610e56575b610e30575b5090541660005260468652604060002087815414610e26575b50825484169060028303610dec5750600052604d8552604060002080549081610dd8575b50505b610bec8161417f565b906000526036855260406000208154918215610dbf5787600052818752604060002054838110801590610da5575b610d8c5760001993808501908111610cda57808203610d41575b505080548015610d2b57830190610c5f610c4e83836145b0565b8154906000199060031b1b19169055565b55866000528552600060408120556005600052603585526040600020603686526040600020908760005281875260406000205488825482109182610d10575b5050610cf057610cae88826145de565b54918201918211610cda57600080516020615d8983398151915295876000525260406000205587610b3c565b634e487b7160e01b600052601160045260246000fd5b604051633392670960e11b81526004810189905260056024820152604490fd5b610d1c919250836145b0565b90549060031b1c14888c610c9e565b634e487b7160e01b600052603160045260246000fd5b610d4b90836145b0565b90549060031b1c610d7981610d6084866145b0565b90919082549060031b91821b91600019901b1916179055565b6000528288526040600020558a80610c34565b604051634035962f60e11b8152600481018a9052602490fd5b5088610db182846145b0565b90549060031b1c1415610c1a565b604051634035962f60e11b815260048101899052602490fd5b6000198201918211610cda57558880610be0565b610df7575b50610be3565b600052604e8552604060002080549081610e12575b50610df1565b6000198201918211610cda57558880610e0c565b6000905589610bbc565b166000526047875260406000209081546000198101908111610cda57869255908b610ba3565b50818116600052604789526040600020541515610b9e565b634e487b7160e01b600052602160045260246000fd5b508315610b37565b8454808211610ee0575b81610ea091614097565b855583835416600052603786526002604060002001908154808211600014610ecf575050600090555b88610b19565b90610ed991614097565b9055610ec9565b905080610e96565b610f4a888854169182600052604f8c52612710610f0d600460406000200154836140a4565b04610f188183614097565b93600052603a8d526040600020610f308282546140cf565b9055610f41600c87019182546140cf565b90558354614097565b825580610f6c575b505415610f61575b8b80610b03565b43600f820155610f5a565b610f799088885416615bd3565b8c610f52565b508992610ae1565b905099610ad7565b6064908c604051916346f4384b60e01b83526004830152602482015260006044820152fd5b610e6e576040516304b23fc560e11b8152908190610fd5906004830161416b565b0390fd5b60249060405190630f4c971b60e21b82526004820152fd5b508060005260378852856040600020541615610a85565b6040516346f4384b60e01b815260048101869052602481018a90526000196044820152606490fd5b82610e6e576040516304b23fc560e11b8152908190610fd5906004830161416b565b50600092506003811415610a69565b604051635a18bb9d60e01b8152908190610fd5903360048401614151565b604051634035962f60e11b815260048101849052602490fd5b3461042f57600036600319011261042f5760206040516302625a008152f35b3461042f57600036600319011261042f57602060405160018152f35b3461042f57604036600319011261042f5760a06110ee613f40565b6110f6613f56565b600180841b03809216600052603860205281604060002091166000526020526040600020818154169160018201541690600281015460046003830154920154926040519485526020850152604084015260608301526080820152f35b3461042f57600036600319011261042f576020604154604051908152f35b3461042f57602036600319011261042f57611189613ff5565b6111916152e1565b61ffff808216906103e8821161121257603e54908116928383146111f3577fb1e6ffb726a173be86353bc0bdde61e6b3e0630c66b1cc74f580527a36dc659b60608585808661ffff191617603e556040519182526020820152436040820152a1005b604051636264a2a560e11b8152908190610fd59086906004840161459b565b604051636264a2a560e11b81526004810183905260006024820152604490fd5b3461042f57602036600319011261042f576001600160a01b03611253613f40565b16600052604d6020526020604060002054604051908152f35b3461042f57602036600319011261042f576001600160a01b0361128d613f40565b16600052603c60205260408060002054603d602052816000205482519182526020820152f35b3461042f57602036600319011261042f5760206112d66112d1613f40565b614bfa565b604051908152f35b3461042f5760c036600319011261042f576112f7613f40565b6024803590604480359160649283359160849081359460a49283359761131b6152e1565b6001600160a01b039a8b169a8b159081156115b4575b5061159c576103e88a1161156257611388938487108015611557575b611512576107d088116114d95761271089116114a057848a116114625761137d896113788a8e6140cf565b6140cf565b948511611427578b7fa9a8c4e7ff13336d64a22c944b2d3f5ae554c6bfbf7e6c7f7dca2a4e9b31bd9560c08d8d8d8d8d6040516113b9816140f7565b85815260046020820183815260408301858152606084019087825260808501928984528d600052604f6020526040600020955186555160018601555160028501555160038401555191015560405194855260208501526040840152606083015260808201524360a0820152a2005b91600c6b746f74616c4d61785261746560a01b9260608e979695604051986306637ff960e41b8a5260048a0152880152860152840152820152fd5b926d70726f746f636f6c46656542707360901b8c93600e8c9460608a98604051986306637ff960e41b8a5260048a0152880152860152840152820152fd5b9268736c6f70653242707360b81b8c9360098b9460608a98604051986306637ff960e41b8a5260048a0152880152860152840152820152fd5b9268736c6f70653142707360b81b8c9360098a9460608a98604051986306637ff960e41b8a5260048a0152880152860152840152820152fd5b92746f7074696d616c5574696c697a6174696f6e42707360581b8c936015899460608a98604051986306637ff960e41b8a5260048a0152880152860152840152820152fd5b5061251c871161134d565b899291600b6a626173655261746542707360a81b9260608e97604051986306637ff960e41b8a5260048a0152880152860152840152820152fd5b604051630f4c971b60e21b8152600481018c90528490fd5b90508b600052603760205260406000205416158c611331565b3461042f5760208060031936011261042f576004356115ea6152e1565b60008181526033835260409020600101546001600160a01b039081161561187b5781600052603383526040600020906001820191825460ff8160a01c166006811015610e6e5780611857575082811661164281614772565b61183f578060005260468752604060002054611828575060ff60a01b1916600160a01b1783554360069190910155600080805260358552604080822060368752912081549391841561180f57856000528187526040600020548581108015906117f5575b6117dc5760001995808701908111610cda578082036117aa575b505080548015610d2b578501906116da610c4e83836145b0565b558460005285526000604081205560016000526035855260406000209260368652604060002093856000528487526040600020548682548210918261178f575b505061176f5761172a86826145de565b54908101908111610cda577fd46969caffb05dfe1c69fe3a0ff23384ee3bae048df6bdc0f1dac51e97b62e1c93856000528652604060002055541692604051438152a3005b604051633392670960e11b81526004810187905260016024820152604490fd5b61179b919250836145b0565b90549060031b1c14868961171a565b6117b490836145b0565b90549060031b1c6117c981610d6084866145b0565b60005282885260406000205587806116c0565b604051634035962f60e11b815260048101889052602490fd5b508661180182846145b0565b90549060031b1c14156116a6565b604051634035962f60e11b815260048101879052602490fd5b60249060405190626a7c0560e51b82526004820152fd5b60249060405190630317fcd160e51b82526004820152fd5b6040516304b23fc560e11b815260ff91909116600482015260006024820152604490fd5b604051634035962f60e11b815260048101839052602490fd5b614006565b3461042f57604036600319011261042f576118d56118c66118b8613f40565b6118c0613f56565b90614a7b565b60409391935193849384614081565b0390f35b3461042f57602036600319011261042f5760206118fc6118f7613f40565b614a18565b6040519015158152f35b3461042f5760208060031936011261042f57611920613f40565b906119296152e1565b60018060a01b038092169182600052603782526040600020906040519061194f826140dc565b8254169081815260406002600185015494868401958652015491015215611a695751611a505781600052604d815260406000205415801590611a3e575b611a25577f76a8e47ab0e3b34f00f760c065680092fc24ddb2318d4ef01ec57b2b165d2f6d90826000526037815260006002604082208281558260018201550155603c815260006040812055603d8152600060408120556049815260006040812055604a815260006040812055604f815260006004604082208281558260018201558260028201558260038201550155604051438152a2005b604051632053027f60e21b815260048101839052602490fd5b50604e8152604060002054151561198c565b60405163a2fc0c0d60e01b815260048101839052602490fd5b604051630f4c971b60e21b815260048101849052602490fd5b3461042f5760208060031936011261042f57600435611a9f6152e1565b60008181526033835260409020600101546001600160a01b039081161561187b578160005260338352604060002090600182019182549060ff8260a01c166006811015610e6e5760018103611c77575060060154604354611aff916140cf565b80431115611c58575060ff60a01b1916600160a21b1782556001600090815260358552604080822060368752912081549391841561180f5785600052818752604060002054858110801590611c3e575b6117dc5760001995808701908111610cda57808203611c0c575b505080548015610d2b57850190611b83610c4e83836145b0565b5584600052855260006040812055600460005260358552611bb284604060002060368852604060002090615261565b818154166000526048855260406000209283549081611beb575b5050600080516020615ce98339815191529250541692604051438152a3005b8101908111610cda57600080516020615ce983398151915293558580611bcc565b611c1690836145b0565b90549060031b1c611c2b81610d6084866145b0565b6000528288526040600020558780611b69565b5086611c4a82846145b0565b90549060031b1c1415611b4f565b604051635eeafa7560e01b8152908190610fd590438860048501614081565b6040516304b23fc560e11b815260ff91909116600482015260016024820152604490fd5b3461042f57602036600319011261042f5760606001600160a01b0380611cbf613f40565b16600052603760205260406000209081541690600260018201549101549060405192835260208301526040820152f35b3461042f57606036600319011261042f57600435600681101561042f57611d206118d5916044359060243590614931565b60405191829182613fac565b3461042f57602036600319011261042f576001600160a01b03611d4d613f40565b1660005260496020526020604060002054604051908152f35b3461042f57600036600319011261042f5760206040516103848152f35b3461042f57604036600319011261042f57611d9c613f40565b602435611da76152e1565b611daf615861565b6002600054146100b0576002600055611dc78261531a565b60018060a01b038083169283600052602091603783528060406000205416611eb5576040516370a0823160e01b81523060048201528381602481895afa908115611ea957600091611e72575b5084809360409593611e49611e60947fbb757047c2b5f3974fe26b7c10f732e7bce710b0952a71082702781e62ae05959961532a565b600080516020615ca9833981519152541690614e87565b82519182524390820152a26001600055005b9492938092915085813d8311611ea2575b611e8d818361412e565b8101031261042f579351919390929184611e13565b503d611e83565b6040513d6000823e3d90fd5b604051630f4c971b60e21b815260048101869052602490fd5b3461042f57602036600319011261042f5760206112d6611eec613f40565b6150c2565b3461042f57602036600319011261042f576004356000818152603360205260409020600101546001600160a01b031615611f30576112d66020916159ac565b60249060405190634035962f60e11b82526004820152fd5b3461042f57602036600319011261042f5760206118fc611f66613f40565b614772565b3461042f57600036600319011261042f576020604354604051908152f35b3461042f57600036600319011261042f57600080516020615ca9833981519152546040516001600160a01b039091168152602090f35b3461042f57602036600319011261042f5760206112d6600435614603565b3461042f57600036600319011261042f57611ff66152e1565b611ffe614c92565b600080516020615d49833981519152600160ff198254161790557f62e78cea01bee320cd4e420270b5ea74000d11b0c9f74754ebdbfc544b05a2586020604051338152a1005b3461042f57604036600319011261042f5761205d613f40565b612065613f56565b9060018060a01b03809116600052604c602052604060002091166000526020526020604060002054604051908152f35b3461042f57602036600319011261042f5760206112d660043561434a565b3461042f57602036600319011261042f576001600160a01b036120d4613f40565b1660005260476020526020604060002054604051908152f35b3461042f57600036600319011261042f576044546040516001600160a01b039091168152602090f35b3461042f57602036600319011261042f5760043560005260456020526020604060002054604051908152f35b3461042f57600036600319011261042f5761215b6152e1565b600080516020615ca983398151915280546001600160a01b031981169091556000906001600160a01b0316600080516020615d298339815191528280a3005b3461042f57602036600319011261042f576004356000818152603360205260409020600101546001600160a01b031615611f3057806000526033602052604060002060ff600182015460a01c166006811015610e6e576002810361226857600a8201549081158015612285575b6122685750600b8201549081156122525750905b81431061222b5761045d92615563565b60405163206f4e1160e21b8152436004820152602481018390526000196044820152606490fd5b61226291506003830154906140cf565b9061221b565b6040516304b23fc560e11b8152908190610fd5906004830161416b565b50600383015415612207565b3461042f57604036600319011261042f576122aa613f40565b6122b2613f56565b9060018060a01b03809116600052604b602052604060002091166000526020526020604060002054604051908152f35b3461042f57608036600319011261042f576122fb613ff5565b612303613f56565b61230b614c92565b61ffff9182603e541680848316108015612845575b61282857506001600160a01b038216158015612806575b6127e55760018060a01b038216600052603c602052604060002054603d60205260406000205490801580156127dd575b61079b57806044351080156127d2575b6127b3575050604154806064351080156127a6575b612783575061239a33614772565b61276b57336000526048602052600160406000205410156127535733600052604660205260406000205461273c573360005260396020526040600020548061270a575b50603254916000198314610cda5760018301603255604051906123ff82614112565b600184018252336020830152600060408301528483166060830152604435608083015260643560a08301524660c08301524360e0830152600061010083015260018060a01b031661012082015260006101408201526000610160820152600061018082015260006101a082015260006101c082015260006101e0820152600061020082015260006102208201526001830160005260336020526040600020908051825560018060a01b036020820151166001830154916040810151926006841015610e6e57600f936102209361ffff60a81b606085015160a81b169260018060b81b031916179060ff60a01b9060a01b16171760018501556080810151600285015560a0810151600385015560c0810151600485015560e0810151600585015561010081015160068501556007840160018060a01b036101208301511660018060a01b031982541617905561014081015160088501556101608101516009850155610180810151600a8501556101a0810151600b8501556101c0810151600c8501556101e0810151600d850155610200810151600e85015501519101553360005260346020526125b66001830160406000206145de565b6001820160009081527f4cb2b152c1b54ce671907a93c300fd5aa72383a9d4ec19a81e3333632ae92e0060208190526040909120547f842397100357c7bc9e13c9e286c8970fd4253dcc8e63c78c74e0f9bb8b96fef48054909190811090816126ed575b506126cb5761262c60018501826145de565b54600019810191908211610cda5760018401600052602052604060002055336000526048602052604060002092835460018101809111610cda57602094553360005260398452436040600020556040519116815260443583820152606435604082015243606082015233907ffbfd93420bf0e27d0da646a83d21cf86e47e36ddf95c2fc700b4426c93679a4160806001850192a3600160405191018152f35b604051633392670960e11b815260018501600482015260006024820152604490fd5b6126f89150826145b0565b6001860191549060031b1c148661261a565b603f54612716916140cf565b804310156123dd5760449060405190630dac64f960e01b82523360048301526024820152fd5b604051626a7c0560e51b8152336004820152602490fd5b60405163352637d960e11b8152336004820152602490fd5b604051630317fcd160e51b8152336004820152602490fd5b60425460405163206f4e1160e21b8152918291610fd59160643560048501614081565b506042546064351161238c565b610fd56040519283926346f4384b60e01b845260443560048501614081565b508160443511612377565b508115612367565b604051630f4c971b60e21b81526001600160a01b0383166004820152602490fd5b506001600160a01b038281166000908152603760205260409020541615612337565b604051636264a2a560e11b8152918291610fd5916004840161459b565b506103e884831611612320565b3461042f57600036600319011261042f57602060ff600080516020615d4983398151915254166040519015158152f35b3461042f57602036600319011261042f5760043561289e6152e1565b60405490811561297057816201518004918215612958576128be906140b7565b828210801561294f575b6129325750603f54908181146129155790817f87059a8ed101adc7f2b6a86063e4de3b6d69adb2ed64ad9517e4e081e68e066892603f55612910604051928392439184614081565b0390a1005b610fd58260405193849363206f4e1160e21b855260048501614081565b610fd59060405193849363206f4e1160e21b855260048501614081565b508082116128c8565b602490604051906307366d8d60e11b82526004820152fd5b634e487b7160e01b600052601260045260246000fd5b3461042f57602036600319011261042f576102406129a5600435614392565b6040519080518252602081015160018060a01b0380911660208401526129d360408301516040850190613fe8565b61ffff60608301511660608401526080820151608084015260a082015160a084015260c082015160c084015260e082015160e08401526101008083015190840152610120908183015116908301526101408082015190830152610160808201519083015261018080820151908301526101a080820151908301526101c080820151908301526101e0808201519083015261020080820151908301526102208091015190820152f35b3461042f5760208060031936011261042f57600435600681101561042f57612aa29061417f565b906040519081602084549182815201936000526020600020916000905b828210612ad6576118d585611d208189038261412e565b835486529485019460019384019390910190612abf565b3461042f57600036600319011261042f57612b066152e1565b612b0e615861565b600080516020615d4983398151915260ff1981541690557f5db9ee0a495bf2e6ff9c91a7834c1ba4fdd244a5e8aa4e537bd38aeae4b073aa6020604051338152a1005b3461042f57602036600319011261042f57612b6a613f40565b60006080604051612b7a816140f7565b828152826020820152826040820152826060820152015260018060a01b0316600052604f60205260a06040600020604051612bb4816140f7565b81549182825260018101546020830190815260028201549060408401918252608060046003850154946060870195865201549401938452604051948552516020850152516040840152516060830152516080820152f35b3461042f57604036600319011261042f57612c24613f40565b602435612c2f614c92565b6002600054146100b05760026000556001600160a01b03828116929083158015612e25575b612e0c578215612de457604051636eb1769f60e11b815260209290838180612c80303360048401614151565b0381895afa908115611ea957600091612db7575b50848110612d99575080612ca88592614cbd565b612cb28133614d73565b33600052603884526040600020866000528452604060002092835490811615612d49575b506002612d119301612ce98382546140cf565b905585600052603784526001604060002001612d068382546140cf565b9055309033906153f6565b60405191825243908201527f44504979f82d498dad8a0687fc02e140be70b1b4ab3b9e23c6ffc1d04410194a60403392a36001600055005b6001600160a01b03199081163317845560018481018054909216881790915543600385018190556004850155603b8552604060002080549182019350908310610cda579190915583906002612cd6565b846044916040519163054365bb60e31b835260048301526024820152fd5b90508381813d8311612ddd575b612dce818361412e565b8101031261042f575186612c94565b503d612dc4565b6040516346f4384b60e01b815260048101849052600160248201526000196044820152606490fd5b604051630f4c971b60e21b815260048101859052602490fd5b50836000526037602052806040600020541615612c54565b3461042f5760208060031936011261042f57600435612e5a6152e1565b60008181526033835260409020600101546001600160a01b039081161561187b578160005260338352600160406000200190815460ff8160a01c166006811015610e6e5780611857575060ff60a01b1916600160a21b178255600080805260358552604080822060368752912081549391841561180f5785600052818752604060002054858110801590611c3e576117dc5760001995808701908111610cda57808203611c0c57505080548015610d2b57850190611b83610c4e83836145b0565b3461042f57600036600319011261042f576020603254604051908152f35b3461042f57602036600319011261042f576001600160a01b03612f5a613f40565b1660005260486020526020604060002054604051908152f35b3461042f57602036600319011261042f576060612f8e613f40565b600060408051612f9d816140dc565b828152826020820152015260018060a01b03809116600052603760205260406000209060405190612fcd826140dc565b82541691828252604060026001830154926020850193845201549201918252604051928352516020830152516040820152f35b3461042f57602036600319011261042f576001600160a01b03613021613f40565b16600052603c6020526020604060002054604051908152f35b3461042f5760a036600319011261042f57613053613f40565b6001600160a01b0390602480359190604435848116919082810361042f5760643560843590600080516020615d698339815191529788549660ff8860401c16159660018060401b03891698891580613383575b6001809b149081613379575b159081613370575b5061335e576001600160401b031981168a178c5588613343575b50801561332c57508181169485156133145789158015613308575b6132f057831580156132e8575b6132cb57848410156132cb57906131206131579261311861597d565b61045861597d565b61312861597d565b61313061597d565b61313861597d565b8860005560018060a01b031999868b6044541617604455604055615345565b600260405191613166836140dc565b8583526020998a840190600082526040850192600084528860005260378d52604060002095511690855416178455518984015551910155603c8752604060002055603d865260406000205560498552670de0b6b3a76400006040600020556004604051916131d3836140f7565b6104b08352868301611f4081526040840161025881526060850191610fa0835260808601936109c48552600052604f8a5260406000209551865551888601555160028501555160038401555191015560c861ffff19603e541617603e5560405480156132b6578062015180049182156132a0575061325d908260415580624f1a00046042556140b7565b604355603f5561326957005b825460ff60401b19169092556040519182527fc7f505b2f371ae2175ee4913f4499e1f2633a7b5936321eed1cdaeb6115181d291a1005b90604051906307366d8d60e11b82526004820152fd5b50634e487b7160e01b60009081526012600452fd5b604484868960405192630c20bbfb60e01b84526004840152820152fd5b5084156130fc565b6040516307366d8d60e11b8152600481018b90528790fd5b50620151808a116130ef565b6040516349cc54b160e01b8152600060048201528790fd5b86906040519063b20f76e360e01b82526004820152fd5b6001600160481b0319166001600160401b01178b558b6130d4565b60405163f92ee8a960e01b8152600490fd5b9050158d6130ba565b303b1591506130b2565b50886130a6565b3461042f5761339836613f82565b6133a06152e1565b6001600160a01b0392831692831590811561344b575b50611a695781158015613443575b613425578082101561342557907ff4600fe27d6a8027ed201253f46efeed7ea03b044eca39788df72ff8a9786dff9183600052603c60205281604060002055603d60205280604060002055613420604051928392439184614081565b0390a2005b6044925060405191630c20bbfb60e01b835260048301526024820152fd5b5080156133c4565b90508360005260376020526040600020541615846133b6565b3461042f57604036600319011261042f5761347d613f40565b602435906134896152e1565b6002600054146100b05760026000556134a0614c92565b6134a98161531a565b7f3013b3470b1ced077755181c0ec47848ca5914d714c9efe3138dda554f373736604060018060a01b0393613525818686169687600052603a6020526134f385600020548361532a565b87600052603a6020528460002061350b838254614097565b9055600080516020615ca983398151915254168096614e87565b8151908152436020820152a36001600055005b3461042f57602036600319011261042f5760206112d6613556613f40565b6141c8565b3461042f57602036600319011261042f576001600160a01b0361357c613f40565b1660005260396020526020604060002054604051908152f35b3461042f57602036600319011261042f576001600160a01b036135b6613f40565b16600052604e6020526020604060002054604051908152f35b3461042f57600036600319011261042f576020604054604051908152f35b3461042f576135fb36613f6c565b90613604614c92565b6002600054146100b05760026000908155818152603360205260409020600101546001600160a01b031615611f30576000818152603360205260409020600101546001600160a01b0316338190036110615750806000526033602052604060002060ff600182015460a01c166006811015610e6e5760018103611c7757508215612de4576006810154613699604354826140cf565b804311613adb57505033600052604660205260406000205461273c5760078101546001600160a01b031680158015613abc575b610fd9576136d983614603565b808511613a97575080600052603760205260406000209160028301546001840154808211613a77579061370b91614097565b808611613a59575060038101546302625a00808211613a3457505061372f826150c2565b9284600052604560205285604060002055600160a11b60ff60a01b196001840154161760018301558560088301556000600983015543600a8301556137786003830154436140cf565b600b8301556000600c8301819055600d8301819055600e830185905543600f8401556001905260366020527f8e3caac72b6c5bb0462da38c8c8c3b5fbc00a646bd75367c23c11d594c4e36c980547fc082cfcdc2bfeeffb970c9772df3384f481b69fbc495624ec92a9254cc4b32f091908015610dbf57876000528260205260406000205490808210801590613a1a575b610d8c576000198101908111610cda578082036139e7575b505080548015610d2b57600019019061383d610c4e83836145b0565b55600086815260209182526040808220829055600080516020615cc983398151915292839052902054600080516020615d0983398151915280549091908110908890826139cc575b50506139ac5761389587826145de565b54600019810191908211610cda57600087815260209182526040808220939093556001850180546001600160a01b039081168352604684528483208a9055905416815260489091522080549081613998575b505060026138f887828401546140cf565b91015581600052604d602052604060002080549060018201809211610cda5761396b61397b9360036139627ffaf3c82b21530880e3e8d2616dc465f196567de6cd001c0b5f54cbc313d432049864496cebb80096613974965561395c8c338b614e87565b8b6140a4565b910154906140a4565b604054906140a4565b04856140cf565b61398e6040519283923397439285614198565b0390a36001600055005b6000198201918211610cda575586806138e7565b604051633392670960e11b81526004810188905260026024820152604490fd5b6139d8919250836145b0565b90549060031b1c14878a613885565b6139f190836145b0565b90549060031b1c613a0681610d6084866145b0565b600052826020526040600020558880613821565b5088613a2683856145b0565b90549060031b1c1415613809565b606492506040519163206f4e1160e21b83526004830152600160248301526044820152fd5b856044916040519163a17e11d560e01b835260048301526024820152fd5b60405163a17e11d560e01b81526004810188905260006024820152604490fd5b84606491604051916346f4384b60e01b83526004830152600160248301526044820152fd5b506000818152603760205260409020546001600160a01b0316156136cc565b60405163a546a76b60e01b8152918291610fd5918660048501614081565b3461042f57600036600319011261042f576020603f54604051908152f35b3461042f57600036600319011261042f576020604254604051908152f35b3461042f57604036600319011261042f57613b4e613f40565b6024803590613b5b614c92565b600280600054146100b05760008190556001600160a01b038481169490919085158015613f28575b613f10578415613ee957613b9681614cbd565b613ba08133614d73565b33600052602091603883526040600020876000528352604060002093845416158015613ede575b613eb857808401805494858811613e9457886000526037855260406000206001848201549101908154808211613e755790613c0191614097565b808a11613e58575033600052604c865260406000208a600052865260406000205491878a14600014613e3b57613c388a8499614097565b8455600443910155613c4b898254614097565b90558580613e12575b50505415613d7b575b50613c6883866140cf565b936040516370a0823160e01b8152306004820152838183818b5afa908115611ea957600091613d4e575b50858110613d3157613ca48682614097565b9088600052603a8552604060002054809210613d0a5750505083613cc9913390614e87565b60405193845283015260408201524360608201527fcd0bdcd833f6e50284f71ddc74536c5123d2befda8a0c276e9e745f598d1d02b60803392a36001600055005b91613d188792604494614097565b906040519263531309fb60e11b84526004840152820152fd5b60405163531309fb60e11b81526004810187905291820152604490fd5b90508381813d8311613d74575b613d65818361412e565b8101031261042f575188613c92565b503d613d5b565b600460009133835260388552604083208984528552826040812091818355816001840155820155826003820155015533600052604b825260406000208660005282526000604081205533600052604c8252604060002086600052825260006040812055603b825260406000208054906000198201918211613dfd575586613c5d565b85634e487b7160e01b60005260116004526000fd5b613e1b91614097565b33600052604c855260406000208960005285526040600020558885613c54565b613c388a613e528a613e4d83886140a4565b6140c5565b99614097565b896044918a6040519263a17e11d560e01b84526004840152820152fd5b60405163a17e11d560e01b8152600481018c90526000818c0152604490fd5b6064888760018a604051936346f4384b60e01b855260048501528301526044820152fd5b6040516346f4384b60e01b81526004810187905260018187015260006044820152606490fd5b508084015415613bc7565b6040516346f4384b60e01b8152600481018690526001818601526000196044820152606490fd5b604051630f4c971b60e21b8152600481018790528490fd5b50856000526037602052826040600020541615613b83565b600435906001600160a01b038216820361042f57565b602435906001600160a01b038216820361042f57565b604090600319011261042f576004359060243590565b606090600319011261042f576004356001600160a01b038116810361042f57906024359060443590565b602090602060408183019282815285518094520193019160005b828110613fd4575050505090565b835185529381019392810192600101613fc6565b906006821015610e6e5752565b6004359061ffff8216820361042f57565b3461042f5760208060031936011261042f576001600160a01b03614028613f40565b1660005260346020526040600020906040519081602084549182815201936000526020600020916000905b82821061406a576118d585611d208189038261412e565b835486529485019460019384019390910190614053565b6040919493926060820195825260208201520152565b91908203918211610cda57565b81810292918115918404141715610cda57565b80156129705762278d000490565b8115612970570490565b91908201809211610cda57565b606081019081106001600160401b038211176105d257604052565b60a081019081106001600160401b038211176105d257604052565b61024081019081106001600160401b038211176105d257604052565b601f909101601f19168101906001600160401b038211908210176105d257604052565b6001600160a01b0391821681529116602082015260400190565b60ff90911681526002602082015260400190565b6006811015610e6e576000526035602052604060002090565b90949392606092608083019660018060a01b03168352602083015260408201520152565b6006821015610e6e5752565b6001600160a01b03908116600090815260466020526040812054918215614344578282526033602052604082209060405161420281614112565b825481526001830154828116602083015261ffff604083019161422b60ff8260a01c16846141bc565b60a81c1660608301526002840154608083015260038401549260a08301938452600485015460c0840152600585015460e0840152600685015461010084015260078501541661012083015260088401546101408301526009840154610160830152600a840154916101808101928352610220600f600b870154966101a08401978852600c8101546101c0850152600d8101546101e0850152600e81015461020085015201549101525160068110156143305760020361431f57519081158015614327575b61431f5782511561430e575050515b431015614309575090565b905090565b61431a925051906140cf565b6142fe565b505050905090565b508051156142ef565b634e487b7160e01b85526021600452602485fd5b50905090565b6000818152603360205260409020600101546001600160a01b031615611f30578061438f916000526033602052614389600860406000200154916159ac565b906140cf565b90565b60006102206040516143a381614112565b8281528260208201528260408201528260608201528260808201528260a08201528260c08201528260e08201528261010082015282610120820152826101408201528261016082015282610180820152826101a0820152826101c0820152826101e08201528261020082015201526000526033602052604060002090600f6040519261442e84614112565b8054845260018101546001600160a01b038116602086015261ffff9061445e60a082901c60ff16604088016141bc565b60a81c16606085015260028101546080850152600381015460a0850152600481015460c0850152600581015460e0850152600681015461010085015260078101546001600160a01b0390811661012086015260088201546101408601526009820154610160860152600a820154610180860152600b8201546101a0860152600c8201546101c0860152600d8201546101e0860152600e82015461020086015291015461022084015260208301518391161561459757506040820180516006811015610e6e576002148015614583575b6145345750565b6101a083018051918215614567575b8215158061455d575b614556575b505050565b6003905252565b508243101561454c565b915061457d61018085015160a0860151906140cf565b91614543565b5080516006811015610e6e5760031461452d565b9150565b61ffff91821681529116602082015260400190565b80548210156145c85760005260206000200190600090565b634e487b7160e01b600052603260045260246000fd5b80549190600160401b8310156105d25782610d60916001614601950181556145b0565b565b6000818152603360205260409020600101546001600160a01b031615611f305761438f9060009081526033602052604081209060405161464281614112565b82548152600183015490610220600f60018060a01b0395868516602085015261ffff604085019561467960ff8260a01c16886141bc565b60a81c16606085015260028101549660808501978852600382015460a0860152600482015460c0860152600582015460e0860152600682015461010086015260078201541661012085015260088101546101408501526009810154610160850152600a810154610180850152600b8101546101a0850152600c8101546101c0850152600d8101546101e0850152600e81015461020085015201549101528051600681101561475e57600114159081614736575b5061430957505190565b905051600681101561474a5715153861472c565b634e487b7160e01b82526021600452602482fd5b634e487b7160e01b83526021600452602483fd5b6001600160a01b0390811660009081526047602052604081205461491357604660205260408120548015614344578152603360205260408120916040516147b881614112565b835481526001840154828116602083015261ffff60408301916147e160ff8260a01c16846141bc565b60a81c1660608301526002850154608083015260038501549260a08301938452600486015460c0840152600586015460e0840152600686015461010084015260078601541661012083015260088501546101408301526009850154610160830152600a850154916101808101928352610220600f600b880154976101a08401988952600c8101546101c0850152600d8101546101e0850152600e81015461020085015201549101528051600681101561433057600314614909575160068110156148f5576002036148ee575191821580156148e5575b6148de57508251156148cd575050515b43101590565b6148d9925051906140cf565b6148c7565b9250505090565b508151156148b7565b5050905090565b634e487b7160e01b84526021600452602484fd5b5050505050600190565b5050600190565b6001600160401b0381116105d25760051b60200190565b61493e909392919361417f565b92835491828210801590614a10575b614a075761495b90826140cf565b918083116149ff575b5061496f8183614097565b61499161497b8261491a565b91614989604051938461412e565b80835261491a565b60209190601f190136838301378095835b8581106149b157505050505050565b6149bb81836145b0565b919054916149c98783614097565b9085518210156149ea57600193879160031b1c9160051b86010152016149a2565b60246000634e487b7160e01b81526032600452fd5b915038614964565b50606093505050565b50801561494d565b614a2181614772565b614a75576001600160a01b031660009081526046602052604081205461438f57604860205260016040822054101561438f57604090603960205220548015614a6f57603f546148c7916140cf565b50600190565b50600090565b909160018060a01b0380921660009381855260209460388652604091858383209116908183528752828220958351614ab2816140f7565b8188541691828252600189015416898201526080600460028a0154998a88850152600381015460608501520154910152158015614bf2575b614be5578596818352604981528383205494604a8252848420546037835260018686200154908015801580614bdc575b614b8a575b50505091839183614b61969461438f989652604b82528484208385528252848420548496818111614b68575b50508352604c81528383209183525220546140cf565b80936140cf565b670de0b6b3a7640000929750614b819161395c91614097565b04943880614b4b565b670de0b6b3a7640000989398808302928304141715614bc857614b6196949261438961438f99979593614bbc936140c5565b96819395929496614b1f565b634e487b7160e01b86526011600452602486fd5b50821515614b1a565b5093505050915080918190565b508515614aea565b6001600160a01b03168015614c295760005260396020526040600020548015614a7557603f5461438f916140cf565b5060001990565b6001600160a01b03908116908115614c7957600080516020615ca983398151915280546001600160a01b03198116841790915516600080516020615d29833981519152600080a3565b604051631e4fbdf760e01b815260006004820152602490fd5b60ff600080516020615d498339815191525416614cab57565b60405163d93c066560e01b8152600490fd5b6001600160a01b03166000818152604a6020526040812054909181156145515760376020526001604084200154928315614d6d57670de0b6b3a7640000918284028481048403614d595785614d11916140c5565b948515614d5157614d4d94604094614d2c614d3393896140a4565b0490614097565b908252604a602052828220556049602052209182546140cf565b9055565b505050505050565b634e487b7160e01b83526011600452602483fd5b50505050565b9060018060a01b03809116600090808252602060498152604093808585205496169081855260388352858520848652835285852090865190614db4826140f7565b80835416825260018301541684820152600282015490608060048983019484865260038101546060850152015491015215614e7557818552604b83528585208486528352858520548015614e6e575b808811614e1e575b50508352604b8152838320918352522055565b670de0b6b3a764000091614e35614e3c928a614097565b90516140a4565b0480614e49575b80614e0b565b818552604c83528585208486528352614e668686209182546140cf565b905538614e43565b5086614e03565b508352604b8152838320918352522055565b9160018060a01b03809316906040908151936370a0823160e01b94858152600495308783015260209160249883828b818b5afa918215614feb57600092615093575b508651948386521691828986015283858b818b5afa948515614feb57600095615064575b50865163a9059cbb60e01b6000908152848b52878c528590604481808d5af1600160005114811615615044575b818952156150305750865192818452308a85015284848c818c5afa93841561502557600094614ff6575b5087519182528982015283818b818b5afa938415614feb579086939291600095614fb4575b505090614f7591614097565b03614fa05790614f8491614097565b03614f8f5750505050565b51630391186360e61b815291820152fd5b5050505191630391186360e61b8352820152fd5b80929550819394503d8311614fe4575b614fce818361412e565b8101031261042f575191849190614f7538614f69565b503d614fc4565b87513d6000823e3d90fd5b9093508481813d831161501e575b61500e818361412e565b8101031261042f57519238614f44565b503d615004565b88513d6000823e3d90fd5b635274afe760e01b81528981018990528a90fd5b600181151661505a57893b15153d151616614f1a565b503d6000823e3d90fd5b9094508381813d831161508c575b61507c818361412e565b8101031261042f57519338614eed565b503d615072565b9091508381813d83116150bb575b6150ab818361412e565b8101031261042f57519038614ec9565b503d6150a1565b6001600160a01b03908116600081815260376020526040808220815192949093906150ec846140dc565b8454168352600184015482600260208601968388520154940193845215615256578452604f60205280842090805194615124866140f7565b82548652600183015493602087019485526002840154928701928352600460038501549460608901958652015460808801528051936127109485810290808204871490151715615242578751615179916140c5565b8651908181116151fd57505050518381029381850414901517156151e957506151c0926151b06151c79695936151ba9351906140a4565b92519051906140a4565b906140c5565b90516140cf565b6103848082106151e1575b50611388808211614309575090565b9050386151d2565b634e487b7160e01b81526011600452602490fd5b909194975061520f9250959495614097565b925184039384116151e9575061137892613e4d61523d9695936152339351906140a4565b92519051906140cf565b6151c7565b634e487b7160e01b84526011600452602484fd5b505050505061038490565b90600091838352816020526040832054848254821091826152c6575b50506152a75761528d84826145de565b54600019810193908411614d595782526020526040902055565b604051633392670960e11b815260048082018690526024820152604490fd5b6152d2919250836145b0565b90549060031b1c14843861527d565b600080516020615ca9833981519152546001600160a01b0316330361530257565b60405163118cdaa760e01b8152336004820152602490fd5b6001600160a01b0316156107d957565b908115801561533c575b610612575050565b50808211615334565b60405163313ce56760e01b81526001600160a01b039190911690602081600481855afa80916000916153b3575b509061539157604051630f4c971b60e21b815260048101839052602490fd5b60ff16600681109081156153a8575b50610fd95750565b6012915011386153a0565b6020813d6020116153ee575b816153cc6020938361412e565b810103126153ea57519060ff821682036153e7575038615372565b80fd5b5080fd5b3d91506153bf565b604080516370a0823160e01b8082526001600160a01b0395861660048301819052938616969295929490939192602092919083856024818c5afa94851561502557600095615534575b5083906000908951936323b872dd60e01b8352166004528360245287604452606481808c5af160016000511481161561551e575b8188526000606052156155085750855193845260048401528083602481895afa9081156154fd576000916154cd575b506154ad9250614097565b036154b6575050565b602492505190630391186360e61b82526004820152fd5b905082813d83116154f6575b6154e3818361412e565b8101031261042f576154ad9151386154a2565b503d6154d9565b85513d6000823e3d90fd5b635274afe760e01b815260048101889052602490fd5b600181151661505a57883b15153d151616615473565b9094508381813d831161555c575b61554c818361412e565b8101031261042f5751938361543f565b503d615542565b9291909260018401805460ff8160a01c166006811015610e6e576002036158595760ff60a01b1916600360a01b178155600b85019283556002600090815260366020908152600080516020615d09833981519152805492976040949293909291600080516020615cc983398151915290821561584157878b52818652868b2054838110801590615827575b61580f57600019938085019081116157fb578082036157cc575b5050805480156157b857830190615622610c4e83836145b0565b55868a5284528885812055600389526035845284892060368552858a2090878b52818652868b20548882548210918261579d575b505061577e5761566688826145de565b549082820191821161574e57878b528552858a205560018060a01b0392838354168a5260478552858a208054906001820180921161576a5791600791869355828554168c52604687528b8881208a815414615762575b505001541690818a52604d8552858a208054918261573c575b5050508852604e835283882080549060018201809211615728577f6617d0011afaf7c02c56e6060579439ff4a02171ec9beff38351336438be58eb969798995055541694549082519182524390820152a3565b634e487b7160e01b8a52601160045260248afd5b820191821161574e57553880806156d5565b634e487b7160e01b8b52601160045260248bfd5b558b386156bc565b634e487b7160e01b8c52601160045260248cfd5b8651633392670960e11b81526004810189905260036024820152604490fd5b6157a9919250836145b0565b90549060031b1c148838615656565b634e487b7160e01b8c52603160045260248cfd5b6157d690836145b0565b90549060031b1c6157eb81610d6084866145b0565b8c52828752878c20553880615608565b634e487b7160e01b8d52601160045260248dfd5b8751634035962f60e11b8152600481018a9052602490fd5b508861583382846145b0565b90549060031b1c14156155ee565b8651634035962f60e11b815260048101899052602490fd5b505050509050565b60ff600080516020615d4983398151915254161561587b57565b604051638dfc202b60e01b8152600490fd5b60005260336020526040600020600881015480158015615918575b801561590c575b615908576158d1600f830154600a840154600b85015490600386015492615b1c565b80156145515764496cebb8006158fd61396b600d936158f8614d4d96600e890154906140a4565b6140a4565b0492019182546140cf565b5050565b50600f820154156158af565b50600e820154156158a8565b9060ff600182015460a01c166006811015610e6e5760020361590857600b810154801561596357905b8143101561595a57505050565b61460192615563565b50615977600a8201546003830154906140cf565b9061594d565b60ff600080516020615d698339815191525460401c161561599a57565b604051631afcd79f60e31b8152600490fd5b60005260336020526040600020604051906159c682614112565b8054825260018101546001600160a01b0380821660208501529061ffff906159f860a082901c60ff16604087016141bc565b60a81c166060840152600282015460808401526003820154908160a0850152600483015460c0850152600583015460e085015260068301546101008501526007830154166101208401526008820154916101408401918383526009820154610160860152600a82015480610180870152600b83015490816101a0880152600c8401546101c0880152610220600d850154976101e0810197898952600e87015491600f610200820198848a520154938491015215908115615b13575b508015615b0b575b615b0157615acc9495969750615b1c565b918215615afa5761396b61438f94936158f864496cebb80094615af294519051906140a4565b0490516140cf565b5050505190565b5050505050505090565b508015615abb565b90501538615ab3565b91939293615b2a8343614097565b948515615bc9578115615bb85750905b8115159081615bae575b50615b5b575b50506302625a008083116145975750565b60405490811561297057615b7591630966018004906140cf565b9081431115615b4a5780821115615ba557615b8f91614097565b808311615b9d575b80615b4a565b915038615b97565b50506000615b8f565b9050151538615b44565b615bc39150826140cf565b90615b3a565b5060009450505050565b8115615908576001600160a01b0316600081815260376020526040812060010154929091908315615c9157670de0b6b3a76400008082028281048203615c7d5785615c1d916140c5565b948515615c6257614d4d949260409492614d2c615c3a93896140a4565b818352604a602052615c508484209182546140cf565b905581526049602052209182546140cf565b5050925081604091614d4d9352604a602052209182546140cf565b634e487b7160e01b85526011600452602485fd5b9250506040614d4d91604a602052209182546140cf56fe9016d09d72d40fdae2fd8ceac6b6234c7706214fd39c1cd1e609a0528c19930049d58ea9a5daf69ab79ed6bff1f0de709220367fa3b259710db785f85d2077eb3874e5d0e16575040f47821745c058618d0943b6b1b9ea151420c34f98735708f45abd214a7998af36d567f4bc75c5d50e868cf767d965b54d3b0f5c6200ab648be0079c531659141344cd1fd0a4f28419497f9722a3daafe3b4186f6b6457e0cd5ed15c6e187e77e9aee88184c21f4f2182ab5827cb3b7e07fbedcd63f03300f0c57e16840df040f15088dc2f81fe391c3923bec73e23a9662efc9c229c6a0014db53dfb67c9464ac206eeb3210b3bcaf99ca59ae28e6c3b1c7596b6505fe6da264697066735822122057c1e390b7b43a2f7230289a72e9474887ea4e9ca16101f649d0418d1988bd6064736f6c63430008180033",
  "devdoc": {
    "details": "Upgradeable contract using proxy pattern Production changes: - Fixes critical repay accounting bug (no double-subtraction of repaid amounts) - Adds fair lender yield distribution via supply index (interest paid only) - Protocol fees are segregated; do not block LP principal withdrawals - Interest continues accruing after due date - Owner-only expiry for Approved requests - Optional public \"mark overdue\" for correct status transitions - Strict ERC20 transfers (reverts on fee-on-transfer style behavior)",
    "errors": {
      "EnforcedPause()": [
        {
          "details": "The operation failed because the contract is paused."
        }
      ],
      "ExpectedPause()": [
        {
          "details": "The operation failed because the contract is not paused."
        }
      ],
      "InvalidInitialization()": [
        {
          "details": "The contract is already initialized."
        }
      ],
      "NotInitializing()": [
        {
          "details": "The contract is not initializing."
        }
      ],
      "OwnableInvalidOwner(address)": [
        {
          "details": "The owner is not a valid owner account. (eg. `address(0)`)"
        }
      ],
      "OwnableUnauthorizedAccount(address)": [
        {
          "details": "The caller account is not authorized to perform an operation."
        }
      ],
      "SafeERC20FailedOperation(address)": [
        {
          "details": "An operation with an ERC-20 token failed."
        }
      ]
    },
    "events": {
      "CooldownBlocksUpdated(uint256,uint256,uint256)": {
        "params": {
          "blockNumber": "Block number when update occurred",
          "newCooldownBlocks": "New cooldown in blocks",
          "oldCooldownBlocks": "Previous cooldown in blocks"
        }
      },
      "ETHReceived(address,uint256,uint256)": {
        "details": "ETH is for operational purposes only (gas sponsorship, etc.)",
        "params": {
          "amount": "Amount of ETH received in wei",
          "blockNumber": "Block number when ETH was received",
          "sender": "Address that sent ETH (indexed)"
        }
      },
      "ETHWithdrawn(address,uint256,uint256)": {
        "details": "ETH is operational only; not part of lending pools",
        "params": {
          "admin": "Address of the admin making withdrawal (indexed)",
          "amount": "Amount of ETH withdrawn in wei",
          "blockNumber": "Block number when withdrawal occurred"
        }
      },
      "EmergencyWithdraw(address,uint256,uint256)": {
        "details": "Only callable by admin in emergency situations",
        "params": {
          "amount": "Amount recovered in token decimals",
          "blockNumber": "Block number when emergency withdrawal occurred",
          "token": "ERC20 token being recovered (indexed)"
        }
      },
      "Initialized(uint64)": {
        "details": "Triggered when the contract has been initialized or reinitialized."
      },
      "InterestRatesUpdated(address,uint256,uint256,uint256,uint256,uint256,uint256)": {
        "params": {
          "baseRateBps": "New base rate in basis points",
          "blockNumber": "Block number when update occurred",
          "optimalUtilizationBps": "New optimal utilization kink point",
          "protocolFeeBps": "New protocol fee in basis points",
          "slope1Bps": "New slope below optimal utilization",
          "slope2Bps": "New slope above optimal utilization",
          "token": "Pool token address (indexed)"
        }
      },
      "LiquidityDeposited(address,address,uint256,uint256)": {
        "params": {
          "amount": "Amount deposited in token decimals",
          "blockNumber": "Block number when deposit occurred",
          "lender": "Address of the depositor (indexed)",
          "token": "ERC20 token being deposited (indexed)"
        }
      },
      "LiquidityWithdrawn(address,address,uint256,uint256,uint256,uint256)": {
        "params": {
          "blockNumber": "Block number when withdrawal occurred",
          "interestAmount": "Earned interest portion of withdrawal",
          "lender": "Address of the withdrawer (indexed)",
          "principalAmount": "Principal portion of withdrawal",
          "token": "ERC20 token being withdrawn (indexed)",
          "totalAmount": "Total amount withdrawn (principal + interest)"
        }
      },
      "LoanBorrowed(uint256,address,address,uint256,uint256,uint256)": {
        "details": "`initialOwed` equals `principal` at borrow time (no interest yet)",
        "params": {
          "borrower": "Address receiving the funds (indexed)",
          "initialOwed": "Initial amount owed (equals principal, no interest yet)",
          "loanId": "Loan identifier being borrowed (indexed)",
          "principal": "Amount of tokens borrowed",
          "startBlock": "Block number when borrowing occurred (interest starts)",
          "token": "ERC20 token address being borrowed"
        }
      },
      "LoanMovedToUnpaidDebt(uint256,address,uint256,uint256)": {
        "details": "Triggered when deadline passes with outstanding balance",
        "params": {
          "blockNumber": "Block number when status changed",
          "borrower": "Address of the delinquent borrower (indexed)",
          "deadlineBlock": "The original deadline block that was missed",
          "loanId": "Loan identifier moved to unpaid debt (indexed)"
        }
      },
      "LoanRepaid(uint256,address,address,uint256,uint256,uint256)": {
        "params": {
          "blockNumber": "Block number when repayment occurred",
          "borrower": "Address making the repayment (indexed)",
          "loanId": "Loan identifier being repaid (indexed)",
          "remainingBalance": "Outstanding balance after repayment (0 if fully repaid)",
          "repaymentAmount": "Amount repaid in this transaction",
          "token": "ERC20 token address being repaid"
        }
      },
      "LoanRequestApproved(uint256,address,uint256)": {
        "params": {
          "approvalBlock": "Block number when approval occurred",
          "borrower": "Address of the borrower whose loan was approved (indexed)",
          "loanId": "Loan identifier being approved (indexed)"
        }
      },
      "LoanRequestRejected(uint256,address,uint256)": {
        "params": {
          "borrower": "Address of the borrower whose loan was rejected (indexed)",
          "loanId": "Loan identifier being rejected (indexed)",
          "rejectionBlock": "Block number when rejection occurred"
        }
      },
      "LoanRequestSubmitted(uint256,address,uint16,uint256,uint256,uint256)": {
        "params": {
          "blockNumber": "Block number when request was submitted",
          "borrower": "Address of the borrower submitting the request (indexed)",
          "loanAmount": "Requested loan amount in token decimals",
          "loanDurationBlocks": "Requested loan duration in blocks",
          "loanId": "Unique identifier assigned to the loan (indexed for filtering)",
          "walletReputation": "Self-reported reputation score (0-1000)"
        }
      },
      "MinReputationUpdated(uint16,uint16,uint256)": {
        "params": {
          "blockNumber": "Block number when update occurred",
          "newMinReputation": "New minimum reputation value",
          "oldMinReputation": "Previous minimum reputation value"
        }
      },
      "Paused(address)": {
        "details": "Emitted when the pause is triggered by `account`."
      },
      "PoolAdded(address,uint256)": {
        "params": {
          "blockNumber": "Block number when pool was added",
          "token": "ERC20 token address for the new pool (indexed)"
        }
      },
      "PoolLoanLimitsUpdated(address,uint256,uint256,uint256)": {
        "params": {
          "blockNumber": "Block number when limits were updated",
          "maxLoanAmount": "New maximum loan amount in token decimals",
          "minLoanAmount": "New minimum loan amount in token decimals",
          "token": "ERC20 token address of the pool (indexed)"
        }
      },
      "PoolRemoved(address,uint256)": {
        "params": {
          "blockNumber": "Block number when pool was removed",
          "token": "ERC20 token address of the removed pool (indexed)"
        }
      },
      "ProtocolFeesWithdrawn(address,address,uint256,uint256)": {
        "params": {
          "admin": "Address of the admin making withdrawal (indexed)",
          "amount": "Amount of fees withdrawn",
          "blockNumber": "Block number when withdrawal occurred",
          "token": "ERC20 token being withdrawn (indexed)"
        }
      },
      "Unpaused(address)": {
        "details": "Emitted when the pause is lifted by `account`."
      }
    },
    "kind": "dev",
    "methods": {
      "addLiquidityPool(address,uint256,uint256)": {
        "details": "Requirements:   - Token must be a valid ERC20 contract   - Pool must not already exist for this token   - minLoanAmount must be <= maxLoanAmount",
        "params": {
          "maxLoanAmount": "Maximum loan amount in token decimals",
          "minLoanAmount": "Minimum loan amount in token decimals",
          "token": "ERC20 token address for the new pool"
        }
      },
      "approveLoanRequest(uint256)": {
        "details": "Transitions loan from Pending to Approved status.      The borrower then has approvedLoanExpiryBlocks to call borrow().",
        "params": {
          "loanId": "Identifier of the loan to approve"
        }
      },
      "borrow(uint256,uint256)": {
        "details": "Requirements:   - Loan must be in Approved status   - Caller must be the loan's borrower   - tokenAmount must be > 0 and <= approved loanAmount   - Sufficient liquidity must be available in the pool   - Can only be called once per loan; unused approved amount is forfeited",
        "params": {
          "loanId": "Identifier of the approved loan",
          "tokenAmount": "Amount to borrow (may be less than approved amount)"
        }
      },
      "calculateBorrowRate(address)": {
        "details": "Rate is determined by pool utilization: borrowedAmount / totalLiquidity      Higher utilization = higher rates to incentivize deposits",
        "params": {
          "token": "ERC20 token address of the pool"
        },
        "returns": {
          "rateBps": "Current borrow rate in basis points (1 BPS = 0.01%)"
        }
      },
      "canSubmitRequest(address)": {
        "details": "Returns false if user has active loan, unpaid debt, or is in cooldown",
        "params": {
          "user": "Address to check"
        },
        "returns": {
          "_0": "True if user is eligible to submit a request"
        }
      },
      "constructor": {
        "custom:oz-upgrades-unsafe-allow": "constructor"
      },
      "depositLiquidity(address,uint256)": {
        "details": "Requirements:   - Token must have an active liquidity pool   - Caller must approve token transfer to contract   - Amount must be > 0",
        "params": {
          "amount": "Amount to deposit in token decimals",
          "token": "ERC20 token address to deposit"
        }
      },
      "emergencyWithdraw(address,uint256)": {
        "details": "Safer emergency withdraw: only allows withdrawing tokens NOT configured as a pool token.      For pool tokens, use withdrawProtocolFees()."
      },
      "getAccruedInterest(uint256)": {
        "details": "Uses simple interest: principal × rate × elapsedBlocks / (blocksPerYear × BPS)      Returns 0 for loans that haven't been borrowed yet",
        "params": {
          "loanId": "Identifier of the loan to query"
        },
        "returns": {
          "accruedInterest": "Accrued interest amount in token decimals"
        }
      },
      "getActiveLenderCount(address)": {
        "details": "A lender is \"active\" if their depositedAmount > 0",
        "params": {
          "token": "ERC20 token address of the pool"
        },
        "returns": {
          "count": "Number of active lenders"
        }
      },
      "getActiveLoanByBorrower(address)": {
        "details": "Returns 0 if the borrower has no Active or UnpaidDebt loan",
        "params": {
          "borrower": "Address of the borrower to query"
        },
        "returns": {
          "loanId": "Loan ID if exists, 0 otherwise"
        }
      },
      "getApprovedLoanAmount(uint256)": {
        "details": "Returns 0 for non-approved loans or invalid IDs",
        "params": {
          "loanId": "Identifier of the loan to query"
        },
        "returns": {
          "approvedAmount": "Maximum amount the borrower can borrow (in token decimals)"
        }
      },
      "getCooldownEndBlock(address)": {
        "details": "Returns 0 if user has never made a request",
        "params": {
          "user": "Address to check"
        },
        "returns": {
          "cooldownEndBlock": "Block number when cooldown expires (0 if no cooldown)"
        }
      },
      "getLenderPosition(address,address)": {
        "details": "Returns deposited amount, accrued interest, and total withdrawable",
        "params": {
          "lender": "Address of the lender",
          "token": "ERC20 token address of the pool"
        },
        "returns": {
          "accruedInterest": "Interest earned so far",
          "depositedAmount": "Principal deposited",
          "totalWithdrawable": "Total amount available for withdrawal"
        }
      },
      "getLiquidityPool(address)": {
        "params": {
          "token": "ERC20 token address of the pool"
        },
        "returns": {
          "pool": "LiquidityPool struct with current pool state"
        }
      },
      "getLoan(uint256)": {
        "details": "**IMPORTANT: This function performs VIRTUAL STATUS PROJECTION**      The returned loan status may differ from actual storage state.            For Active loans past their deadline, this function returns UnpaidDebt      even if storage still shows Active. This is for UI convenience.            **Storage State Transitions:**      - Storage transitions to UnpaidDebt occur via:        1. Explicit call to `markLoanOverdue(loanId)` (anyone can call)        2. Automatic transition in state-changing functions like `repay()`            **Frontend/Indexer Considerations:**      - Frontends should use this function for display purposes      - Indexers should track both projected status (from getLoan) and actual storage      - State-changing operations use actual storage status, not projected status      - To sync storage with projection, call `markLoanOverdue()` before state changes      ",
        "params": {
          "loanId": "The ID of the loan to retrieve"
        },
        "returns": {
          "loan": "Loan struct with potentially projected status"
        }
      },
      "getLoansByBorrower(address)": {
        "details": "Returns loans in all statuses (historical and current)",
        "params": {
          "borrower": "Address of the borrower to query"
        },
        "returns": {
          "_0": "Array of loan IDs belonging to the borrower"
        }
      },
      "getLoansByStatus(uint8,uint256,uint256)": {
        "details": "Useful for admin dashboards and indexers",
        "params": {
          "limit": "Maximum number of results to return",
          "offset": "Starting index for pagination",
          "status": "LoanStatus to filter by"
        },
        "returns": {
          "loanIds": "Array of loan IDs matching the status"
        }
      },
      "getPoolLoanLimits(address)": {
        "params": {
          "token": "ERC20 token address of the pool"
        },
        "returns": {
          "maxLoanAmount": "Current maximum loan amount in token decimals",
          "minLoanAmount": "Current minimum loan amount in token decimals"
        }
      },
      "getPoolRateCurve(address)": {
        "params": {
          "token": "Pool token address"
        },
        "returns": {
          "_0": "RateCurveParams struct with all rate parameters"
        }
      },
      "getProtocolFees(address)": {
        "details": "Fees accumulate from interest payments; withdrawable by admin",
        "params": {
          "token": "ERC20 token address to query"
        },
        "returns": {
          "balance": "Accumulated fee amount in token decimals"
        }
      },
      "getRemainingBalance(uint256)": {
        "details": "Returns totalOwed - amountRepaid; 0 if fully repaid",
        "params": {
          "loanId": "Identifier of the loan to query"
        },
        "returns": {
          "remainingBalance": "Remaining balance in token decimals"
        }
      },
      "getTotalOwed(uint256)": {
        "details": "Returns principal + accrued interest (simple interest model)",
        "params": {
          "loanId": "Identifier of the loan to query"
        },
        "returns": {
          "totalOwed": "Total owed amount in token decimals"
        }
      },
      "hasUnpaidDebt(address)": {
        "details": "Used to enforce one-active-loan-per-borrower rule",
        "params": {
          "user": "Address to check"
        },
        "returns": {
          "_0": "True if user has a loan in UnpaidDebt status"
        }
      },
      "markLoanOverdue(uint256)": {
        "details": "This function syncs storage state with the virtual status projection from getLoan().      Anyone can call this to ensure storage reflects the actual overdue status.            **Why this exists:**      - getLoan() performs virtual status projection for UI convenience      - Storage may lag behind until this function is called      - State-changing functions (like repay()) automatically transition overdue loans      - This function allows explicit synchronization of storage with projection            **Effects:**      - Updates loan.status to UnpaidDebt in storage      - Updates status arrays and counters      - Emits LoanMovedToUnpaidDebt event            **Pause Behavior:**      - This function is intentionally NOT pausable to allow status maintenance during emergencies      - Status transitions don't move funds, only update accounting state      ",
        "params": {
          "loanId": "The ID of the overdue loan to mark"
        }
      },
      "owner()": {
        "details": "Returns the address of the current owner."
      },
      "pause()": {
        "details": "When paused: no new loans, borrows, repayments, deposits, or withdrawals      Uses OpenZeppelin Pausable pattern"
      },
      "paused()": {
        "details": "Returns true if the contract is paused, and false otherwise."
      },
      "rejectLoanRequest(uint256)": {
        "details": "Transitions loan from Pending to Rejected status (terminal).",
        "params": {
          "loanId": "Identifier of the loan to reject"
        }
      },
      "removeLiquidityPool(address)": {
        "details": "**Warning:** Any accumulated undistributed interest (rounding dust) will be lost      when the pool is removed. This is typically negligible but should be considered.      Ensure all lenders have withdrawn before removing a pool.",
        "params": {
          "token": "ERC20 token address of the pool to remove"
        }
      },
      "renounceOwnership()": {
        "details": "Leaves the contract without owner. It will not be possible to call `onlyOwner` functions. Can only be called by the current owner. NOTE: Renouncing ownership will leave the contract without an owner, thereby disabling any functionality that is only available to the owner."
      },
      "repay(uint256,uint256)": {
        "details": "**Pause Behavior:** This function is intentionally NOT pausable to allow borrowers      to repay debts during emergencies. Preventing repayments during pause could unfairly      penalize borrowers with accruing interest while they cannot act.",
        "params": {
          "amount": "Amount to repay in token decimals",
          "loanId": "Identifier of the loan to repay"
        }
      },
      "submitLoanRequest(uint16,address,uint256,uint256)": {
        "details": "Requirements:   - Caller must not have an active or unpaid loan   - Caller must be past cooldown period from last request   - Token must have an active liquidity pool   - Amount must be within pool's [minLoanAmount, maxLoanAmount]   - Duration must be within [minLoanDurationBlocks, maxLoanDurationBlocks]   - walletReputation must be >= minReputation threshold",
        "params": {
          "loanAmount": "Requested loan amount in token decimals",
          "loanDurationBlocks": "Requested duration in blocks",
          "token": "ERC20 token address to borrow",
          "walletReputation": "Self-reported reputation score (0-1000)"
        },
        "returns": {
          "loanId": "Unique identifier assigned to the new loan request"
        }
      },
      "transferOwnership(address)": {
        "details": "Transfers ownership of the contract to a new account (`newOwner`). Can only be called by the current owner."
      },
      "updateCooldownBlocks(uint256)": {
        "params": {
          "newCooldownBlocks": "New cooldown duration in blocks"
        }
      },
      "updateMinReputation(uint16)": {
        "details": "New threshold applies to future requests only",
        "params": {
          "newMinReputation": "New minimum reputation value (0-1000)"
        }
      },
      "updatePoolLoanLimits(address,uint256,uint256)": {
        "details": "New limits apply to future loan requests only",
        "params": {
          "maxLoanAmount": "New maximum loan amount in token decimals",
          "minLoanAmount": "New minimum loan amount in token decimals",
          "token": "ERC20 token address of the pool"
        }
      },
      "updatePoolRateCurve(address,uint256,uint256,uint256,uint256,uint256)": {
        "details": "New rates apply to future loans only; existing loans keep their locked rate",
        "params": {
          "baseRateBps": "Base rate in basis points (e.g., 200 = 2%)",
          "optimalUtilizationBps": "Optimal utilization kink point (e.g., 8000 = 80%)",
          "protocolFeeBps": "Protocol fee on interest (e.g., 2500 = 25%)",
          "slope1Bps": "Slope below optimal utilization (e.g., 600 = 6%)",
          "slope2Bps": "Slope above optimal utilization (e.g., 4000 = 40%)",
          "token": "Pool token address"
        }
      },
      "withdrawETH(uint256)": {
        "details": "ETH is for operational purposes only; not part of lending pools",
        "params": {
          "amount": "Amount of ETH to withdraw in wei"
        }
      },
      "withdrawLiquidity(address,uint256)": {
        "details": "Requirements:   - Caller must have sufficient deposited balance   - Pool must have sufficient available liquidity (not borrowed)",
        "params": {
          "amount": "Amount of principal to withdraw in token decimals",
          "token": "ERC20 token address to withdraw"
        }
      },
      "withdrawProtocolFees(address,uint256)": {
        "details": "Fees are collected from interest payments on repaid loans",
        "params": {
          "amount": "Amount of fees to withdraw in token decimals",
          "token": "ERC20 token address to withdraw fees from"
        }
      }
    },
    "stateVariables": {
      "MAX_BLOCKS_FOR_INTEREST": {
        "details": "Prevents runaway interest accrual on abandoned loans",
        "return": "Maximum blocks to use in interest calculation",
        "returns": {
          "_0": "Maximum blocks to use in interest calculation"
        }
      },
      "MAX_BORROWER_RATE": {
        "return": "Maximum annual borrow rate in basis points",
        "returns": {
          "_0": "Maximum annual borrow rate in basis points"
        }
      },
      "MAX_PENDING_LOANS_PER_USER": {
        "details": "Prevents spam; user must wait for resolution before new requests",
        "return": "Maximum number of concurrent pending loans",
        "returns": {
          "_0": "Maximum number of concurrent pending loans"
        }
      },
      "MIN_BORROWER_RATE": {
        "return": "Minimum annual borrow rate in basis points",
        "returns": {
          "_0": "Minimum annual borrow rate in basis points"
        }
      },
      "approvedLoanExpiryBlocks": {
        "details": "Approved loans must be borrowed within this period or expire",
        "return": "Expiry duration in blocks after approval",
        "returns": {
          "_0": "Expiry duration in blocks after approval"
        }
      },
      "blockTimeSeconds": {
        "details": "Used for interest calculations: blocksPerYear = 365.25 days / blockTimeSeconds",
        "return": "Block time in seconds (e.g., 12 for Ethereum mainnet)",
        "returns": {
          "_0": "Block time in seconds (e.g., 12 for Ethereum mainnet)"
        }
      },
      "cooldownBlocks": {
        "return": "Cooldown duration in blocks",
        "returns": {
          "_0": "Cooldown duration in blocks"
        }
      },
      "defaultToken": {
        "return": "Default token address",
        "returns": {
          "_0": "Default token address"
        }
      },
      "loanCounter": {
        "return": "Current total number of loans created",
        "returns": {
          "_0": "Current total number of loans created"
        }
      },
      "maxLoanDurationBlocks": {
        "details": "Loan requests with longer durations will revert",
        "return": "Maximum duration in blocks",
        "returns": {
          "_0": "Maximum duration in blocks"
        }
      },
      "minLoanDurationBlocks": {
        "details": "Loan requests with shorter durations will revert",
        "return": "Minimum duration in blocks",
        "returns": {
          "_0": "Minimum duration in blocks"
        }
      },
      "minReputation": {
        "return": "Minimum reputation score required for loan requests (0-1000)",
        "returns": {
          "_0": "Minimum reputation score required for loan requests (0-1000)"
        }
      }
    },
    "title": "Unlloo",
    "version": 1
  },
  "userdoc": {
    "events": {
      "CooldownBlocksUpdated(uint256,uint256,uint256)": {
        "notice": "Emitted when cooldown period between loan requests is updated"
      },
      "ETHReceived(address,uint256,uint256)": {
        "notice": "Emitted when ETH is received by the contract"
      },
      "ETHWithdrawn(address,uint256,uint256)": {
        "notice": "Emitted when admin withdraws ETH from the contract"
      },
      "EmergencyWithdraw(address,uint256,uint256)": {
        "notice": "Emitted during emergency token recovery"
      },
      "InterestRatesUpdated(address,uint256,uint256,uint256,uint256,uint256,uint256)": {
        "notice": "Emitted when pool interest rate parameters are updated"
      },
      "LiquidityDeposited(address,address,uint256,uint256)": {
        "notice": "Emitted when a lender deposits liquidity into a pool"
      },
      "LiquidityWithdrawn(address,address,uint256,uint256,uint256,uint256)": {
        "notice": "Emitted when a lender withdraws liquidity from a pool"
      },
      "LoanBorrowed(uint256,address,address,uint256,uint256,uint256)": {
        "notice": "Emitted when an approved loan is executed (funds disbursed)"
      },
      "LoanMovedToUnpaidDebt(uint256,address,uint256,uint256)": {
        "notice": "Emitted when a loan transitions to UnpaidDebt status"
      },
      "LoanRepaid(uint256,address,address,uint256,uint256,uint256)": {
        "notice": "Emitted on each loan repayment (partial or full)"
      },
      "LoanRequestApproved(uint256,address,uint256)": {
        "notice": "Emitted when an admin approves a pending loan request"
      },
      "LoanRequestRejected(uint256,address,uint256)": {
        "notice": "Emitted when an admin rejects a pending loan request"
      },
      "LoanRequestSubmitted(uint256,address,uint16,uint256,uint256,uint256)": {
        "notice": "Emitted when a borrower submits a new loan request"
      },
      "MinReputationUpdated(uint16,uint16,uint256)": {
        "notice": "Emitted when minimum reputation threshold is updated"
      },
      "PoolAdded(address,uint256)": {
        "notice": "Emitted when a new liquidity pool is added for a token"
      },
      "PoolLoanLimitsUpdated(address,uint256,uint256,uint256)": {
        "notice": "Emitted when pool loan limits are updated"
      },
      "PoolRemoved(address,uint256)": {
        "notice": "Emitted when a liquidity pool is removed"
      },
      "ProtocolFeesWithdrawn(address,address,uint256,uint256)": {
        "notice": "Emitted when admin withdraws accumulated protocol fees"
      }
    },
    "kind": "user",
    "methods": {
      "MAX_BLOCKS_FOR_INTEREST()": {
        "notice": "Get maximum blocks for interest calculation"
      },
      "MAX_BORROWER_RATE()": {
        "notice": "Maximum borrower rate in basis points (50% = 5000)"
      },
      "MAX_PENDING_LOANS_PER_USER()": {
        "notice": "Get maximum pending loan requests per user"
      },
      "MIN_BORROWER_RATE()": {
        "notice": "Minimum borrower rate in basis points (5% = 500)"
      },
      "addLiquidityPool(address,uint256,uint256)": {
        "notice": "Add a new liquidity pool for a token (admin only)"
      },
      "approveLoanRequest(uint256)": {
        "notice": "Approve a pending loan request (admin only)"
      },
      "approvedLoanExpiryBlocks()": {
        "notice": "Get expiry period for approved loans"
      },
      "blockTimeSeconds()": {
        "notice": "Get configured block time for the chain"
      },
      "borrow(uint256,uint256)": {
        "notice": "Execute borrowing on an approved loan"
      },
      "calculateBorrowRate(address)": {
        "notice": "Calculate current borrow rate for a token pool"
      },
      "canSubmitRequest(address)": {
        "notice": "Check if a user can submit a new loan request"
      },
      "cooldownBlocks()": {
        "notice": "Get current cooldown period between loan requests"
      },
      "defaultToken()": {
        "notice": "Get the default token address used for new pools"
      },
      "depositLiquidity(address,uint256)": {
        "notice": "Deposit liquidity into a token pool to earn yield"
      },
      "expireApprovedLoan(uint256)": {
        "notice": "Owner-only expiry for Approved requests (prevents permanent openRequestCount lock)"
      },
      "getAccruedInterest(uint256)": {
        "notice": "Calculate current accrued interest for a loan"
      },
      "getActiveLenderCount(address)": {
        "notice": "Get count of active lenders in a pool"
      },
      "getActiveLoanByBorrower(address)": {
        "notice": "Get the active or unpaid loan ID for a borrower"
      },
      "getApprovedLoanAmount(uint256)": {
        "notice": "Get the maximum approved amount for a loan"
      },
      "getCooldownEndBlock(address)": {
        "notice": "Get the block number when cooldown ends for a user"
      },
      "getLenderPosition(address,address)": {
        "notice": "Get lender position with calculated interest"
      },
      "getLiquidityPool(address)": {
        "notice": "Get aggregate pool state for a token"
      },
      "getLoan(uint256)": {
        "notice": "Get loan information with virtual status projection"
      },
      "getLoansByBorrower(address)": {
        "notice": "Get all loan IDs for a specific borrower"
      },
      "getLoansByStatus(uint8,uint256,uint256)": {
        "notice": "Get loan IDs filtered by status with pagination"
      },
      "getPoolLoanLimits(address)": {
        "notice": "Get current loan limits for a pool"
      },
      "getPoolRateCurve(address)": {
        "notice": "Get the interest rate curve parameters for a pool"
      },
      "getProtocolFees(address)": {
        "notice": "Get accumulated protocol fees for a token"
      },
      "getRemainingBalance(uint256)": {
        "notice": "Calculate remaining balance after accounting for repayments"
      },
      "getTotalOwed(uint256)": {
        "notice": "Calculate total amount currently owed on a loan"
      },
      "hasUnpaidDebt(address)": {
        "notice": "Check if a user has any unpaid debt"
      },
      "loanCounter()": {
        "notice": "Get the current loan counter (next loan ID will be this + 1)"
      },
      "markLoanOverdue(uint256)": {
        "notice": "Mark an overdue Active loan as UnpaidDebt in storage"
      },
      "maxLoanDurationBlocks()": {
        "notice": "Get maximum allowed loan duration"
      },
      "minLoanDurationBlocks()": {
        "notice": "Get minimum allowed loan duration"
      },
      "minReputation()": {
        "notice": "Get current minimum reputation threshold"
      },
      "openRequestCount(address)": {
        "notice": "Number of open requests (Pending or Approved) per borrower"
      },
      "pause()": {
        "notice": "Pause all protocol operations (admin only)"
      },
      "rejectLoanRequest(uint256)": {
        "notice": "Reject a pending loan request (admin only)"
      },
      "removeLiquidityPool(address)": {
        "notice": "Remove a liquidity pool (admin only)"
      },
      "repay(uint256,uint256)": {
        "notice": "Make a repayment on an active loan"
      },
      "submitLoanRequest(uint16,address,uint256,uint256)": {
        "notice": "Submit a new loan request to the protocol"
      },
      "unpaidDebtLoanCount(address)": {
        "notice": "Number of loans in UnpaidDebt status per borrower"
      },
      "unpause()": {
        "notice": "Resume protocol operations after pause (admin only)"
      },
      "updateCooldownBlocks(uint256)": {
        "notice": "Update cooldown period between loan requests (admin only)"
      },
      "updateMinReputation(uint16)": {
        "notice": "Update minimum reputation threshold for loan requests (admin only)"
      },
      "updatePoolLoanLimits(address,uint256,uint256)": {
        "notice": "Update loan amount limits for a pool (admin only)"
      },
      "updatePoolRateCurve(address,uint256,uint256,uint256,uint256,uint256)": {
        "notice": "Update interest rate curve parameters for a specific pool (admin only)"
      },
      "withdrawETH(uint256)": {
        "notice": "Withdraw ETH from contract (admin only)"
      },
      "withdrawLiquidity(address,uint256)": {
        "notice": "Withdraw liquidity (principal + earned interest) from a pool"
      },
      "withdrawProtocolFees(address,uint256)": {
        "notice": "Withdraw accumulated protocol fees (admin only)"
      }
    },
    "notice": "Decentralized lending protocol with reputation-based loan requests",
    "version": 1
  },
  "storageLayout": {
    "storage": [
      {
        "astId": 10689,
        "contract": "contracts/Unlloo.sol:Unlloo",
        "label": "_status",
        "offset": 0,
        "slot": "0",
        "type": "t_uint256"
      },
      {
        "astId": 10733,
        "contract": "contracts/Unlloo.sol:Unlloo",
        "label": "__gap",
        "offset": 0,
        "slot": "1",
        "type": "t_array(t_uint256)49_storage"
      },
      {
        "astId": 3920,
        "contract": "contracts/Unlloo.sol:Unlloo",
        "label": "loanCounter",
        "offset": 0,
        "slot": "50",
        "type": "t_uint256"
      },
      {
        "astId": 3925,
        "contract": "contracts/Unlloo.sol:Unlloo",
        "label": "loans",
        "offset": 0,
        "slot": "51",
        "type": "t_mapping(t_uint256,t_struct(Loan)3223_storage)"
      },
      {
        "astId": 3930,
        "contract": "contracts/Unlloo.sol:Unlloo",
        "label": "_borrowerLoans",
        "offset": 0,
        "slot": "52",
        "type": "t_mapping(t_address,t_array(t_uint256)dyn_storage)"
      },
      {
        "astId": 3936,
        "contract": "contracts/Unlloo.sol:Unlloo",
        "label": "_loansByStatus",
        "offset": 0,
        "slot": "53",
        "type": "t_mapping(t_enum(LoanStatus)3166,t_array(t_uint256)dyn_storage)"
      },
      {
        "astId": 3943,
        "contract": "contracts/Unlloo.sol:Unlloo",
        "label": "_loanStatusIndex",
        "offset": 0,
        "slot": "54",
        "type": "t_mapping(t_enum(LoanStatus)3166,t_mapping(t_uint256,t_uint256))"
      },
      {
        "astId": 3948,
        "contract": "contracts/Unlloo.sol:Unlloo",
        "label": "pools",
        "offset": 0,
        "slot": "55",
        "type": "t_mapping(t_address,t_struct(LiquidityPool)3234_storage)"
      },
      {
        "astId": 3955,
        "contract": "contracts/Unlloo.sol:Unlloo",
        "label": "lenderPositions",
        "offset": 0,
        "slot": "56",
        "type": "t_mapping(t_address,t_mapping(t_address,t_struct(LenderPosition)3251_storage))"
      },
      {
        "astId": 3959,
        "contract": "contracts/Unlloo.sol:Unlloo",
        "label": "lastRequestBlock",
        "offset": 0,
        "slot": "57",
        "type": "t_mapping(t_address,t_uint256)"
      },
      {
        "astId": 3963,
        "contract": "contracts/Unlloo.sol:Unlloo",
        "label": "protocolFees",
        "offset": 0,
        "slot": "58",
        "type": "t_mapping(t_address,t_uint256)"
      },
      {
        "astId": 3967,
        "contract": "contracts/Unlloo.sol:Unlloo",
        "label": "activeLenderCount",
        "offset": 0,
        "slot": "59",
        "type": "t_mapping(t_address,t_uint256)"
      },
      {
        "astId": 3971,
        "contract": "contracts/Unlloo.sol:Unlloo",
        "label": "minLoanAmountPerPool",
        "offset": 0,
        "slot": "60",
        "type": "t_mapping(t_address,t_uint256)"
      },
      {
        "astId": 3975,
        "contract": "contracts/Unlloo.sol:Unlloo",
        "label": "maxLoanAmountPerPool",
        "offset": 0,
        "slot": "61",
        "type": "t_mapping(t_address,t_uint256)"
      },
      {
        "astId": 3977,
        "contract": "contracts/Unlloo.sol:Unlloo",
        "label": "minReputation",
        "offset": 0,
        "slot": "62",
        "type": "t_uint16"
      },
      {
        "astId": 3979,
        "contract": "contracts/Unlloo.sol:Unlloo",
        "label": "cooldownBlocks",
        "offset": 0,
        "slot": "63",
        "type": "t_uint256"
      },
      {
        "astId": 3981,
        "contract": "contracts/Unlloo.sol:Unlloo",
        "label": "blockTimeSeconds",
        "offset": 0,
        "slot": "64",
        "type": "t_uint256"
      },
      {
        "astId": 3983,
        "contract": "contracts/Unlloo.sol:Unlloo",
        "label": "minLoanDurationBlocks",
        "offset": 0,
        "slot": "65",
        "type": "t_uint256"
      },
      {
        "astId": 3985,
        "contract": "contracts/Unlloo.sol:Unlloo",
        "label": "maxLoanDurationBlocks",
        "offset": 0,
        "slot": "66",
        "type": "t_uint256"
      },
      {
        "astId": 3987,
        "contract": "contracts/Unlloo.sol:Unlloo",
        "label": "approvedLoanExpiryBlocks",
        "offset": 0,
        "slot": "67",
        "type": "t_uint256"
      },
      {
        "astId": 3989,
        "contract": "contracts/Unlloo.sol:Unlloo",
        "label": "defaultToken",
        "offset": 0,
        "slot": "68",
        "type": "t_address"
      },
      {
        "astId": 3993,
        "contract": "contracts/Unlloo.sol:Unlloo",
        "label": "loanInitialPrincipal",
        "offset": 0,
        "slot": "69",
        "type": "t_mapping(t_uint256,t_uint256)"
      },
      {
        "astId": 3998,
        "contract": "contracts/Unlloo.sol:Unlloo",
        "label": "_activeLoanByBorrower",
        "offset": 0,
        "slot": "70",
        "type": "t_mapping(t_address,t_uint256)"
      },
      {
        "astId": 4003,
        "contract": "contracts/Unlloo.sol:Unlloo",
        "label": "unpaidDebtLoanCount",
        "offset": 0,
        "slot": "71",
        "type": "t_mapping(t_address,t_uint256)"
      },
      {
        "astId": 4008,
        "contract": "contracts/Unlloo.sol:Unlloo",
        "label": "openRequestCount",
        "offset": 0,
        "slot": "72",
        "type": "t_mapping(t_address,t_uint256)"
      },
      {
        "astId": 4012,
        "contract": "contracts/Unlloo.sol:Unlloo",
        "label": "poolSupplyIndex",
        "offset": 0,
        "slot": "73",
        "type": "t_mapping(t_address,t_uint256)"
      },
      {
        "astId": 4016,
        "contract": "contracts/Unlloo.sol:Unlloo",
        "label": "poolUndistributedInterest",
        "offset": 0,
        "slot": "74",
        "type": "t_mapping(t_address,t_uint256)"
      },
      {
        "astId": 4022,
        "contract": "contracts/Unlloo.sol:Unlloo",
        "label": "lenderSupplyIndex",
        "offset": 0,
        "slot": "75",
        "type": "t_mapping(t_address,t_mapping(t_address,t_uint256))"
      },
      {
        "astId": 4028,
        "contract": "contracts/Unlloo.sol:Unlloo",
        "label": "lenderAccruedInterest",
        "offset": 0,
        "slot": "76",
        "type": "t_mapping(t_address,t_mapping(t_address,t_uint256))"
      },
      {
        "astId": 4032,
        "contract": "contracts/Unlloo.sol:Unlloo",
        "label": "activeLoansPerPool",
        "offset": 0,
        "slot": "77",
        "type": "t_mapping(t_address,t_uint256)"
      },
      {
        "astId": 4036,
        "contract": "contracts/Unlloo.sol:Unlloo",
        "label": "unpaidDebtLoansPerPool",
        "offset": 0,
        "slot": "78",
        "type": "t_mapping(t_address,t_uint256)"
      },
      {
        "astId": 4041,
        "contract": "contracts/Unlloo.sol:Unlloo",
        "label": "_poolRateCurve",
        "offset": 0,
        "slot": "79",
        "type": "t_mapping(t_address,t_struct(RateCurveParams)3268_storage)"
      },
      {
        "astId": 4045,
        "contract": "contracts/Unlloo.sol:Unlloo",
        "label": "__gap",
        "offset": 0,
        "slot": "80",
        "type": "t_array(t_uint256)35_storage"
      }
    ],
    "types": {
      "t_address": {
        "encoding": "inplace",
        "label": "address",
        "numberOfBytes": "20"
      },
      "t_array(t_uint256)35_storage": {
        "base": "t_uint256",
        "encoding": "inplace",
        "label": "uint256[35]",
        "numberOfBytes": "1120"
      },
      "t_array(t_uint256)49_storage": {
        "base": "t_uint256",
        "encoding": "inplace",
        "label": "uint256[49]",
        "numberOfBytes": "1568"
      },
      "t_array(t_uint256)dyn_storage": {
        "base": "t_uint256",
        "encoding": "dynamic_array",
        "label": "uint256[]",
        "numberOfBytes": "32"
      },
      "t_enum(LoanStatus)3166": {
        "encoding": "inplace",
        "label": "enum IUnlloo.LoanStatus",
        "numberOfBytes": "1"
      },
      "t_mapping(t_address,t_array(t_uint256)dyn_storage)": {
        "encoding": "mapping",
        "key": "t_address",
        "label": "mapping(address => uint256[])",
        "numberOfBytes": "32",
        "value": "t_array(t_uint256)dyn_storage"
      },
      "t_mapping(t_address,t_mapping(t_address,t_struct(LenderPosition)3251_storage))": {
        "encoding": "mapping",
        "key": "t_address",
        "label": "mapping(address => mapping(address => struct IUnlloo.LenderPosition))",
        "numberOfBytes": "32",
        "value": "t_mapping(t_address,t_struct(LenderPosition)3251_storage)"
      },
      "t_mapping(t_address,t_mapping(t_address,t_uint256))": {
        "encoding": "mapping",
        "key": "t_address",
        "label": "mapping(address => mapping(address => uint256))",
        "numberOfBytes": "32",
        "value": "t_mapping(t_address,t_uint256)"
      },
      "t_mapping(t_address,t_struct(LenderPosition)3251_storage)": {
        "encoding": "mapping",
        "key": "t_address",
        "label": "mapping(address => struct IUnlloo.LenderPosition)",
        "numberOfBytes": "32",
        "value": "t_struct(LenderPosition)3251_storage"
      },
      "t_mapping(t_address,t_struct(LiquidityPool)3234_storage)": {
        "encoding": "mapping",
        "key": "t_address",
        "label": "mapping(address => struct IUnlloo.LiquidityPool)",
        "numberOfBytes": "32",
        "value": "t_struct(LiquidityPool)3234_storage"
      },
      "t_mapping(t_address,t_struct(RateCurveParams)3268_storage)": {
        "encoding": "mapping",
        "key": "t_address",
        "label": "mapping(address => struct IUnlloo.RateCurveParams)",
        "numberOfBytes": "32",
        "value": "t_struct(RateCurveParams)3268_storage"
      },
      "t_mapping(t_address,t_uint256)": {
        "encoding": "mapping",
        "key": "t_address",
        "label": "mapping(address => uint256)",
        "numberOfBytes": "32",
        "value": "t_uint256"
      },
      "t_mapping(t_enum(LoanStatus)3166,t_array(t_uint256)dyn_storage)": {
        "encoding": "mapping",
        "key": "t_enum(LoanStatus)3166",
        "label": "mapping(enum IUnlloo.LoanStatus => uint256[])",
        "numberOfBytes": "32",
        "value": "t_array(t_uint256)dyn_storage"
      },
      "t_mapping(t_enum(LoanStatus)3166,t_mapping(t_uint256,t_uint256))": {
        "encoding": "mapping",
        "key": "t_enum(LoanStatus)3166",
        "label": "mapping(enum IUnlloo.LoanStatus => mapping(uint256 => uint256))",
        "numberOfBytes": "32",
        "value": "t_mapping(t_uint256,t_uint256)"
      },
      "t_mapping(t_uint256,t_struct(Loan)3223_storage)": {
        "encoding": "mapping",
        "key": "t_uint256",
        "label": "mapping(uint256 => struct IUnlloo.Loan)",
        "numberOfBytes": "32",
        "value": "t_struct(Loan)3223_storage"
      },
      "t_mapping(t_uint256,t_uint256)": {
        "encoding": "mapping",
        "key": "t_uint256",
        "label": "mapping(uint256 => uint256)",
        "numberOfBytes": "32",
        "value": "t_uint256"
      },
      "t_struct(LenderPosition)3251_storage": {
        "encoding": "inplace",
        "label": "struct IUnlloo.LenderPosition",
        "members": [
          {
            "astId": 3238,
            "contract": "contracts/Unlloo.sol:Unlloo",
            "label": "lender",
            "offset": 0,
            "slot": "0",
            "type": "t_address"
          },
          {
            "astId": 3241,
            "contract": "contracts/Unlloo.sol:Unlloo",
            "label": "token",
            "offset": 0,
            "slot": "1",
            "type": "t_address"
          },
          {
            "astId": 3244,
            "contract": "contracts/Unlloo.sol:Unlloo",
            "label": "depositedAmount",
            "offset": 0,
            "slot": "2",
            "type": "t_uint256"
          },
          {
            "astId": 3247,
            "contract": "contracts/Unlloo.sol:Unlloo",
            "label": "depositBlock",
            "offset": 0,
            "slot": "3",
            "type": "t_uint256"
          },
          {
            "astId": 3250,
            "contract": "contracts/Unlloo.sol:Unlloo",
            "label": "lastWithdrawBlock",
            "offset": 0,
            "slot": "4",
            "type": "t_uint256"
          }
        ],
        "numberOfBytes": "160"
      },
      "t_struct(LiquidityPool)3234_storage": {
        "encoding": "inplace",
        "label": "struct IUnlloo.LiquidityPool",
        "members": [
          {
            "astId": 3227,
            "contract": "contracts/Unlloo.sol:Unlloo",
            "label": "token",
            "offset": 0,
            "slot": "0",
            "type": "t_address"
          },
          {
            "astId": 3230,
            "contract": "contracts/Unlloo.sol:Unlloo",
            "label": "totalLiquidity",
            "offset": 0,
            "slot": "1",
            "type": "t_uint256"
          },
          {
            "astId": 3233,
            "contract": "contracts/Unlloo.sol:Unlloo",
            "label": "borrowedAmount",
            "offset": 0,
            "slot": "2",
            "type": "t_uint256"
          }
        ],
        "numberOfBytes": "96"
      },
      "t_struct(Loan)3223_storage": {
        "encoding": "inplace",
        "label": "struct IUnlloo.Loan",
        "members": [
          {
            "astId": 3170,
            "contract": "contracts/Unlloo.sol:Unlloo",
            "label": "loanId",
            "offset": 0,
            "slot": "0",
            "type": "t_uint256"
          },
          {
            "astId": 3173,
            "contract": "contracts/Unlloo.sol:Unlloo",
            "label": "borrower",
            "offset": 0,
            "slot": "1",
            "type": "t_address"
          },
          {
            "astId": 3177,
            "contract": "contracts/Unlloo.sol:Unlloo",
            "label": "status",
            "offset": 20,
            "slot": "1",
            "type": "t_enum(LoanStatus)3166"
          },
          {
            "astId": 3180,
            "contract": "contracts/Unlloo.sol:Unlloo",
            "label": "walletReputation",
            "offset": 21,
            "slot": "1",
            "type": "t_uint16"
          },
          {
            "astId": 3183,
            "contract": "contracts/Unlloo.sol:Unlloo",
            "label": "loanAmount",
            "offset": 0,
            "slot": "2",
            "type": "t_uint256"
          },
          {
            "astId": 3186,
            "contract": "contracts/Unlloo.sol:Unlloo",
            "label": "loanDurationBlocks",
            "offset": 0,
            "slot": "3",
            "type": "t_uint256"
          },
          {
            "astId": 3189,
            "contract": "contracts/Unlloo.sol:Unlloo",
            "label": "chainId",
            "offset": 0,
            "slot": "4",
            "type": "t_uint256"
          },
          {
            "astId": 3192,
            "contract": "contracts/Unlloo.sol:Unlloo",
            "label": "requestBlock",
            "offset": 0,
            "slot": "5",
            "type": "t_uint256"
          },
          {
            "astId": 3195,
            "contract": "contracts/Unlloo.sol:Unlloo",
            "label": "approvalBlock",
            "offset": 0,
            "slot": "6",
            "type": "t_uint256"
          },
          {
            "astId": 3198,
            "contract": "contracts/Unlloo.sol:Unlloo",
            "label": "token",
            "offset": 0,
            "slot": "7",
            "type": "t_address"
          },
          {
            "astId": 3201,
            "contract": "contracts/Unlloo.sol:Unlloo",
            "label": "principal",
            "offset": 0,
            "slot": "8",
            "type": "t_uint256"
          },
          {
            "astId": 3204,
            "contract": "contracts/Unlloo.sol:Unlloo",
            "label": "amountRepaid",
            "offset": 0,
            "slot": "9",
            "type": "t_uint256"
          },
          {
            "astId": 3207,
            "contract": "contracts/Unlloo.sol:Unlloo",
            "label": "startBlock",
            "offset": 0,
            "slot": "10",
            "type": "t_uint256"
          },
          {
            "astId": 3210,
            "contract": "contracts/Unlloo.sol:Unlloo",
            "label": "deadlineBlock",
            "offset": 0,
            "slot": "11",
            "type": "t_uint256"
          },
          {
            "astId": 3213,
            "contract": "contracts/Unlloo.sol:Unlloo",
            "label": "protocolFee",
            "offset": 0,
            "slot": "12",
            "type": "t_uint256"
          },
          {
            "astId": 3216,
            "contract": "contracts/Unlloo.sol:Unlloo",
            "label": "interestAccrued",
            "offset": 0,
            "slot": "13",
            "type": "t_uint256"
          },
          {
            "astId": 3219,
            "contract": "contracts/Unlloo.sol:Unlloo",
            "label": "borrowRateBps",
            "offset": 0,
            "slot": "14",
            "type": "t_uint256"
          },
          {
            "astId": 3222,
            "contract": "contracts/Unlloo.sol:Unlloo",
            "label": "lastAccrualBlock",
            "offset": 0,
            "slot": "15",
            "type": "t_uint256"
          }
        ],
        "numberOfBytes": "512"
      },
      "t_struct(RateCurveParams)3268_storage": {
        "encoding": "inplace",
        "label": "struct IUnlloo.RateCurveParams",
        "members": [
          {
            "astId": 3255,
            "contract": "contracts/Unlloo.sol:Unlloo",
            "label": "baseRateBps",
            "offset": 0,
            "slot": "0",
            "type": "t_uint256"
          },
          {
            "astId": 3258,
            "contract": "contracts/Unlloo.sol:Unlloo",
            "label": "optimalUtilizationBps",
            "offset": 0,
            "slot": "1",
            "type": "t_uint256"
          },
          {
            "astId": 3261,
            "contract": "contracts/Unlloo.sol:Unlloo",
            "label": "slope1Bps",
            "offset": 0,
            "slot": "2",
            "type": "t_uint256"
          },
          {
            "astId": 3264,
            "contract": "contracts/Unlloo.sol:Unlloo",
            "label": "slope2Bps",
            "offset": 0,
            "slot": "3",
            "type": "t_uint256"
          },
          {
            "astId": 3267,
            "contract": "contracts/Unlloo.sol:Unlloo",
            "label": "protocolFeeBps",
            "offset": 0,
            "slot": "4",
            "type": "t_uint256"
          }
        ],
        "numberOfBytes": "160"
      },
      "t_uint16": {
        "encoding": "inplace",
        "label": "uint16",
        "numberOfBytes": "2"
      },
      "t_uint256": {
        "encoding": "inplace",
        "label": "uint256",
        "numberOfBytes": "32"
      }
    }
  }
}